:020000040800F2
:10000000A80400209D0100083F150008D313000834
:100010003D15000809020008C71A0008000000008A
:10002000000000000000000000000000C1150008F2
:100030000B0200080000000041150008C31500086D
:10004000B7010008B7010008B7010008B7010008B0
:10005000B7010008B7010008B7010008B7010008A0
:10006000B7010008B7010008B7010008B701000890
:10007000B7010008B7010008B7010008B701000880
:10008000B7010008B7010008B7010008B701000870
:10009000B7010008B7010008B7010008B701000860
:1000A000B7010008B7010008B7010008B701000850
:1000B000B70100085916000865160008B7010008C6
:1000C000B7010008B7010008B7010008B701000830
:1000D000B7010008B7010008B7010008B701000820
:1000E000B7010008B7010008B7010008B701000810
:1000F000B7010008B7010008B7010008B701000800
:10010000B7010008B7010008B7010008B7010008EF
:10011000B7010008B7010008B7010008B7010008DF
:10012000B7010008B7010008B7010008B7010008CF
:10013000B7010008B7010008B7010008B7010008BF
:10014000B7010008B7010008B7010008B7010008AF
:10015000B7010008B7010008B7010008B70100089F
:10016000B7010008B7010008B7010008B70100088F
:10017000B7010008B7010008B7010008000000003F
:10018000B7010008B7010008DFF80CD000F02AF82A
:1001900000480047091B0008A804002006488047C3
:1001A00006480047FEE7FEE7FEE7FEE7FEE7FEE75C
:1001B000FEE7FEE7FEE7FEE71516000889010008E6
:1001C000D2B201E000F8012B491EFBD27047002299
:1001D000F6E710B513460A4604461946FFF7F0FF46
:1001E000204610BD064C074D06E0E06840F00103D4
:1001F00094E8070098471034AC42F6D3FFF7C8FFE5
:10020000741B0008941B0008FEE770472DE9F04FAF
:10021000DFF83492002309F1040A012403250AF1CE
:10022000040B87B00F270BF1040E04E104FA03F668
:1002300032407CD0D1F804C0BCF1010F08D0BCF131
:10024000020F05D0BCF1110F02D0BCF1120F29D161
:10025000D0F808C0CDF800C04FEA430C05FA0CF8FE
:10026000CDF80CC0DDF800C02CEA080CCDF800C0B9
:10027000D1F80C80DDF80CC008FA0CF8DDF800C0ED
:1002800048EA0C08C0F80880D0F8048091F804C04F
:1002900028EA0608CCF3001C0CFA03FC4CEA080C14
:1002A000C0F804C0D1F804806FEA080C5FEA8C7CC7
:1002B00009D1D0F82CC02CEA060CC8F3C0069E4029
:1002C00046EA0C06C662D0F80CC04FEA430805FAAD
:1002D00008F62CEA060CCDF8148002968E6806FA11
:1002E00008F646EA0C06C6604E68022E01D0122EB1
:1002F00015D1DE0800EB86060396366A4FEA437C8A
:100300004FEADC6807FA08FC26EA0C06D1F810C0B0
:100310000CFA08FC4CEA060C039EC6F820C00668DE
:10032000DDF808C026EA0C0691F804C000E081E080
:10033000DDF814800CF0030C0CFA08FC4CEA060CF7
:10034000C0F800C04E68F60074D5404ED6F860C0C4
:100350004CF0010CC6F860C0366E23F0030C06F0BA
:10036000010600963A4E66440296D6F808C09E07EB
:100370004FEA167807FA08F62CEA060CB0F1904F0F
:1003800004D0344EB04203D101261BE0002619E010
:10039000314EB04201D1022614E0304EB04201D1BC
:1003A00003260FE02E4EB04201D104260AE02D4E66
:1003B000B04201D1052605E02B4EB04201D1062600
:1003C00000E0072606FA08F646EA0C06DDF808C043
:1003D000CCF80860D9F80060CC46D1F80480964388
:1003E0005FEAC83800D51643CCF80060DAF8006040
:1003F000D446D1F8048096435FEA883800D5164386
:10040000CCF80060DBF80060DC46D1F8048096434D
:100410005FEAC82800D51643CCF80060DEF800601B
:10042000F446D1F8048096435FEA882800D5164345
:10043000CCF800605B1C0A6832FA03F67FF4F6AE73
:1004400007B000F013B800000004014000100240A3
:10045000000001400004004800080048000C00486B
:1004600000100048001400480018004830BCBDE8E7
:10047000C08F426921EA02030A4043EA02418161D6
:1004800070470AB181617047816270470148806896
:100490007047000000000020024881680278114483
:1004A0008160704700000020094810B501680024F1
:1004B00041F480710160032000F072F8002000F028
:1004C00009F808B1012401E000F026F8204610BD2B
:1004D0000020024070B50E4E05460024307898B1D9
:1004E0004FF47A71B1FBF0F00A490968B1FBF0F002
:1004F00000F01AFC40B9102D06D200222946501EE9
:1005000000F02EF8756000E00124204670BD000068
:10051000000000200C000020094808B5016E41F0E1
:1005200001010166016E01F001010091816D41F050
:1005300080518165806D00F08050009008BD000002
:1005400000100240002809DB00F01F020121914049
:100550004009800000F1E020C0F800117047000061
:10056000F0B40E4B1B680C46C3F30223C3F107051E
:10057000042D00D90425191D072901D2002300E00C
:10058000DB1E012606FA05F1491E214099409E40D6
:10059000761E16403143F0BC01F096BA0CED00E037
:1005A000064900F0070208684FF6FF03184040EACA
:1005B0000220034A10430860704700000CED00E081
:1005C0000000FA051649B0F5007F0868C0F3412025
:1005D00009D0022805D0086820F4C06040F480608B
:1005E0000860002070470128FBD0086820F4C06034
:1005F00040F4007008600B483222006850430A4AF9
:10060000B0FBF2F0401C00E0401E4A69520501D5E3
:100610000028F9D148694005E3D503207047000060
:10062000007000400C00002040420F0002480068AB
:1006300000F4C06070470000007000402DE9F047F2
:100640000F46050058D0404E306800F00700B84211
:1006500009D2306820F0070038433060306800F07D
:100660000700B84248D12878384CC0072CD06868B9
:10067000032811D0022812D0216898B14905002919
:100680003ADAA16821F003010143A160FFF7FEFE01
:10069000804641F2883910E021688901EFE721683E
:1006A0008903ECE78907EAE7FFF7F0FEA0EB080112
:1006B000494502D90320BDE8F087A068696800F0C9
:1006C0000C00B0EB810FEFD12878800705D5A0682A
:1006D000A96820F0F0000843A060306800F007002F
:1006E000B8420BD9306820F00700384330603068DA
:1006F00000F00700B84201D00120DCE7287840076D
:1007000005D5A068E96820F4E0600843A060287877
:10071000000706D5A068296920F4605040EAC100AE
:10072000A06000F01BF8A168094AC1F30311515CF5
:1007300001F01F01C8400749086007480068BDE88C
:10074000F047FFF7C7BE0000002002400010024043
:10075000341B00080C0000200400002070B525495F
:10076000002318468A68CC6812F00C0204F00306D5
:10077000214C4FEA640509D00C2A05D0042A32D056
:10078000082A00D1284670BD012E10D10B681B0726
:1007900004D4D1F89430C3F3032302E00B68C3F30D
:1007A0000313164E56F82330DAB10C2AEBD1C86881
:1007B00000F00300022818D0032818D01846CA6891
:1007C000CB68C2F30212C3F306234343521CB3FBAC
:1007D000F2F2C868C0F34160401C4000B2FBF0F088
:1007E00070BD184670BD204670BD2046E7E728461C
:1007F000E5E70000001002400024F400441B00085C
:100800002DE9F84304006FD0FE4DA86800F00C06F7
:10081000E86800F003072078C00664D576B10C2E96
:1008200001D1012F0AD0A069002828687AD040F0B1
:1008300001002860FFF72AFE80465DE028688007F7
:1008400002D5A0690028DED0216A2868000703D5F8
:10085000286800F0F00004E0D5F89400F02202EAE5
:100860001010814216D9084600F06CFE00283BD1DA
:10087000286840F0080028602868216A20F0F0000D
:10088000084328606868E16920F47F4040EA01205D
:10089000686016E0286840F0080028602868216A2F
:1008A00020F0F000084328606868E16920F47F4088
:1008B00040EA0120686026B9206A00F043FE002863
:1008C000D5D1FFF74BFFA968CF4AC1F30311515CA3
:1008D00001F01F01C840CD490860CD480068FFF70E
:1008E000F9FD00287ED12EE0CAE000BFFFF7CEFD63
:1008F000A0EB0800022876D828688007F6D528687B
:1009000040F0080028602868216A20F0F0000843C1
:1009100028606868E16920F47F4040EA012068604F
:1009200011E0FFE720F001002860FFF7AFFD8046EF
:1009300006E000BFFFF7AAFDA0EB08000228DAD806
:1009400028688007F6D42078C00740D0082E18D039
:100950000C2E01D1032F14D06068B0F5803F17D062
:10096000B0F5A02F286817D020F4803028602868C0
:1009700020F4802028606068E0B1FFF787FD8046A2
:1009800014E02868800322D56068002878D01EE033
:10099000286840F48030EDE740F480202860F7E7D5
:1009A000FFF774FDA0EB08006428A4D82868800332
:1009B000F6D50CE0FFF76AFD804605E0FFF766FD1F
:1009C000A0EB0800642896D828688003F6D4207825
:1009D00080073BD5042E11D00C2E01D1022F0DD053
:1009E000E06801E092E1F1E0002828681ED040F4C0
:1009F00080702860FFF74AFD07460CE02868400534
:100A00000CD5E0680028C1D008E000BFFFF73EFD2C
:100A1000C01B022893D828684005F7D56868217C58
:100A200020F0F85040EA016068600FE020F4807028
:100A30002860FFF72BFD074605E000BFFFF726FD06
:100A4000C01B0228B1D828684005F7D420780007D9
:100A500029D560690028D5F8940012D040F0010033
:100A6000C5F89400FFF712FD074604E0FFF70EFDFE
:100A7000C01B022899D8D5F894008007F6D512E05B
:100A800000E120F00100C5F89400FFF7FFFC0746E5
:100A900005E000BFFFF7FAFCC01B022885D8D5F897
:100AA00094008007F6D42078400766D5A86D00270B
:100AB000C00008D4A86D40F08050A865A86D01273B
:100AC00000F08050009053480168C90512D40168B5
:100AD000814641F480710160FFF7D8FC804605E053
:100AE000FFF7D4FCA0EB080002286FD8D9F800006B
:100AF000C005F5D5A068012816D00528D5F89000C6
:100B000017D020F00100C5F89000D5F8900020F033
:100B1000040000BFC5F89000A06841F28839C0B158
:100B2000FFF7B4FC80460FE0D5F8900040F00100DC
:100B3000F0E740F00400C5F89000F5E7FFF7A6FCE9
:100B4000A0EB0801494541D8D5F890008007F5D5BC
:100B50000EE0FFF79BFC804606E000BFFFF796FC27
:100B6000A0EB0801494531D8D5F890008007F5D4AD
:100B70001FB1A86D20F08050A865A06A38B3022884
:100B80000AD00C2E7ED0286820F08070286028685B
:100B900010F0205F77D0AAE0E868E26A00F0030175
:100BA00091422BD1216B00F0700209011039914262
:100BB00024D1626B00F4FE41B1EB022F1ED1A26B77
:100BC00000F40031072A03D0012202E09DE089E011
:100BD0000022914212D1A18F00F4C00249084905B8
:100BE000A1F50011914209D194F8401000F0C060C5
:100BF00049084906A1F1007181425CD00C2E41D018
:100C0000286809E000100240341B00080C00002096
:100C1000040000200070004040017ED42868C0001D
:100C20007BD4286820F080702860FFF72FFC0646F0
:100C300005E000BFFFF72AFC801B022865D8286862
:100C40008001F7D4D4E90B016FF00F0202EB011120
:100C50000843A18F5204490802EB4151626B41EAFB
:100C60000221084394F840104FF07E42490802EBFD
:100C700041610843A16B090940EA4140E968284AFB
:100C8000114001E049E02EE00843E860286840F0A8
:100C900080702860E86840F08070E860FFF7F6FB3D
:100CA000044604E0FFF7F2FB001B02282DD8286859
:100CB0008001F7D52FE0286880012CD4286840F007
:100CC00080702860E86840F08070E860FFF7DEFB25
:100CD000044604E0FFF7DAFB001B022815D8286859
:100CE0008001F7D517E0E86820F00300E860E868C5
:100CF0000C490840E860FFF7C9FB044608E000BF64
:100D0000FFF7C4FB001B022802D90320BDE8F883CB
:100D100028688001F4D40020F8E70120F6E70000FD
:100D20008C809DF9FFFFEEFE10B5401EB0F1807F74
:100D300001D3012010BD4FF0E02460610F21601746
:100D400000F0C2FE0020A06107202061002010BD3D
:100D50007047704770470000F0B590F83C20012ABA
:100D600039D0012480F83C40022280F83D200268FE
:100D700053689568194E1A4FB24201D0BA4204D155
:100D800023F4700C4B6843EA0C0323F0700C0B68DF
:100D900043EA0C0353600268B24210D0B2F1804FB4
:100DA0000DD0104B9A420AD00F4B9A4207D00F4BEE
:100DB0009A4204D0BA4202D00D4B9A4204D18968BB
:100DC00025F080031943916080F83D40002180F8B0
:100DD0003C100846F0BD0220F0BD0000002C014090
:100DE000003401400004004000080040000C0040B6
:100DF0000040014010B5040003D094F83D0010B14C
:100E000007E0012010BD002084F83C00204600F0DF
:100E100023F8022084F83D00211D206800F028FC02
:100E2000012084F8480084F83E0084F83F0084F8EC
:100E3000400084F8410084F8420084F8430084F8BC
:100E4000440084F8450084F8460084F8470084F89C
:100E50003D00002010BD000008B5154A0168154886
:100E600091420ED1816D41F002018165806D0022B9
:100E700000F00200009011461D20FFF771FB1D20BD
:100E800010E00D4A914211D1816D41F0040181655C
:100E9000806D002200F00400009011461E20FFF734
:100EA0005FFB1E20BDE80840FFF74CBB08BD0000FB
:100EB00000040040001002400008004090F83D107F
:100EC000012901D001207047022180F83D100168FE
:100ED000CA6842F00102CA6000681149884211D014
:100EE000B0F1804F0ED00F4988420BD00E49884296
:100EF00008D00E49884205D00D49884202D00D49DC
:100F0000884207D181680C4A1140062906D0B1F504
:100F1000803F03D0016841F001010160002070476B
:100F2000002C01400004004000080040000C00407C
:100F300000340140004001400700010070B5044644
:100F400090F83C00012817D0012584F83C5002207D
:100F500084F83D00226890682E4B184020F47F40B2
:100F600090600868502830D00DDC20284DD005DC7A
:100F700098B310283BD148E0022070BD302844D0FF
:100F8000402834D139E0602828D0702806D0B0F548
:100F9000805F2CD0B0F5005F29D10AE0CB68D1E9A1
:100FA0000121206800F0D1FB2068816841F07701C1
:100FB00009E0CB68D1E90121206800F0C6FB206878
:100FC000816841F48041816011E0CA684968206805
:100FD00000F056FD5021206807E016E0CA68496815
:100FE000206800F05EFD6021206800F0B8FB84F806
:100FF0003D50002084F83C0070BDCA6849682068F4
:1010000000F03EFD40212068EFE7226801461046CF
:10101000EBE7000088FFFEFF704770B504460068EC
:1010200001694FF00005C943890715D4C168C94358
:10103000890711D4E91E01610120207720688069A9
:101040008007204602D0FFF7E7FF04E000F0DCF85D
:10105000204600F0ADF9257720680169C9434907AA
:1010600017D4C168C943490713D46FF00401016163
:10107000022020772068806910F4407F204602D04B
:10108000FFF7CAFF04E000F0BFF8204600F090F937
:10109000257720680169C943090716D4C168C94387
:1010A000090712D46FF0080101610420207720683D
:1010B000C0698007204602D0FFF7AEFF04E000F0D1
:1010C000A3F8204600F074F9257720680169C94328
:1010D000C90617D4C168C943C90613D46FF01001FB
:1010E0000161082020772068C06910F4407F204605
:1010F00002D0FFF791FF04E000F086F8204600F0F0
:1011000057F9257720680169C943C90708D1C16823
:10111000C943C90704D1891E0161204600F04AF97C
:1011200020680169C943090609D4C168C943090691
:1011300005D46FF0800101612046FFF70AFE2068A8
:101140000169C943C90509D4C168C943090605D461
:101150006FF4807101612046FFF7FAFD2068016994
:10116000C943490609D4C168C943490605D46FF08B
:1011700040010161204600F02BF920680169C94354
:1011800089060BD4C168C943890607D46FF02001D2
:1011900001612046BDE87040FFF7DCBD70BD10B5B1
:1011A000044690F83C0001280BD0012084F83C0054
:1011B0000C2A19D007DC5AB1042A0DD0082A1ED1F6
:1011C0000EE0022010BD102A12D0142A17D113E00D
:1011D000206800F0CDFA12E0206800F017FB0EE066
:1011E000206800F05BFB0AE0206800F09FFB06E04F
:1011F000206800F0D5FB02E0206800F009FC002028
:1012000084F83C0010BD000010B5044604210348DA
:10121000FFF72FF921680020486210BD0004004844
:1012200010B5040003D094F83D0010B107E0012090
:1012300010BD002084F83C00204600F022F8022077
:1012400084F83D00211D206800F012FA012084F886
:10125000480084F83E0084F83F0084F8400084F899
:10126000410084F8420084F8430084F8440084F884
:10127000450084F8460084F8470084F83D000020CB
:1012800010BD704730B50446022269B1042916D05A
:10129000082920D00C2929D010292ED094F84300F9
:1012A000012831D0012030BD94F83E000128F9D149
:1012B00084F83E202068C26842F0020209E094F8F7
:1012C0003F000128EED184F83F202068C26842F038
:1012D0000402C2601CE094F840000128E2D184F8C6
:1012E00040202068C26842F00802F2E794F841000A
:1012F0000128D7D184F8412008E094F84200012861
:10130000D0D184F8422003E084F843200C2938D05F
:101310000122206800F00CFA1C4920681C4A1D4B71
:10132000884209D0904207D0984205D01A4DA84271
:1013300002D01A4DA84203D1456C45F400454564DE
:10134000206888420FD0B0F1804F0CD014498842F9
:1013500009D01449884206D01349884203D09042EC
:1013600001D0984207D18168104A1140062906D061
:10137000B1F5803F03D0016841F001010160002018
:1013800030BD2068C26842F01002A2E7002C014084
:101390000034014000400140004401400048014049
:1013A0000004004000080040000C0040070001005D
:1013B0007047000000680449884203D18115034842
:1013C000FFF757B8704700000004004000100048C5
:1013D0007047FEE72DE9F04186B014216846FEF71C
:1013E000F6FE1B48C16C41F00201C164C16C01F002
:1013F00002010591C16C41F01001C164C06C154F30
:1014000000F010000590002204213846FFF739F85B
:10141000DFF844804FF48076002231464046FFF7E3
:1014200030F80420009001250024CDE901546946DC
:1014300038460394FEF7EAFE0096CDE9015469466A
:1014400040460394FEF7E2FE06B0BDE8F0810000DE
:1014500000100240000400480010004810B588B099
:101460000024134800940194029403940494059476
:101470000E490694016040F28F11C0E9011441F257
:101480008731C0E9031480218161FFF7B3FC4FF479
:101490008050009069460648FFF750FD049404A967
:1014A00003480694FFF758FC08B010BD0004004044
:1014B0001000002030B58FB00024079408940994E0
:1014C0000A940B940C941C2168460D94FEF77FFE41
:1014D000194D1848286040F28F10C5E901044FF6F5
:1014E000FF70C5E903048020A8612846FFF782FC4D
:1014F0004FF48050079007A92846FFF71FFD2846A4
:10150000FFF78EFE0B940BA928460D94FFF724FCE1
:1015100042F20F70CDE9004002940022694628464D
:101520000494FFF73CFE2868816941F0080181615D
:101530000FB030BD000800405C000020FEE770479F
:1015400070470000F8B51C4D06460024A86DC00089
:1015500002D5FFF76BF80DE0A86D40F08050A8654C
:10156000A86D00F080500090FFF760F8A96D21F0A1
:101570008051A965B0F5007F04D0802E07D94FF0C7
:1015800003040AE0802E08D9A02E01D804E001D17E
:10159000022402E0702E00D101240848016821F0E5
:1015A000070121430160006800F00700A04201D05C
:1015B0000120F8BD0020F8BD0010024000200240CC
:1015C0007047FEF769BF10B596B044216846FEF734
:1015D000FEFD142111A8FEF7FAFD10200090002452
:1015E0000120CDE90604602008900A946846FFF7C0
:1015F00007F90F20CDE9110413941494002111A8C8
:101600001594FFF71BF84FF40070FEF7DBFF16B0E0
:1016100010BD00000D48016841F4700101600C48E4
:10162000016841F001010160002181600268094BFD
:101630001A4002608214C260026822F480220260B2
:1016400081610249C00380390860704788ED00E07D
:1016500000100240FFFFF6EA0148FFF7DEBC000081
:10166000100000200148FFF7D8BC00005C000020FB
:101670002DE9F0470268264B264D274E274F284C70
:101680004FF0804A984209D0504507D0A84205D073
:10169000B04203D0B84201D0A04204D122F0700C75
:1016A0004A6842EA0C02DFF87CC0DFF87C80DFF891
:1016B0007C9098420FD050450DD0A8420BD0B0423C
:1016C00009D0B84207D0A04205D0604503D04045BC
:1016D00001D0484503D122F44075CA682A434D69B8
:1016E00022F080022A4302608A68C2620A6882622B
:1016F000984207D0A04205D0604503D0404501D0B4
:10170000484501D10969016301214161BDE8F087C4
:10171000002C01400004004000080040000C004084
:1017200000340140004001400044014000480140B5
:1017300010B501F01F030121046A99408C43046233
:10174000016A9A401143016210BD10B5846842EAF3
:10175000032224F47F440A432243826010BD82683E
:1017600022F070020A4342F00701816070470000D6
:101770002DE9F043026A22F001020262056A436821
:1017800082691C4C25F0020522400C6822F00302FD
:1017900014438A68194E2A43174D194FDFF864C065
:1017A000DFF86490A84207D0B04205D0B84203D019
:1017B000604501D0484506D122F00808CA6842EACF
:1017C000080222F00402A84207D0B04205D0B84275
:1017D00003D0604501D0484505D14D6923F44073DD
:1017E0001D438B692B4343608461496841630262F6
:1017F000BDE8F0838FFFFEFF002C01400034014064
:10180000004001400044014000480140F0B5026A38
:1018100022F010020262056A42688369194C1B4E6D
:1018200023400C6823F4407343EA042425F020038A
:101830008D6843EA0513144DA84201D0B04206D189
:10184000CF6823F0800343EA071323F04003A84244
:101850000AD0B04208D00E4DA84205D00D4DA84286
:1018600002D00D4DA84207D14D6922F4406242EAF0
:1018700085028D6942EA850242608461496881631C
:101880000362F0BDFF8FFFFE002C014000340140D9
:10189000004001400044014000480140F0B5026AA8
:1018A00022F480720262056A4368C269194C1B4EB9
:1018B00022400C6822F00302144325F400728D6864
:1018C00042EA0522144DA84201D0B04206D1CF68A9
:1018D00022F4006242EA072222F48062A8420AD07F
:1018E000B04208D00E4DA84205D00E4DA84202D0FD
:1018F0000D4DA84207D14D6923F4405343EA051327
:101900008D6943EA05134360C4614968C16302629B
:10191000F0BD00008FFFFEFF002C014000340140AD
:1019200000400140004401400048014030B5026AD7
:1019300022F480520262046A4268C369124D24F4A0
:1019400000542B400D6823F4407343EA05238D684F
:1019500044EA05340D4DA8420BD00D4DA84208D0E5
:101960000C4DA84205D00C4DA84202D00B4DA84208
:1019700004D14D6922F4804242EA85124260C3617B
:1019800049680164046230BDFF8FFFFE002C0140F6
:101990000034014000400140004401400048014043
:1019A00030B5026A22F480320262046A4268436DF2
:1019B000114D2B400D681D4324F400330C8943EA7C
:1019C00004430E4CA0420BD00D4CA04208D00D4C4D
:1019D000A04205D00C4CA04202D00C4CA04204D135
:1019E0004C6922F4803242EA04224260456549682B
:1019F0008165036230BD00008FFFFEFF002C0140B7
:101A000000340140004001400044014000480140D2
:101A100030B5026A22F480120262046A4268436DA1
:101A2000114D24F400142B400D6843EA05230D8961
:101A300044EA05540D4DA8420BD00D4DA84208D0E4
:101A40000C4DA84205D00C4DA84202D00B4DA84227
:101A500004D14D6922F4802242EA85224260436526
:101A60004968C165046230BDFF8FFFFE002C014054
:101A70000034014000400140004401400048014062
:101A800010B5036A046A24F001040462846924F036
:101A9000F00444EA021423F00A020A438461026259
:101AA00010BD10B5036A23F0100303628369046A52
:101AB00023F4704343EA023224F0A00343EA011105
:101AC0008261016210BDFEE70907090E002804DBF0
:101AD00000F1E02080F80014704700F00F0000F1E2
:101AE000E02080F8141D704702E008C8121F08C1EA
:101AF000002AFAD170477047002001E001C1121F8F
:101B0000002AFBD170470000FEF7CEFCFFF75BFD1B
:101B1000FFF760FCFFF7A2FC0548FFF7CFF9FFF7DE
:101B2000C9FC034800214C30FFF7ACFBFEE7000086
:101B3000100000200000000000000000010203046B
:101B400006070809A0860100400D0300801A060060
:101B500000350C0040420F0080841E0000093D004B
:101B600000127A000024F40000366E010048E801FB
:101B7000006CDC02941B0008000000201000000034
:101B8000E81A0008A41B00081000002098040000B8
:101B9000F81A00080100000010000000000000001A
:041BA00000093D00FB
:040000050800018965
:00000001FF
