:020000040800F2
:10000000200500209D010008AF290008992600085E
:10001000AD290008ED0700087B3100080000000052
:10002000000000000000000000000000652C000837
:10003000F908000800000000B1290008672C00083A
:10004000B7010008B7010008B7010008B7010008B0
:10005000B7010008B7010008FB080008B701000855
:100060000109000807090008B7010008B7010008E6
:10007000B7010008B7010008B7010008B701000880
:10008000B7010008B7010008B7010008B701000870
:10009000B7010008B7010008B70100080D09000802
:1000A000B7010008B7010008B7010008B701000850
:1000B000B7010008B7010008B7010008B701000840
:1000C000B7010008B7010008B7010008B701000830
:1000D000B7010008B7010008B7010008B701000820
:1000E000B7010008B7010008B7010008B701000810
:1000F000B7010008B7010008B7010008B701000800
:10010000B7010008B7010008B7010008B7010008EF
:10011000B7010008B7010008B7010008B7010008DF
:10012000B7010008B7010008B7010008B7010008CF
:10013000B7010008B7010008B7010008B7010008BF
:10014000B7010008B7010008B7010008B7010008AF
:10015000B7010008B7010008B7010008B70100089F
:10016000B7010008B7010008B7010008B70100088F
:10017000B7010008B7010008B7010008000000003F
:10018000B7010008B7010008DFF80CD000F04AFA08
:1001900000480047113F000820050020064880471E
:1001A00006480047FEE7FEE7FEE7FEE7FEE7FEE75C
:1001B000FEE7FEE7FEE7FEE7E12C00088901000804
:1001C000D2B201E000F8012B491EFBD27047002299
:1001D000F6E710B513460A4604461946FFF7F0FF46
:1001E000204610BD00F0004230F000400AD0C10DA2
:1001F00001F56071C0F3160042EA0151C2084007E0
:100200001143704700200146704730B50B46014648
:1002100000202022012409E021FA02F59D4205D3A5
:1002200003FA02F5491B04FA02F52844151EA2F14F
:100230000102F1DC30BD2DE9F05F05460020924659
:100240009B4688460646814640241BE02846414698
:100250004746224600F007FA53465A46C01A9141D3
:1002600010D311461846224600F0EEF92D1A67EB1E
:1002700001084F4622460120002100F0E5F917EB66
:1002800000094E41201EA4F10104DFDC484631463E
:100290002A46434600F000B830BCBDE8C09F2DE9B7
:1002A000FE4F804681EA0300C00F0C46009021F00B
:1002B000004123F00045B8EB0200A94105D24046B9
:1002C000214690461C460B46024623F00040104350
:1002D00047D0270DC7F30A00C3F30A510290401A12
:1002E000019040286BDAC3F3130040F4801B0098A0
:1002F000924620B10023D2EB030A63EB0B0B01986B
:100300005946C0F14002504600F09EF906460D469F
:1003100050465946019A00F0B6F910EB08006141C9
:10032000002487EA115284EAE7731A4340D0009A06
:1003300062B3019A012A4FEA075215DC001B61EBF8
:1003400002014FF0004202EA0752CDE90042001CD0
:1003500041F5801132462B4600F0B6F903B000F0AB
:1003600045B840462146F9E7001B61EB0201001C3D
:1003700041F5801300185B412018A2F5001747EBE8
:10038000030140EAD570B6196D4111E06D084FEADE
:10039000360645EAC0754FEA0752001B61EB0201C1
:1003A000001C41F5801149084FEA30000019514105
:1003B00032462B4603B000F01CB800F076B9009826
:1003C000012240000023D0EB020263EBE0730098AF
:1003D00021464FEAE074B8EB000061EB0401E9E765
:1003E00083F000435BE781F0004158E730BCBDE893
:1003F000C08F30BCBDE8C04FFFF7DFBF2DE9FE4F17
:1004000081EA030404F0004421F0004100944FF01D
:10041000000B23F0004350EA01045ED052EA0304CB
:100420005BD0C3F30A54C1F30A552C44A4F2F3344D
:100430000194A0FB0254C1F3130141F48011C3F3F2
:10044000130343F4801301FB024400FB034E840AB0
:10045000970A44EA815447EA8357A4FB0768029548
:100460008D0A05FB07854FEA932C04FB0C542705E6
:10047000029D4FEA065847EA1637B5EB08056EEBC2
:10048000070C870E920E47EA811742EA8312A7FBF8
:100490000201B6EB0B0164EB00042B0D43EA0C33B5
:1004A0005E1844EB1C50DA465146E7FB0201C5F3E7
:1004B00013044FEA0B3343EA14534FEA0432019C0E
:1004C00043EA0603A4F10C040294009CCDE900B4B5
:1004D00000F0FAF803B000F003B800200146F9E795
:1004E00030BCBDE8C08F2DE9F04D81EA030404F073
:1004F000004B21F0004514464FF0000A23F0004164
:1005000050EA050220D054EA01021DD0C5F30A5773
:100510000246C5F31303C1F31300C1F30A5640F4B6
:10052000801543F48013A7EB0608101BD64608F28B
:10053000FD3873EB050002D308F1010801E09218C1
:100540005B41B8F1000F03DA00200146BDE8F08DF1
:1005500000204FF48011064684460EE0171B73EB13
:10056000050705D3121B63EB050306434CEA010C98
:1005700049084FEA300092185B4150EA0107EDD17B
:1005800052EA030012D082EA040083EA050108431C
:1005900005D0101BAB4106D20122002306E0002249
:1005A0004FF0004302E06FF0010253101AEB060017
:1005B0004CEB085110EB0A0041EB0B01BDE8F04D8C
:1005C00000F073B8C1F30A52C1F3130140F2FF33D4
:1005D00041F480119A4202DA00200146704740F24D
:1005E00033439A42A2F2334202DC524200F03BB85B
:1005F00000F02AB830B5041E71F1000404DB4FF09E
:100600000044404264EB0101141E73F1000405DB59
:100610001C464FF00043524263EB0403994208BF6B
:10062000904230BD064C074D06E0E06840F0010303
:1006300094E8070098471034AC42F6D3FFF7A8FDC2
:100640005841000878410008202A04DB203A00FACB
:1006500002F1002070479140C2F1200320FA03F319
:10066000194390407047202A04DB203A21FA02F017
:100670000021704721FA02F3D040C2F120029140DC
:10068000084319467047202A06DBCB17203A41FA67
:1006900002F043EAE07306E041FA02F3D040C2F10F
:1006A0002002914008431946704710B5141E73F19B
:1006B000000408DA401C41F1000192185B411A4322
:1006C00001D120F0010010BD2DE9F04D92469B466E
:1006D00011B1B1FA81F202E0B0FA80F22032904614
:1006E000FFF7B2FF04460F4640EA0A0041EA0B0159
:1006F00053465A46084313D0114653EA010019D015
:10070000C8F140025046FFF7AEFF05460E46504680
:1007100059464246FFF798FF084305D0012004E000
:1007200020463946BDE8F08D0020054346EAE076D4
:100730002C4337430A986305E40AA0EB0800002223
:10074000FD0A44EA47540A3002D500200146E9E791
:10075000010510196941DDE9084500196941BDE845
:10076000F04DA2E7014800F009BE0000240000207F
:1007700070B50546002408E00022234611462846AD
:1007800002F0FCFC641CE4B26D1C287808B1052C56
:10079000F2D9BDE87040014800F0AFBE240000204F
:1007A000114810B50F49016000214FF47012C0E9E3
:1007B00001120C22C2604FF4A05340228361C0E9B1
:1007C0000421C0E9071212024162C0E90A12016362
:1007D00001F064FF044800F00FFEBDE8104002483D
:1007E00000F0CCBD0024004024000020FEE7000003
:1007F00070B5002300781C46342817D00FDCA0F118
:100800002005142D24D2DFE805F0352323232356B9
:1008100023233B3D384E234B2351111111116428E2
:1008200032D009DCA0F13505042D11D8304B03EB93
:10083000400030F8603C1DE0B02839D004DC6D2861
:1008400025D06E2804D125E0B52826D0FF2835D044
:10085000274DA0F14106343D1A2E03D205EB40038B
:1008600033F8823CA0F161061A2E03D205EB40005A
:1008700030F8C23C012924D025E04AF2DD03F9E733
:100880002823F7E71123F5E74FF47343F2E74BF220
:100890001023EFE742F21023ECE746F28403E9E786
:1008A0004FF42043E6E74AF21403E3E7C023E1E70D
:1008B0004FF46C43DEE74FF43343DBE74FF6DD7371
:1008C000D8E743F00203012A01D143F0200309498C
:1008D0000C2000BF23FA00F202F00F0241F824209E
:1008E000001F641CE4B2C0B2042CF3D370BD00003E
:1008F00004410008600000207047012000F0B8BBF0
:10090000042000F0B5BB082000F0B2BB202000F0AE
:10091000AFBB00002DE9F047044690F850009AB0B4
:100920000D464FF00008012813D0012084F8500034
:10093000304E20684FF00009B0420ED12E4F009784
:10094000384601F055FF8246206801F051FF60B142
:100950000EE002201AB0BDE8F087616D41F0200181
:10096000616584F850900120F4E7BAF1000F09D0D6
:10097000606D40F0200060654FF0010884F85090F1
:100980004046E7E71D4829681D4A0029816840F66E
:100990001F7321F460411BD094F830C041EA4C3100
:1009A000D5F804C041EA0C018160B168BE6801F06D
:1009B000010106F001069268314302F00102114381
:1009C000DCD1AA682968114382689A4311430EE07A
:1009D0008160B168BD6801F0010105F00105926810
:1009E000294302F001021143C8D181689943816013
:1009F000C4E700000000045000010450000304504C
:100A0000000204502DE9F84F00270446009790F8A3
:100A10005000DFF8B8930D46B846012811D00126E2
:100A200084F85060206801F0DFFE60B1606D40F036
:100A3000200060655FF0010784F85080384600F0C0
:100A4000DDB90220FBE768680C23052812D80228CC
:100A500007D0032807D0042807D0052807D0062090
:100A600007E06B6006E0122003E0182001E04FF47D
:100A700080706860D5E90021206803EA911318446A
:100A8000036B01F01F014FF01F0C0CFA01FCC2F3C5
:100A9000846223EA0C038A4013430363206801F055
:100AA000A3FE8246206801F09BFE5AEA00001DD199
:100AB000AA682968206801F09FFE20686969C268F9
:100AC000C2F3C102520091402A69042A0FD000EB00
:100AD00082002B68026EDFF8F8C203F0F84302EAE6
:100AE0000C020B431A4342F00041016672E0002100
:100AF00001F070FE400320684FF0000172D001F059
:100B000069FE90FAA0F0B0FA80F1286842036ED036
:100B100090FAA0F0B0FA80F0814204D10022114690
:100B2000206801F078FE0121206801F053FE4003A7
:100B300020684FF001015DD001F04CFE90FAA0F06A
:100B4000B0FA80F12868420359D090FAA0F0B0FAC8
:100B500080F0814204D100220121206801F05BFE77
:100B60000221206801F036FE400320684FF00201A8
:100B700048D001F02FFE90FAA0F0B0FA80F128687A
:100B8000420344D090FAA0F0B0FA80F0814204D140
:100B900000220221206801F03EFE0321206801F0BE
:100BA00019FE400320684FF0030133D001F012FE1C
:100BB00090FAA0F0B0FA80F1286842032FD090FAA2
:100BC000A0F0B0FA80F0814204D100220321206815
:100BD00001F021FE2068816811F0010F22D0ACE005
:100BE00000E004E001F0F6FDC0F384618DE7C0F39E
:100BF000846091E701F0EEFDC0F38461A2E7C0F3E9
:100C00008460A6E701F0E6FDC0F38461B7E7C0F3B6
:100C10008460BBE701F0DEFDC0F38461CCE7C0F384
:100C20008460D0E72A7B296850F8B03FC1F3120CEA
:100C300023EA0C0302F0180C664A22FA0CF20A406E
:100C400013430360E968494577D1286841031CD004
:100C500090FAA0F1B1FA81F1491C01F01F010929B4
:100C60004FEA403132D8002912D000BF90FAA0F1EB
:100C7000B1FA81F101F1010101F01F0106FA01F65B
:100C800009D100BFC0F3846109E0C0F38461E3E7E8
:100C9000C0F38461EEE790FAA0F1B1FA81F101F1BD
:100CA000010101F01F0146EA816102D1C0F38460B5
:100CB00003E090FAA0F0B0FA80F000F1010000F03B
:100CC0001F0000EB400041EA005132E000290ED045
:100CD00090FAA0F1B1FA81F101F1010101F01F01D7
:100CE00006FA01F606D100BFC0F3846106E0C0F346
:100CF0008461F1E790FAA0F1B1FA81F101F101010B
:100D000001F01F0146EA816102D1C0F3846003E073
:100D100090FAA0F0B0FA80F000F1010000F01F009E
:100D20002D4A00EB400002EB005041EA000141F087
:100D30000071AA68206801F05FFD28482A68024215
:100D40003FF47AAE26488168264E274B274D01F0A6
:100D5000E071B2421CD10E021AD422689A4202D02B
:100D6000AA427FF469AE826841F4000122F0E07289
:100D70000A4382601E481F490068B0FBF1F000EB97
:100D80004000800000E0401E00900028FBD153E6A8
:100D9000194EB24209D1CE0107D422689A4201D03D
:100DA000AA42F4D141F080710AE06FF00045EA42B6
:100DB000EDD14A02EBD422689A42E8D141F4800195
:100DC000826822F0E0720A43826035E600007F40CC
:100DD00000F0FF03FFFF0700000020FE0000088076
:100DE00000030450000052C70000045000020450E9
:100DF00020000020400D0300000084CB18BCBDE89B
:100E0000E08F0000F8B54FF0000504002E46009575
:100E100002D0606D10B107E00120F8BD204600F05F
:100E2000D5F8A66584F8506020688168C1F34071E8
:100E300019B181685B4A1140816020688168C1F303
:100E4000007179B98168584A114041F08051816040
:100E5000564857490068B0FBF1F000E0401E009092
:100E60000028FBD120688168C1F3007141B9616D30
:100E700041F010016165A16D41F00101A1650125FD
:100E800001F0B2FC616DC90600D430B1606D40F074
:100E90001000606501252846F8BD606D20F4807063
:100EA00040F0020060652068806810F0010F15D1E5
:100EB00040488068404900F00100896801F0010164
:100EC00008433E49896801F00101084306D13C49C5
:100ED00060688A6822F47C1202438A60E168606B71
:100EE000627E0843A16841EA4231084394F8201029
:100EF00040EA0140012904D1A18C324A02EB414170
:100F00000843A16A29B101F47071E26A014342EA1F
:100F100001002268D1682C4B19400143D160206840
:100F200001F062FC0646206801F05AFC304315D1FE
:100F3000207E94F830102268800340EA4101D06896
:100F400044F2020398430843D06094F83800012823
:100F50000CD02068016921F001010161206901289C
:100F60002068016B21F00F0111D013E0D4E90F01CB
:100F70000843D4E911121143084321680A6940F279
:100F8000FC739A43104340F001000861E6E7E26910
:100F9000521E11430163606D20F0020040F0010019
:100FA000606578E7C0FFFF5FC0FFFF7F2000002083
:100FB000400D0300000004500001045000020450E2
:100FC000000304500000FEFF07C0F0FF10B586B01C
:100FD000044614216846FFF7FAF811492068884250
:100FE0001BD11048C16C41F40051C164C16C01F4C3
:100FF00000510591C16C41F00101C164C06C6946AA
:1010000000F001000590022000900B2001900020CC
:1010100002904FF0904000F037F806B010BD00008D
:10102000000004500010024070B5044600F060F962
:101030000546601C02D004480078044400F058F9CA
:10104000401BA042FAD370BD1400002007490128BC
:1010500008D0042805D0082806D0202801D1012076
:10106000487070470220FBE70020F9E700000020ED
:10107000044910B50A68024202D00860FFF7E6FF93
:1010800010BD0000140401402DE9F04FDFF8349248
:10109000002309F1040A012403250AF1040B87B097
:1010A0000F270BF1040E04E104FA03F632407CD062
:1010B000D1F804C0BCF1010F08D0BCF1020F05D07B
:1010C000BCF1110F02D0BCF1120F29D1D0F808C029
:1010D000CDF800C04FEA430C05FA0CF8CDF80CC06F
:1010E000DDF800C02CEA080CCDF800C0D1F80C8067
:1010F000DDF80CC008FA0CF8DDF800C048EA0C086E
:10110000C0F80880D0F8048091F804C028EA0608E6
:10111000CCF3001C0CFA03FC4CEA080CC0F804C029
:10112000D1F804806FEA080C5FEA8C7C09D1D0F812
:101130002CC02CEA060CC8F3C0069E4046EA0C06FA
:10114000C662D0F80CC04FEA430805FA08F62CEA4C
:10115000060CCDF8148002968E6806FA08F646EA68
:101160000C06C6604E68022E01D0122E15D1DE0884
:1011700000EB86060396366A4FEA437C4FEADC684A
:1011800007FA08FC26EA0C06D1F810C00CFA08FC95
:101190004CEA060C039EC6F820C00668DDF808C0BD
:1011A00026EA0C0691F804C000E081E0DDF8148026
:1011B0000CF0030C0CFA08FC4CEA060CC0F800C05A
:1011C0004E68F60074D5404ED6F860C04CF0010C65
:1011D000C6F860C0366E23F0030C06F001060096D8
:1011E0003A4E66440296D6F808C09E074FEA167833
:1011F00007FA08F62CEA060CB0F1904F04D0344EF2
:10120000B04203D101261BE0002619E0314EB04266
:1012100001D1022614E0304EB04201D103260FE086
:101220002E4EB04201D104260AE02D4EB04201D12B
:10123000052605E02B4EB04201D1062600E0072628
:1012400006FA08F646EA0C06DDF808C0CCF8086095
:10125000D9F80060CC46D1F8048096435FEAC838DC
:1012600000D51643CCF80060DAF80060D446D1F817
:10127000048096435FEA883800D51643CCF80060B6
:10128000DBF80060DC46D1F8048096435FEAC828AA
:1012900000D51643CCF80060DEF80060F446D1F8C3
:1012A000048096435FEA882800D51643CCF8006096
:1012B0005B1C0A6832FA03F67FF4F6AE07B000F062
:1012C00013B800000004014000100240000001407B
:1012D0000004004800080048000C004800100048C6
:1012E000001400480018004830BCBDE8C08F000062
:1012F000014880687047000014000020024881689F
:10130000027811448160704714000020094810B52C
:101310000168002441F480710160032000F09EF90F
:10132000002000F009F808B1012401E000F052F9B2
:10133000204610BD0020024070B50E4E0546002428
:10134000307898B14FF47A71B1FBF0F00A4909682E
:10135000B1FBF0F000F01EFF40B9102D06D20022C4
:101360002946501E00F05AF9756000E0012420461D
:1013700070BD000014000020200000202DE9F04185
:10138000044690F835000121012801D0022830D10F
:1013900094F8340001280CD0012084F8340002278E
:1013A00084F83570FFF7A4FF06464FF47A780025DD
:1013B0000CE00220BDE8F081FFF79AFF801B40455A
:1013C00004D9A76384F834500320F3E720688068C9
:1013D000C0434007F0D500205FF01401226801EB04
:1013E0008003D550401C0F28F8D9204600F085F81E
:1013F00001460846DEE700002DE9F041040004D074
:1014000094F83500002518B107E00120BDE8F0810F
:1014100084F83450204600F06FF8022084F835003C
:101420002068016821F00101016000205FF01401D3
:10143000226801EB8003D550401C0F28F8D92068A2
:10144000816841F004018160D4E901010843D4E9D5
:101450000A1211430843E1690843216A0843A1695C
:101460000843616A084321684A68224B1A401043C6
:101470004860204601F096F90600C7D1D4E903017F
:101480000843226B61691143084321680A6822F00E
:10149000FE02104308602068016841F0010101600C
:1014A000FFF726FF07464FF47A7806E0FFF720FFA4
:1014B000C01B404501D908200EE020688068C04369
:1014C000C007F3D1FFF714FF074608E0FFF710FF4E
:1014D000C01B404503D91020A063032096E7206875
:1014E0008068C043C006F1D4A563012084F83500AC
:1014F00030468BE70E0000FC70472DE9F0410446B2
:1015000008202168C8602068816841F0040181607A
:10151000FFF7EEFE054600264FF47A770BE0FFF763
:10152000E7FE401BB84206D90420A06384F834606B
:101530000320BDE8F08120688068C0430007EED436
:10154000012084F8350084F834600020F1E70000C1
:101550002DE9F047044690F835009A4690468946B2
:10156000012804D0022802D00120BDE8F08794F8B9
:101570003500012822D194F8340001280BD0012035
:1015800084F83400022684F83560FFF7B1FE054682
:101590004FF47A770DE00220E7E700BFFFF7A8FEDF
:1015A000401BB84205D9A663002084F8340003200C
:1015B000DBE720688068C0434007EFD5142122682C
:1015C00001EB8900115801EA080141EA0A011150B2
:1015D0000020CAE7094808B5016E41F00101016623
:1015E000016E01F001010091816D41F08051816532
:1015F000806D00F08050009008BD00000010024097
:10160000002809DB00F01F02012191404009800001
:1016100000F1E020C0F8001170470000F0B40E4B5C
:101620001B680C46C3F30223C3F10705042D00D940
:101630000425191D072901D2002300E0DB1E012625
:1016400006FA05F1491E214099409E40761E16403B
:101650003143F0BC01F0D6BF0CED00E0064900F0CC
:10166000070208684FF6FF03184040EA0220034AC9
:1016700010430860704700000CED00E00000FA0520
:101680001649B0F5007F0868C0F3412009D0022850
:1016900005D0086820F4C06040F480600860002035
:1016A00070470128FBD0086820F4C06040F4007047
:1016B00008600B483222006850430A4AB0FBF2F03F
:1016C000401C00E0401E4A69520501D50028F9D1AE
:1016D00048694005E3D503207047000000700040D2
:1016E0002000002040420F000248006800F4C06063
:1016F00070470000007000402DE9F84F04460027B5
:101700000088E54D3E46010504F1200B1DD5606EB5
:1017100078B1B0F5800F11D0B0F5000F04D0B0F55E
:10172000400F22D001270FE0E86840F48030E860E5
:101730001BE00021201D01F03DF903E00021584687
:1017400001F0CEF9070010D03E462088C00426D50F
:10175000A06EC0B1B0F1807F1AD0B0F1007F0DD083
:10176000B0F1407F19D0012718E0D5F88800616EEC
:1017700020F440000843C5F88800E6E7E86840F434
:101780008030E86009E00021201D01F013F903E03A
:101790000021584601F0A4F90746F7B13E462068FB
:1017A00080033AD5A86D4FF00008C00009D4A86D99
:1017B00040F08050A865A86D4FF0010800F08050FF
:1017C0000090DFF8D8A2DAF8001041F48071CAF86E
:1017D0000010FFF78DFD814610E0D5F88800A16E5E
:1017E00020F040700843C5F88800D8E7FFF780FD77
:1017F000A0EB0900022801D9032705E0DAF8000070
:10180000C005F3D5002F7CD04FEA0706B8F1000FD2
:1018100003D0A86D20F08050A8652078C00707D0BD
:10182000D5F88800A16B20F003000843C5F88800B4
:101830002078800707D5D5F88800E16B20F00C00F0
:101840000843C5F888002078400707D5D5F88800F8
:10185000216C20F030000843C5F88800207800078C
:1018600007D5D5F88800616C20F0C0000843C5F8A2
:1018700088002078C00607D5D5F88800A16C20F430
:1018800040700843C5F888002078800607D5D5F851
:101890008800E16C20F440600843C5F88800208887
:1018A000800507D5D5F88800E16D20F44020084375
:1018B000C5F888002088400507D5D5F88800216E36
:1018C00020F440100843C5F888002078400607D56A
:1018D000D5F88800216D20F440500843C5F88800F1
:1018E0002078000607D5D5F88800616D20F44040C7
:1018F0000843C5F888002088C00509D5D5F88800B8
:1019000000E01CE0A16D20F440300843C5F88800D9
:1019100020884FF0006780044FF080684FD5D5F8DD
:101920008800E16E20F040600843C5F88800E06E52
:10193000B8423CD1E86840F48010E8603FE0D5F858
:10194000900010F4407015D0D4F88410814211D06A
:10195000D5F89000D5F8901020F4407041F4803113
:10196000C5F89010D5F8901021F48031C5F890108A
:10197000C5F89000C00710D0FFF7BAFC074641F247
:10198000883906E0FFF7B4FCC11B494501D903269D
:101990003CE7D5F890008007F4D5D5F89000D4F84E
:1019A000841020F440700843C5F890002EE74045AD
:1019B00005D10121201D00F0FDFF00B10646206881
:1019C000000317D5D5F88800216F20F04060084348
:1019D000C5F88800206FB84204D1E86840F4801050
:1019E000E86007E0404505D10121201D00F0E2FF3D
:1019F00000B106462068400317D5D5F88800616F0E
:101A000020F040600843C5F88800606FB84204D1F8
:101A1000E86840F48010E86007E0404505D1012106
:101A2000201D00F0C7FF00B10646208840041AD5EB
:101A3000D5F88800A16F20F040500843C5F8880011
:101A4000A06FB0F1805F03D0B0F1005F05D00AE075
:101A50000221201D00F0AEFF03E00221584601F0F4
:101A60003FF800B106462088000407D5D5F8880065
:101A7000E16F20F080400843C5F888002068C0036B
:101A800007D555F8880FD4F8801020F0004008439F
:101A90002860304600F004B800100240007000409A
:101AA00018BCBDE8E08F00002DE9F0470F460500A7
:101AB00058D0404E306800F00700B84209D2306874
:101AC00020F0070038433060306800F00700B8426B
:101AD00048D12878384CC0072CD06868032811D02A
:101AE000022812D0216898B1490500293ADAA16884
:101AF00021F003010143A160FFF7FAFB804641F2A8
:101B0000883910E021688901EFE721688903ECE753
:101B10008907EAE7FFF7ECFBA0EB0801494502D98A
:101B20000320BDE8F087A068696800F00C00B0EB06
:101B3000810FEFD12878800705D5A068A96820F02B
:101B4000F0000843A060306800F00700B8420BD9ED
:101B5000306820F0070038433060306800F007003C
:101B6000B84201D00120DCE72878400705D5A068FD
:101B7000E96820F4E0600843A0602878000706D5F3
:101B8000A068296920F4605040EAC100A06000F01C
:101B90001BF8A168094AC1F30311515C01F01F0150
:101BA000C8400749086007480068BDE8F047FFF7EC
:101BB000C3BB000000200240001002401841000892
:101BC000200000201800002070B525490023184689
:101BD0008A68CC6812F00C0204F00306214C4FEA2C
:101BE000640509D00C2A05D0042A32D0082A00D175
:101BF000284670BD012E10D10B681B0704D4D1F804
:101C00009430C3F3032302E00B68C3F30313164EAF
:101C100056F82330DAB10C2AEBD1C86800F0030083
:101C2000022818D0032818D01846CA68CB68C2F317
:101C30000212C3F306234343521CB3FBF2F2C868FB
:101C4000C0F34160401C4000B2FBF0F070BD18468C
:101C500070BD204670BD2046E7E72846E5E7000056
:101C6000001002400024F400284100082DE9F84348
:101C700004006FD0FE4DA86800F00C06E86800F084
:101C800003072078C00664D576B10C2E01D1012F50
:101C90000AD0A069002828687AD040F001002860A6
:101CA000FFF726FB80465DE02868800702D5A06923
:101CB0000028DED0216A2868000703D5286800F0D4
:101CC000F00004E0D5F89400F02202EA10108142FE
:101CD00016D9084600F088FF00283BD1286840F05C
:101CE000080028602868216A20F0F0000843286076
:101CF0006868E16920F47F4040EA0120686016E0EE
:101D0000286840F0080028602868216A20F0F00068
:101D1000084328606868E16920F47F4040EA0120B8
:101D2000686026B9206A00F05FFF0028D5D1FFF770
:101D30004BFFA968CF4AC1F30311515C01F01F01A9
:101D4000C840CD490860CD480068FFF7F5FA002883
:101D50007ED12EE0CAE000BFFFF7CAFAA0EB080070
:101D6000022876D828688007F6D5286840F0080051
:101D700028602868216A20F0F0000843286068681D
:101D8000E16920F47F4040EA0120686011E0FFE74C
:101D900020F001002860FFF7ABFA804606E000BFA4
:101DA000FFF7A6FAA0EB08000228DAD82868800717
:101DB000F6D42078C00740D0082E18D00C2E01D1C0
:101DC000032F14D06068B0F5803F17D0B0F5A02F76
:101DD000286817D020F480302860286820F48020FC
:101DE00028606068E0B1FFF783FA804614E0286855
:101DF000800322D56068002878D01EE0286840F46F
:101E00008030EDE740F480202860F7E7FFF770FAB4
:101E1000A0EB08006428A4D828688003F6D50CE05D
:101E2000FFF766FA804605E0FFF762FAA0EB0800CC
:101E3000642896D828688003F6D4207880073BD59C
:101E4000042E11D00C2E01D1022F0DD0E06801E03C
:101E500092E1F1E0002828681ED040F480702860EC
:101E6000FFF746FA07460CE0286840050CD5E06805
:101E70000028C1D008E000BFFFF73AFAC01B0228D3
:101E800093D828684005F7D56868217C20F0F85081
:101E900040EA016068600FE020F480702860FFF77E
:101EA00027FA074605E000BFFFF722FAC01B022809
:101EB000B1D828684005F7D42078000729D5606993
:101EC0000028D5F8940012D040F00100C5F8940025
:101ED000FFF70EFA074604E0FFF70AFAC01B0228D4
:101EE00099D8D5F894008007F6D512E000E120F0EB
:101EF0000100C5F89400FFF7FBF9074605E000BFB5
:101F0000FFF7F6F9C01B022885D8D5F894008007A2
:101F1000F6D42078400766D5A86D0027C00008D405
:101F2000A86D40F08050A865A86D012700F0805092
:101F3000009053480168C90512D40168814641F4F4
:101F400080710160FFF7D4F9804605E0FFF7D0F912
:101F5000A0EB080002286FD8D9F80000C005F5D51D
:101F6000A068012816D00528D5F8900017D020F0D9
:101F70000100C5F89000D5F8900020F0040000BFE3
:101F8000C5F89000A06841F28839C0B1FFF7B0F9F8
:101F900080460FE0D5F8900040F00100F0E740F0F7
:101FA0000400C5F89000F5E7FFF7A2F9A0EB0801DF
:101FB000494541D8D5F890008007F5D50EE0FFF7E8
:101FC00097F9804606E000BFFFF792F9A0EB080101
:101FD000494531D8D5F890008007F5D41FB1A86DD8
:101FE00020F08050A865A06A38B302280AD00C2ED1
:101FF0007ED0286820F080702860286810F0205F6C
:1020000077D0AAE0E868E26A00F0030191422BD1A0
:10201000216B00F0700209011039914224D1626BEA
:1020200000F4FE41B1EB022F1ED1A26B00F400318F
:10203000072A03D0012202E09DE089E000229142BC
:1020400012D1A18F00F4C00249084905A1F5001181
:10205000914209D194F8401000F0C0604908490647
:10206000A1F1007181425CD00C2E41D0286809E0BA
:102070000010024018410008200000201800002035
:102080000070004040017ED42868C0007BD42868DE
:1020900020F080702860FFF72BF9064605E000BFAE
:1020A000FFF726F9801B022865D828688001F7D43D
:1020B000D4E90B016FF00F0202EB01110843A18F6D
:1020C0005204490802EB4151626B41EA0221084384
:1020D00094F840104FF07E42490802EB41610843FA
:1020E000A16B090940EA4140E968284A114001E032
:1020F00049E02EE00843E860286840F080702860DE
:10210000E86840F08070E860FFF7F2F8044604E009
:10211000FFF7EEF8001B02282DD828688001F7D5BC
:102120002FE0286880012CD4286840F08070286057
:10213000E86840F08070E860FFF7DAF8044604E0F1
:10214000FFF7D6F8001B022815D828688001F7D5BC
:1021500017E0E86820F00300E860E8680C490840F0
:10216000E860FFF7C5F8044608E000BFFFF7C0F8D5
:10217000001B022802D90320BDE8F88328688001EB
:10218000F4D40020F8E70120F6E700008C809DF9E8
:10219000FFFFEEFE10B5401EB0F1807F01D301209D
:1021A00010BD4FF0E02460610F21601701F02AFAA2
:1021B0000020A06107202061002010BDF0B590F83C
:1021C0003C20012A39D0012480F83C40022280F8CA
:1021D0003D20026853689568194E1A4FB24201D0EB
:1021E000BA4204D123F4700C4B6843EA0C0323F089
:1021F000700C0B6843EA0C0353600268B24210D0C3
:10220000B2F1804F0DD0104B9A420AD00F4B9A4238
:1022100007D00F4B9A4204D0BA4202D00D4B9A42DB
:1022200004D1896825F080031943916080F83D400E
:10223000002180F83C100846F0BD0220F0BD0000EF
:10224000002C014000340140000400400008004020
:10225000000C00400040014010B5040003D094F889
:102260003D0010B107E0012010BD002084F83C00C3
:10227000204600F023F8022084F83D00211D20684C
:1022800000F050FD012084F8480084F83E0084F8F6
:102290003F0084F8400084F8410084F8420084F84C
:1022A000430084F8440084F8450084F8460084F82C
:1022B000470084F83D00002010BD000008B500680C
:1022C0000649884208D10648816D41F004018165C4
:1022D000806D00F00400009008BD00000008004080
:1022E0000010024070B5044690F83C00012817D059
:1022F000012584F83C50022084F83D002268906853
:102300002E4B184020F47F4090600868502830D051
:102310000DDC20284DD005DC98B310283BD148E0D7
:10232000022070BD302844D0402834D139E06028E4
:1023300028D0702806D0B0F5805F2CD0B0F5005FB3
:1023400029D10AE0CB68D1E90121206800F057FDCE
:102350002068816841F0770109E0CB68D1E901216B
:10236000206800F04CFD2068816841F48041816064
:1023700011E0CA684968206800F0DCFE502120683E
:1023800007E016E0CA684968206800F0E4FE6021B2
:10239000206800F03EFD84F83D50002084F83C00A9
:1023A00070BDCA684968206800F0C4FE40212068FA
:1023B000EFE7226801461046EBE7000088FFFEFFCA
:1023C00010B586B0044614216846FDF700FF0D499C
:1023D0002068884214D10C48C16C41F00201C164EC
:1023E000C06C002100F00200059040200090022007
:1023F000CDE90101CDE9031069460448FEF744FE2A
:1024000006B010BD00080040001002400004004863
:1024100070B5044690F83C000D4601280BD0012011
:1024200084F83C000C2A45D007DC5AB1042A1BD0A2
:10243000082A78D12CE0022070BD102A4ED0142A30
:1024400071D15DE0206800F0EDFC2068816941F009
:10245000080181612068816921F00401816120689F
:1024600081692A69114311E0206800F029FD206884
:10247000816941F4006181612068816921F4806192
:102480008161206881692A6941EA022181614AE00B
:10249000206800F05DFD2068C16941F00801C1615C
:1024A0002068C16921F00401C1612068C1692A69FD
:1024B000114311E0206800F093FD2068C16941F4E8
:1024C0000061C1612068C16921F48061C161206837
:1024D000C1692A6941EA0221C16124E0206800F053
:1024E000B9FD2068416D41F0080141652068416DEA
:1024F00021F0040141652068416D2A69114311E012
:10250000206800F0DFFD2068416D41F40061416505
:102510002068416D21F4806141652068416D2A6920
:1025200041EA02214165002084F83C0070BD10B5ED
:10253000040003D094F83D0010B107E0012010BD65
:10254000002084F83C00204600F022F8022084F8A5
:102550003D00211D206800F0E5FB012084F84800C3
:1025600084F83E0084F83F0084F8400084F841007D
:1025700084F8420084F8430084F8440084F845005D
:1025800084F8460084F8470084F83D00002010BD20
:102590007047000030B50446022269B1042912D008
:1025A000082917D00C291CD0102921D094F84300F9
:1025B000012824D0012030BD94F83E000128F9D133
:1025C00084F83E201DE094F83F000128F2D184F801
:1025D0003F2016E094F840000128EBD184F8402019
:1025E0000FE094F841000128E4D184F8412008E08C
:1025F00094F842000128DDD184F8422001E084F8FB
:1026000043200122206800F0EDFB1A4A20681A4B93
:102610001A49904209D0984207D0884205D0184DF7
:10262000A84202D0174DA84203D1456C45F400459D
:102630004564206890420FD0B0F1804F0CD0124A10
:10264000904209D0114A904206D0114A904203D0DC
:10265000984201D0884207D181680E4A114006296C
:1026600006D0B1F5803F03D0016841F0010101605F
:10267000002030BD002C01400034014000400140EA
:1026800000440140004801400004004000080040B0
:10269000000C004007000100FEE7000030B5B9B0B3
:1026A000142122A8FDF793FD442127A8FDF78FFDF3
:1026B00088216846FDF78BFD364CA06D40F08050B8
:1026C000A065A06D002500F0805038900420319561
:1026D00027900120299027A8FFF7C8FA00B1FEE74C
:1026E0004FF400300090401221906846FFF704F844
:1026F000E06C40F00100E064E06C00F00100389014
:10270000E06C40F00200E064E06C00F00200389001
:10271000E06C40F00400E064E06C00F004003890ED
:10272000E06C40F00800E064E06C22A900F00800D2
:10273000389048F2C07022900220CDE92305032092
:1027400025900B2026904FF09040FEF79DFC4FF215
:102750003320229022A91048FEF796FC4FF4FC701B
:10276000229022A90D48FEF78FFC4FF47F40229063
:1027700022A90B48FEF788FC0220FEF755FCA06D4D
:1027800040F40070A065A06D00F40070389039B07E
:1027900030BD00000010024000040048000800485E
:1027A000000C004870B50446FEF7A2FD05464FF444
:1027B0007A7608E0FEF79CFD401BB04203D9012069
:1027C000A063032070BD20688068C0438006F1D4F8
:1027D000002070BD00EB8100006E00F0F8407047F3
:1027E0008068C0F3C00070478068C0F38000704705
:1027F0008068C0F380007047042303EAD15310B50A
:1028000018444369C1F3045107248C40A3438A4010
:102810001343436110BD00EB8100016E21F00041C4
:10282000114301667047000030B589B0002406945A
:102830000794182168460894FDF7C9FC1648154905
:102840000425C0E900148460C460C0E9044504762E
:1028500044760121C16180F820408462C46280F81E
:102860003040446380F83840FEF7CCFA06A90A48A5
:102870000694FEF74FF8094800900620CDE90104C0
:102880007F200594CDE9030569460348FEF7BAF8B1
:1028900009B030BD00000450700000204000201935
:1028A00000B587B014216846FDF791FC1E48C16C45
:1028B00041F00101C164C16C01F001010591C16CDD
:1028C00041F00201C164C06C694600F0020005904D
:1028D0002D20009015480190022002904FF090406A
:1028E000FEF7D2FB002211460620FEF797FE0620D7
:1028F000FEF786FE002211460820FEF78FFE082014
:10290000FEF77EFE002211460920FEF787FE092011
:10291000FEF776FE002211461720FEF77FFE1720F5
:10292000FEF76EFE07B000BD00100240000011105F
:1029300030B58FB000240794089409940A940B943E
:102940000C941C2168460D94FDF741FC164815496E
:10295000642502C0042132C040F810498461124845
:10296000FFF77AFC4FF48050079007A90E48FFF755
:10297000B9FC0D48FFF7DBFD0B940BA90A480D9439
:10298000FFF71CFC60200090CDE90154002269464D
:1029900005480494FFF73CFD0348FFF711FD0FB015
:1029A00030BD000000080040D4000020FEE7704762
:1029B000704700002DE9F041444C05468846E06828
:1029C0000026810728680DD0E16801F003018142EB
:1029D00016D1A8B1E0686968C0F30210401C8842B3
:1029E0000ED120E0012804D0022805D0032807D109
:1029F00008E02168890701E021684905002907DB13
:102A000001265FE02168890302D421684903F5E7C4
:102A1000E1686A686FF00F0321F0730103EB0212A3
:102A200011430143E160206820F080602060FEF7E0
:102A30005FFC074605E000BFFEF75AFCC01B0228FA
:102A400037D820680001F7D4B8F1000F18D0B8F1DA
:102A5000010F1ED0287D4FF07E41400801EB406001
:102A6000A96840EA01202169194A11400843206100
:102A7000206840F080602060FEF73AFC07461AE0CC
:102A8000A868E9680002090940EA41402169114A41
:102A9000EBE7288A1049400801EB4050A96840EA5A
:102AA000012021690D4AE0E7FEF722FCC01B022845
:102AB00001D9032606E020680001F5D52069A9693F
:102AC000084320613046BDE8F0810000001002405C
:102AD000FF80FFF9FF80FDFF0000E0FFFF809FFF08
:102AE0002DE9F0413D4C06468846E0680025810707
:102AF00030680DD0E16801F00301814216D1A8B120
:102B0000E0687168C0F30210401C88420ED120E0DA
:102B1000012804D0022805D0032807D108E0216845
:102B2000890701E021684905002907DB012551E0FB
:102B30002168890302D421684903F5E7E1687268D6
:102B40006FF00F0321F0730103EB021211430143F5
:102B5000E160206820F080502060FEF7C9FB074646
:102B600005E000BFFEF7C4FBC01B022829D820687F
:102B70008000F7D4B8F1000F15D0307C4FF07E41C3
:102B8000400801EB4060B16840EA01206169144AE5
:102B9000114008436061206840F080502060FEF7DB
:102BA000A7FB07460FE0B068F1680002090940EA98
:102BB000414061690B4AEBE7FEF79AFBC01B022814
:102BC00001D9032506E020688000F5D560697169A8
:102BD000084360612846BDE8F08100000010024013
:102BE000FF80FFF9FF80FDFFF8B51C4D064600246D
:102BF000A86DC00002D5FEF777FD0DE0A86D40F08E
:102C00008050A865A86D00F080500090FEF76CFD24
:102C1000A96D21F08051A965B0F5007F04D0802E08
:102C200007D94FF003040AE0802E08D9A02E01D85E
:102C300004E001D1022402E0702E00D101240848F2
:102C4000016821F0070121430160006800F00700DE
:102C5000A04201D00120F8BD0020F8BD00100240C4
:102C6000002002407047FEF749BB70B5B8B0442160
:102C700022A8FDF7ACFA142133A8FDF7A8FA8821A1
:102C80006846FDF7A4FA102601250024602022964C
:102C90002895CDE9294022A82C94FEF7E7FF0F20C4
:102CA000CDE9330435943694002133A83794FEF7E8
:102CB000FBFEA803009080031E900195029507205B
:102CC000CDE90360022005900690C0050790684694
:102CD000FEF712FD6802FEF7D3FC38B070BD0000AD
:102CE0000D48016841F4700101600C48016841F031
:102CF00001010160002181600268094B1A400260F5
:102D00008214C260026822F480220260816102495A
:102D1000C00380390860704788ED00E00010024071
:102D2000FFFFF6EA2DE9F0470268264B264D274EB5
:102D3000274F284C4FF0804A984209D0504507D081
:102D4000A84205D0B04203D0B84201D0A04204D17D
:102D500022F0700C4A6842EA0C02DFF87CC0DFF80F
:102D60007C80DFF87C9098420FD050450DD0A8426F
:102D70000BD0B04209D0B84207D0A04205D0604580
:102D800003D0404501D0484503D122F44075CA68BC
:102D90002A434D6922F080022A4302608A68C26297
:102DA0000A688262984207D0A04205D0604503D0ED
:102DB000404501D0484501D10969016301214161C4
:102DC000BDE8F087002C01400004004000080040EE
:102DD000000C00400034014000400140004401402C
:102DE0000048014010B501F01F030121046A994019
:102DF0008C430462016A9A401143016210BD10B510
:102E0000846842EA032224F47F440A432243826016
:102E100010BD826822F070020A4342F0070181600F
:102E2000704700002DE9F043026A22F001020262BD
:102E3000056A436882691C4C25F0020522400C6833
:102E400022F0030214438A68194E2A43174D194F82
:102E5000DFF864C0DFF86490A84207D0B04205D024
:102E6000B84203D0604501D0484506D122F0080899
:102E7000CA6842EA080222F00402A84207D0B0421F
:102E800005D0B84203D0604501D0484505D14D6911
:102E900023F440731D438B692B434360846149686D
:102EA00041630262BDE8F0838FFFFEFF002C01400A
:102EB000003401400040014000440140004801400E
:102EC000F0B5026A22F010020262056A4268836964
:102ED000194C1B4E23400C6823F4407343EA04242E
:102EE00025F020038D6843EA0513144DA84201D054
:102EF000B04206D1CF6823F0800343EA071323F0E2
:102F00004003A8420AD0B04208D00E4DA84205D0D6
:102F10000D4DA84202D00D4DA84207D14D6922F4B3
:102F2000406242EA85028D6942EA8502426084611C
:102F3000496881630362F0BDFF8FFFFE002C0140F2
:102F4000003401400040014000440140004801407D
:102F5000F0B5026A22F480720262056A4368C269AF
:102F6000194C1B4E22400C6822F00302144325F436
:102F700000728D6842EA0522144DA84201D0B04289
:102F800006D1CF6822F4006242EA072222F480626E
:102F9000A8420AD0B04208D00E4DA84205D00E4D2E
:102FA000A84202D00D4DA84207D14D6923F44053E9
:102FB00043EA05138D6943EA05134360C461496818
:102FC000C1630262F0BD00008FFFFEFF002C0140D4
:102FD00000340140004001400044014000480140ED
:102FE00030B5026A22F480520262046A4268C36900
:102FF000124D24F400542B400D6823F4407343EA2F
:1030000005238D6844EA05340D4DA8420BD00D4DC3
:10301000A84208D00C4DA84205D00C4DA84202D0C1
:103020000B4DA84204D14D6922F4804242EA851238
:103030004260C36149680164046230BDFF8FFFFED6
:10304000002C014000340140004001400044014098
:103050000048014030B5026A22F480320262046AFC
:103060004268436D114D2B400D681D4324F400331D
:103070000C8943EA04430E4CA0420BD00D4CA042F5
:1030800008D00D4CA04205D00C4CA04202D00C4CF4
:10309000A04204D14C6922F4803242EA0422426008
:1030A000456549688165036230BD00008FFFFEFF02
:1030B000002C014000340140004001400044014028
:1030C0000048014030B5026A22F480120262046AAC
:1030D0004268436D114D24F400142B400D6843EAFF
:1030E00005230D8944EA05540D4DA8420BD00D4D22
:1030F000A84208D00C4DA84205D00C4DA84202D0E1
:103100000B4DA84204D14D6922F4802242EA852267
:10311000426043654968C165046230BDFF8FFFFEB0
:10312000002C0140003401400040014000440140B7
:103130000048014010B5036A046A24F001040462E7
:10314000846924F0F00444EA021423F00A020A43DA
:103150008461026210BD10B5036A23F0100303629C
:103160008369046A23F4704343EA023224F0A00323
:1031700043EA01118261016210BDFEE72DE9F041D1
:103180001D46FDF735FBFE4C062D7DD2DFE805F030
:10319000034FA3F6F4F32078FA4DC107C90E00F0EF
:1031A000020241EA825100F0040241EA025300F0B7
:1031B00008000343F2482A4600213C38FEF7C8F9CC
:1031C0002079C107C90E00F0020241EA825100F0E5
:1031D000040241EA025300F008000343E8482A468B
:1031E00002213C38FEF7B4F9207AC107C90E00F07D
:1031F000020241EA825100F0040241EA025300F067
:1032000008000343DE482A4604213C38FEF7A0F9B3
:10321000207BC107C90E00F0020241EA825100F092
:10322000040241EA025300F00800034350E0207812
:10323000D54DC107490E00F0020241EA023100F00B
:10324000040241EA822100F0080041EA8003CC48F0
:103250002A4600213C38FEF77BF92079C107490E48
:1032600000F0020241EA023100F0040241EA822148
:1032700000F0080041EA8003C1482A4602213C3898
:10328000FEF766F9207A00E0A3E1C107490E00F0DD
:10329000020241EA023100F0040241EA822100F018
:1032A000080041EA8003B6482A4604213C38FEF76C
:1032B0004FF9207BC107490E00F0020241EA0231BA
:1032C00000F0040241EA822100F0080041EA800394
:1032D0002A4606211DE12078AC4DC107090C00F0FB
:1032E000020241EA027100F0040241EA826100F048
:1032F000080041EAC023A2482A4600213C38FEF7D4
:1033000027F92079C107090C00F0020241EA027195
:1033100000F0040241EA826100F0080041EAC023A3
:1033200097482A4602213C38FEF712F9207AC10755
:10333000090C00F0020241EA027100F0040241EAC5
:10334000826100F0080041EAC0238D482A4604212A
:103350003C38FEF7FDF8207BC107090C00F00202A3
:1033600041EA027100F0040241EA826100F00800C3
:1033700041EAC023ACE7D2E05FE0FFE720786FF0DE
:103380004045C10700F0080041EAC0637C482A4676
:1033900000213C38FEF7DCF82078AE0000F0020394
:1033A000C0F3800003437648324601213C38FEF7E3
:1033B000CFF820792A46C10700F0080041EAC0632F
:1033C0006F4802213C38FEF7C3F82079324600F0FE
:1033D0000203C0F380000343694803213C38FEF731
:1033E000B7F8207A2A46C10700F0080041EAC06316
:1033F000634804213C38FEF7ABF8207A324600F0EF
:103400000203C0F3800003435D4805213C38FEF70A
:103410009FF8207B2A46C10700F0080041EAC063FC
:10342000574806213C38FEF793F8207B324600F0DF
:103430000203C0F3800003436AE020786FF0407617
:1034400000F00201090600F0040041EA80534C48F4
:10345000324600213C38FEF77BF82068042505EA57
:10346000500100F0010041EAC0034548B7153A4653
:1034700001213C38FEF76CF82079324600F0020159
:10348000090600F0040041EA80533D4802213C381F
:10349000FEF75EF860683A4605EA500100F0010068
:1034A00041EAC003364803213C38FEF751F8207A40
:1034B000324600F00201090600F0040041EA8053A0
:1034C0002F4804213C38FEF743F8A0683A4605EA45
:1034D000500100F0010041EAC003294805213C38B1
:1034E000FEF736F8207B324600F00201090600F0B4
:1034F000040041EA8053224806213C38FEF728F8B0
:10350000E0683A4605EA500100F0010041EAC003D4
:103510000721BDE8F0411A483C38FEF719B8207879
:103520001B4DC107890B00F0020241EAC21100F0F5
:10353000040241EAC21100F0080041EAC0531048F9
:103540002A4600213C38FEF703F82079C107890B91
:1035500000F0020241EAC21100F0040241EAC21185
:1035600000F0080041EAC05305482A4602213C38D1
:10357000FDF7EEFF207AC107890B00F0020209E097
:1035800060000020E7FF3FFF9FCFFFFFFF3FFFCF1F
:10359000FFFCFDFB41EAC21100F0040241EAC21146
:1035A00000F0080041EAC0532A4604210A48FDF70A
:1035B000CFFF207BC107890B00F0020241EAC21154
:1035C00000F0040241EAC21100F0080041EAC053D1
:1035D0007EE6BDE8F0810000240000200FB4084B17
:1035E00010B504A902AA039800F0F2F8044602A953
:1035F000002000F087FC204610BC5DF814FB0000A2
:10360000053F00080907090E002804DB00F1E0204F
:1036100080F80014704700F00F0000F1E02080F8FF
:10362000141D704702E008C8121F08C1002AFAD111
:1036300070477047002001E001C1121F002AFBD132
:10364000704700002DE9FF5F82B00021DDE9043002
:10365000020DDDF840B0034318D044F61050A2F23A
:10366000FF3242431514119801281FD0A5EB0B001F
:10367000401C5FEA000A4FF000064E4FDFF8389119
:10368000B046504615D5CAF1000413E01198012444
:103690004AA3012801D16FEA0B010298119AC0E9EF
:1036A0000031C0E9024206B000F08EB8CBF1000054
:1036B000DFE704460021404A491842EB0450CDE9B7
:1036C000001012E0E00707D032463B46404649462C
:1036D000FCF794FE8046894632463B461046194622
:1036E000FCF78CFE06460F466410002CEAD1DDE99B
:1036F0000401DDE90023BAF1000F06DAFCF77EFED3
:1037000042464B46FCF77AFE05E0FCF7ECFE4246EB
:103710004B46FCF7E8FE04460E460022284BFCF719
:1037200069FF03D84FF0FF30014607E00022254B28
:1037300020463146FCF7B3FDFCF744FF102409E0B6
:10374000002C0ADB0A220023FCF775FD039B3032B4
:103750001A55641E50EA0102F2D1641C039AC4F1A6
:1037600011031444119A012A03D0012208430DD1F8
:103770000AE0084304D000204FF0110B119072E7CB
:10378000A3EB0B056D1E0DE05B4504DD4FF0000261
:1037900005F1010504E003DA4FF00002A5F101058F
:1037A000002AECD002981199C0E90231C0E9004525
:1037B00079E70000000014400000F03F30000000F6
:1037C0000000F0430000E03F30BCBDE8C09F0000B7
:1037D0002DE9FF4F95B09B468946064600250FE22E
:1037E000252877D100242746F84A0121059400E0D6
:1037F000044316F8013F203B01FA03F01042F7D1D1
:1038000030782A2811D06FF02F033078A0F13002E1
:10381000092A16D8059A44F0020402EB820203EB4F
:1038200042021044761C0590EFE759F8042B0592EC
:10383000002A03DA504244F40054059044F0020494
:10384000761C30782E2816D116F8010F44F00404A7
:103850002A280DD06FF02F023078A0F13003092B09
:1038600009D807EB870302EB4303C718761CF3E77D
:1038700059F8047B761C30786C280FD006DC4C2875
:1038800017D068280DD06A2814D104E0742810D00D
:103890007A280FD10DE044F400140AE044F48014B7
:1038A00001E044F440147278824202D104F580149D
:1038B000761C761C307866280BD013DC582877D01D
:1038C00009DC002875D04528F6D04628F4D04728D2
:1038D0001AD19DE118E0632835D0642879D0652895
:1038E00012D195E1702873D008DC6728F1D06928DF
:1038F0006FD06E280DD06F2806D1B5E073282CD07C
:10390000752875D0782874D05A46179990476D1C41
:1039100075E1C4F30250022809D003280DD0D9F86C
:10392000001004280DD00D6009F1040967E1D9F8F1
:103930000010EA17C1E90052F6E7D9F800100D802F
:10394000F2E70D70F0E719F8041B8DF80010002065
:103950008DF80100EA46012003E059F804AB4FF06E
:10396000FF3061074FF0000102D40DE008F10101C2
:103970008846B9420FDA8045F8DB1AF808100029AA
:10398000F4D108E008F1010188468142FADB1AF817
:1039900008100029F6D105985B46A0EB08072146E0
:1039A0003846179A00F097FA284400EB080507E01C
:1039B0004DE029E10DE01AF8010B5A46179990479E
:1039C000B8F10108F7D25B4621463846179A13E151
:1039D00042E00A220092C4F302524FF0000A022A87
:1039E00008D059F804CB032A4FEAEC710AD00DE055
:1039F00029E02AE009F1070121F00702F2E802C1FB
:103A0000914609E00FFA8CFC4FEAEC71042A03D1CD
:103A10004FFA8CFC4FEAEC71002907DA0A460021C4
:103A2000DCF1000C61EB02012D2202E0220504D53D
:103A30002B228DF80420012203E0E20701D020228E
:103A4000F7E7904659E00A2102E010220DE010212C
:103A50004FF0000A00910BE010224FF0000A44F0F2
:103A600004040827009203E008224FF0000A0092A5
:103A7000C4F30252022A05D059F804CB0021032ACC
:103A800008D009E009F1070121F00702F2E802C1BC
:103A9000914605E01FFA8CFC042A01D10CF0FF0CC2
:103AA0004FF00008220728D5702806D0009B83F02D
:103AB000100353EA0A0305D00EE040228DF80420DB
:103AC000012208E05CEA010206D030228DF80420D1
:103AD0008DF8050002229046009B83F0080353EA0C
:103AE0000A030AD15CEA010201D1620705D530223E
:103AF0008DF804204FF001087F1E582804D034A010
:103B000003900EA802900DE036A0F9E753466046F8
:103B1000009AFCF790FB84460398825C0298401E52
:103B2000029002705CEA0100F0D1029806A9081A1E
:103B300000F1200A600702D524F4803400E0012758
:103B4000574502DDA7EB0A0000E0002000EB0A0168
:103B5000009005984144401A0590E00306D45B4666
:103B60002146179A059800F0B6F90544002706E0AB
:103B700001A85A46C05D179990476D1C7F1C4745A8
:103B8000F6DBE0030CD55B462146179A059800F05A
:103B9000A2F9054404E030205A46179990476D1C5D
:103BA0000099481E00900029F5DC08E0029802996F
:103BB0005A460078491C0291179990476D1CBAF13A
:103BC0000001AAF1010AF1DC65E100000928010009
:103BD0003031323334353637383961626364656683
:103BE0000000000030313233343536373839414245
:103BF000434445460000000000F05BF90544761C94
:103C0000307800287FF4ECAD19B0284600F04EB9AA
:103C1000620700D4062709F1070222F0070CFCE82E
:103C20000223E14603F000485FEA080C02D00FF2DD
:103C3000702C0DE05FEA045C02D50FF2682C07E0FF
:103C40005FEAC47C02D00FF2602C01E0AFF2700C8E
:103C50004FF0FF3823F00043CDF850C065280CD05A
:103C600006DC452809D046281DD047283DD13DE037
:103C7000662818D067287ED138E00021112F01DB9B
:103C8000112000E0781CCDE9000106A90EA8FFF77D
:103C9000D9FCDDE90F010E9A03910021009207F192
:103CA000010A04914DE04FF000400097CDE901106A
:103CB00006A90EA8FFF7C6FCDDE90F0203920E9BD2
:103CC00011990022DDF80CA00093049211B9791C1F
:103CD00000EB010AB7EB0A0004D4C0F1FF3007F192
:103CE000010A0490AAEB0700019044E0012F00DADA
:103CF00001270021112F01DD112000E03846CDE918
:103D0000000106A90EA8FFF79DFCDDE90F010E9A40
:103D10000391002104910092BA4621070CD4039923
:103D2000514500DA8A46BAF1010F05DD009AAAF181
:103D30000101515C302908D0B84202DA10F1040FB9
:103D400006DA0121CDE9011015E0AAF10101E9E748
:103D5000002805DC049901440491AAEB000102E06B
:103D6000411C514500DD8A460499401A401C0190CF
:103D70004FF000400290200704D40198504501DB29
:103D8000CDF8048000208DF84F0002980DF14F0708
:103D9000B0F1004F25D02B200E9002984FF0020872
:103DA00000280CDA404202902D200E9007E00A21F4
:103DB0000298FCF72AFA3031029007F8011DB8F199
:103DC0000001A8F10108F2DC02980028EFD1791E69
:103DD0000E980870307800F0200040F0450007F899
:103DE000020D12A8C01B00F107081498007800B15A
:103DF000012000EB0A01019801EBE07105984144B4
:103E0000401A401E0590E00306D45B462146179AEF
:103E1000059800F060F805441498007818B15A46E7
:103E2000179990476D1CE00324D55B462146179AED
:103E3000059800F050F805441CE00498002807DBC2
:103E4000DDE90301884203DD0098405C179901E039
:103E5000179930205A469047049805F10105401CF7
:103E600004900198401E019004D12E205A461799C3
:103E700090476D1CBAF10001AAF1010ADDDC05E0F2
:103E800017F8010B5A46179990476D1CB8F10001BD
:103E9000A8F10108F4DC5B462146179A0598ABE6C9
:103EA0002D0000002B0000002000000030BCBDE809
:103EB000C08F2DE9F041044600251E4617468804B0
:103EC00004D405E039462020B0476D1C641EF9D5A6
:103ED0002846BDE8F0812DE9F041044600251E4644
:103EE0009046C80301D5302700E02027880404D578
:103EF00005E041463846B0476D1C641EF9D528469A
:103F0000BDE8F0810A68531C0B6010707047000018
:103F1000FDF7FCF9FEF7A9FEFEF7C2FCFEF784FCF4
:103F2000FEF706FD00210F48FEF734FBFCF738FCD6
:103F30000D4C4FF457709FED0D0A6060002084ED2A
:103F4000020A2070032161700649096848632078DD
:103F500020B10128FBD100F00BF8F8E700F048F899
:103F6000F5E70000D4000020000000200000AC4174
:103F700010B51B4CA068FCF735F941EC100B19A1EA
:103F800053EC102B04F10C00FFF728FBFCF7EAFBC5
:103F900004F10C00FCF7ECFB6078F6EE000A20B1AF
:103FA00001280CD0022818D115E094ED020A0F491F
:103FB00010EE100A884210DA30EE200A08E094ED84
:103FC000020AB5EEC00AF1EE10FA06DD30EE600A24
:103FD00084ED020A01E0002020700320607010BD13
:103FE000000000202A252E31662A00000000204211
:103FF00010B5294C606800F059F810EE100AFCF773
:10400000F1F841EC100B25A153EC102B04F10C003E
:10401000FFF7E4FAFCF7A6FB04F10C00FCF7A8FBA1
:10402000606800F043F8D4ED020A00221D49B4EEA6
:10403000E00AF1EE10FA14DD606800F037F8D4ED14
:10404000020A30EE600ADFED180A20EE200ABCEE0C
:10405000C00A10EE100A642800D964200B68586367
:1040600001E008684263607820B1012808D0022886
:104070000FD10AE06068B0F57A6F0AD2143002E01E
:10408000606830B11438606003E008684263012062
:1040900020700320607010BD0000002020252E310C
:1040A00066200000D40000200000204200EE100A2C
:1040B0009FED051AF8EE400A80EE810ADFED030A53
:1040C00020EE200A7047000000F07F450000C84243
:1040D00000FE1467001D1447009D009C003F00FA7D
:1040E0001400005341980019485A095A005F00FC17
:1040F000015F01FC00AF1404005BC018815AC900C5
:104100005800C005005F004200F5006700EA00AFFC
:1041100000BF004600FF00EF0000000000000000AC
:104120000102030406070809A0860100400D0300F0
:10413000801A060000350C0040420F0080841E00EB
:1041400000093D0000127A000024F40000366E01E0
:104150000048E801006CDC02784100080000002003
:1041600024000000243600089C41000824000020A0
:10417000FC040000343600080000000000000000CD
:10418000000000000000000000000000010000002E
:0C419000100000000000000000093D00CD
:040000050800018965
:00000001FF
