:020000040800F2
:10000000300500209D010008D72F00085323000869
:10001000D52F000871030008193400080000000003
:100020000000000000000000000000006533000830
:100030007D04000800000000D92F00086733000885
:10004000B7010008B7010008B7010008B7010008B0
:10005000B7010008B70100087F0400088504000804
:100060008B04000891040008B7010008B7010008DC
:10007000B7010008B7010008B7010008B701000880
:10008000B7010008B7010008B7010008B701000870
:10009000B7010008B7010008B7010008970400087D
:1000A000B7010008B7010008B7010008B701000850
:1000B000B7010008B7010008B70100086123000874
:1000C00055230008B7010008B7010008B701000870
:1000D000B7010008B7010008B7010008B701000820
:1000E000B70100088D320008B7010008B701000809
:1000F000B7010008B7010008B7010008B701000800
:10010000B7010008B7010008B7010008B7010008EF
:10011000B7010008B7010008B7010008B7010008DF
:10012000B7010008B7010008B7010008B7010008CF
:10013000B7010008B7010008B7010008B7010008BF
:10014000B7010008B7010008B7010008B7010008AF
:10015000B7010008B7010008B7010008B70100089F
:10016000B7010008B7010008B7010008B70100088F
:10017000B7010008B7010008B7010008000000003F
:10018000B7010008B7010008DFF80CD000F04AF80A
:1001900000480047193D0008300500200648804708
:1001A00006480047FEE7FEE7FEE7FEE7FEE7FEE75C
:1001B000FEE7FEE7FEE7FEE7D53300088901000809
:1001C000D2B201E000F8012B491EFBD27047002299
:1001D000F6E710B513460A4604461946FFF7F0FF46
:1001E000204610BD034611F8012B00F8012B002A10
:1001F000F9D11846704730B50B4601460020202241
:10020000012409E021FA02F59D4205D303FA02F523
:10021000491B04FA02F52844151EA2F10102F1DC83
:1002200030BD0000064C074D06E0E06840F00103D9
:1002300094E8070098471034AC42F6D3FFF7A8FFC4
:100240000C4300082C43000870B5094D094E0024EA
:1002500035F8141056F8240000F065FB012805D08D
:10026000641CE4B2052CF3D3052070BD204670BD9C
:100270007A42000810000020014800F07FBE000014
:100280005C00002070B50546002408E000222346EB
:100290001146284603F0C2F8641CE4B26D1C2878AD
:1002A00008B1052CF2D9BDE87040014800F025BF27
:1002B0005C000020114810B50F49016000214FF487
:1002C0007012C0E901120C22C2604FF4A053402208
:1002D0008361C0E90421C0E9071212024162C0E94A
:1002E0000A12016302F0EEFC044800F085FEBDE84E
:1002F0001040024800F042BE002400405C00002094
:1003000030B50400174887B002D0012C08D00FE0A8
:10031000C16C41F00201C164C06C00F0020006E053
:10032000C16C41F01001C164C06C00F01000059078
:100330000D480E4D694630F81400009001200190E0
:10034000002002900320039055F8240000F0B8F933
:100350000098002281B255F8240000F0E9FA07B0B5
:1003600030BD00000010024070420008080000206C
:10037000FEE7000070B5002300781C46342817D033
:100380000FDCA0F12005142D24D2DFE805F0352381
:100390002323235623233B3D384E234B2351111156
:1003A0001111642832D009DCA0F13505042D11D8D3
:1003B000304B03EB400030F8603C1DE0B02839D0F2
:1003C00004DC6D2825D06E2804D125E0B52826D080
:1003D000FF2835D0274DA0F14106343D1A2E03D217
:1003E00005EB400333F8823CA0F161061A2E03D2DC
:1003F00005EB400030F8C23C012924D025E04AF248
:10040000DD03F9E72823F7E71123F5E74FF47343FA
:10041000F2E74BF21023EFE742F21023ECE746F24B
:100420008403E9E74FF42043E6E74AF21403E3E7E5
:10043000C023E1E74FF46C43DEE74FF43343DBE7DF
:100440004FF6DD73D8E743F00203012A01D143F0F0
:10045000200309490C2000BF23FA00F202F00F022A
:1004600041F82420001F641CE4B2C0B2042CF3D372
:1004700070BD0000B84200089800002070470120BD
:1004800000F012B9022000F00FB9042000F00CB9FE
:10049000082000F009B9202000F006B910B590F846
:1004A00025100024022903D00421C16301241AE08D
:1004B00001680A6822F00E020A6001680A6822F0E8
:1004C00001020A6090F84410036C01F01C02012143
:1004D00001FA02F25A6080F82510002180F82410F9
:1004E000816B01B18847204610BD90F82500704708
:1004F00070B5044600F022FA0546601C02D004489C
:100500000078044400F01AFA401BA042FAD370BDF0
:100510004C0000202DE9F84F00230126DFF834C1FC
:100520000F2791E006FA03F414EA01027ED023F0CB
:1005300003056544AA46D5F808909D074FEA157E45
:1005400007FA0EF505EA090B0095B0F1904F05D0BA
:10055000414DA84205D14FF0010822E04FF00008BC
:100560001FE03E4DA84202D14FF0020819E03C4D79
:10057000A84202D14FF0030813E03A4DA84202D13D
:100580004FF004080DE0384DA84202D14FF00508A5
:1005900007E0364DA84202D14FF0060801E04FF0C7
:1005A000070808FA0EF8D84524D1DFF8C480D8F837
:1005B000009029EA0209C8F8009008F10408D8F868
:1005C000009029EA0209C8F8009008F10408D8F858
:1005D000009029EA0209C8F8009008F10408D8F848
:1005E00000509543C8F80050009ADAF80850954337
:1005F000CAF80850D0F800804FEA4309032202FAF3
:1006000009F248EA0208C0F80080DD0800EB850521
:10061000AA46D5F820804FEA43794FEAD96907FA0C
:1006200009F528EA0508CAF8208000E00BE0856893
:10063000954385604568A5434560C5689543C56099
:10064000C26AA243C2625B1C31FA03F27FF46AAF52
:1006500000F010B800000140000400480008004805
:10066000000C004800100048001400480018004822
:100670000004014018BCBDE8E08F000009490428CF
:100680000CD004DC012807D0022806D104E0082899
:1006900006D0202801D10520487070470320FBE7D1
:1006A0000420F9E726000020044910B50A68024238
:1006B00002D00860FFF7E2FF10BD00001404014003
:1006C0002DE9F04FDFF83492002309F1040A0124E8
:1006D00003250AF1040B87B00F270BF1040E04E188
:1006E00004FA03F632407CD0D1F804C0BCF1010F0B
:1006F00008D0BCF1020F05D0BCF1110F02D0BCF143
:10070000120F29D1D0F808C0CDF800C04FEA430C31
:1007100005FA0CF8CDF80CC0DDF800C02CEA080C86
:10072000CDF800C0D1F80C80DDF80CC008FA0CF848
:10073000DDF800C048EA0C08C0F80880D0F8048052
:1007400091F804C028EA0608CCF3001C0CFA03FC5C
:100750004CEA080CC0F804C0D1F804806FEA080C19
:100760005FEA8C7C09D1D0F82CC02CEA060CC8F3C7
:10077000C0069E4046EA0C06C662D0F80CC04FEA9E
:10078000430805FA08F62CEA060CCDF81480029608
:100790008E6806FA08F646EA0C06C6604E68022E17
:1007A00001D0122E15D1DE0800EB86060396366ABC
:1007B0004FEA437C4FEADC6807FA08FC26EA0C069D
:1007C000D1F810C00CFA08FC4CEA060C039EC6F8DF
:1007D00020C00668DDF808C026EA0C0691F804C0BF
:1007E00000E081E0DDF814800CF0030C0CFA08FC4A
:1007F0004CEA060CC0F800C04E68F60074D5404EB6
:10080000D6F860C04CF0010CC6F860C0366E23F01C
:10081000030C06F0010600963A4E66440296D6F89E
:1008200008C09E074FEA167807FA08F62CEA060C6D
:10083000B0F1904F04D0344EB04203D101261BE0FA
:10084000002619E0314EB04201D1022614E0304EAC
:10085000B04201D103260FE02E4EB04201D1042652
:100860000AE02D4EB04201D1052605E02B4EB042E4
:1008700001D1062600E0072606FA08F646EA0C062D
:10088000DDF808C0CCF80860D9F80060CC46D1F893
:10089000048096435FEAC83800D51643CCF8006060
:1008A000DAF80060D446D1F8048096435FEA8838CD
:1008B00000D51643CCF80060DBF80060DC46D1F8C8
:1008C000048096435FEAC82800D51643CCF8006040
:1008D000DEF80060F446D1F8048096435FEA882889
:1008E00000D51643CCF800605B1C0A6832FA03F6A8
:1008F0007FF4F6AE07B000F013B80000000401402A
:1009000000100240000001400004004800080048B8
:10091000000C00480010004800140048001800486F
:1009200030BCBDE8C08F0069084000D0012070478E
:100930000AB1816170478162704700000148806898
:10094000704700004C00002090F84120202A24D15C
:1009500090F84020012A20D0012280F84020242253
:1009600080F841200268136823F0010313600268D5
:10097000136823F480531360026813680B431360F9
:1009800001680A6842F001020A60202180F84110E3
:10099000002180F84010084670470220704790F808
:1009A0004120202A22D190F84020012A1ED0012285
:1009B00080F84020242280F841200268136823F048
:1009C000010313600268136823F4706343EA012192
:1009D000116001680A6842F001020A60202180F873
:1009E0004110002180F840100846704702207047EF
:1009F0007047704710B5040013D0242084F84100DC
:100A00002068016821F001010160204600F010FA21
:100A10000020606484F8410044F8300FA074207412
:100A200010BD012010BD30B403689A691968D24323
:100A3000D40509D4CC43240606D4446C44F0010404
:100A400044644FF48074DC6153050AD4CB431B0625
:100A500007D4436C43F00803436404684FF4806395
:100A6000E36192050AD4C943090607D4416C41F0F9
:100A70000201416402684FF40071D161416C11F0D0
:100A80000B0F02D030BC01F04BBD30BC7047026888
:100A900091691268436B002B00D01847704770476C
:100AA00090F841007047000070B5040004D094F83D
:100AB0004100002510B106E0012070BD84F84050CF
:100AC000204600F0D7F9242084F84100206801680E
:100AD00021F0010101606068216820F07060086108
:100AE0002068816821F400418160E0680128A068E5
:100AF00007D040F4044021688860E068022803D0F1
:100B000006E040F40040F6E721684FF400604860DA
:100B100020684168114A114341602068C16821F48E
:100B20000041C160D4E904010843A16940EA012001
:100B30002168C860D4E9070108432168086020687B
:100B4000016841F0010101606564202084F84100E2
:100B5000256384F84250002070BD00000080000230
:100B6000704700002DE9FF4F83B00446DDE9108790
:100B700090F84100DDF848909A469346202874D1B9
:100B80005FEA080014D09FB194F8400001286CD0AF
:100B9000012084F84000FFF7D1FE064601220090B4
:100BA0001923D103204602F012F8002871D103E086
:100BB0004FF4007060646CE0222084F84100402013
:100BC00084F8420000256564C4F824806785656365
:100BD000CDE9009653465A462046049901F0D8FEC6
:100BE00010B184F8405054E0618D3548FF274FF034
:100BF00080784FF0007AFF2904D927853A4643468A
:100C0000009005E0618D2185009094F828205346DE
:100C10002046049901F0B0FF4B46002204212046F3
:100C2000009601F0D4FFA0BB2068406A616A08709A
:100C3000606A401C6062208D401E81B22185608DFB
:100C4000401E6085608DD8B1D1B94B46002280210D
:100C50002046009601F0BBFFD8B9608DFF2805D96A
:100C600027853A464346009506E026E0608D2085BC
:100C7000009594F8282053462046049901F07CFF03
:100C8000608D0028C8D132464946204601F0CBFF8E
:100C900018B1012007B000F017B821682020C86102
:100CA00021684A68074B1A404A6084F8410084F87A
:100CB000425084F840500020ECE70220EAE70000B0
:100CC0000024008000E800FE30BCBDE8C08F0000BA
:100CD0002DE9FF4F83B00446DDE9108790F841000D
:100CE000DDF848909A469346202871D15FEA0800C3
:100CF00014D09FB194F84000012869D0012084F8F5
:100D00004000FFF71BFE0646012200901923D10385
:100D1000204601F05CFF00286ED103E04FF4007024
:100D2000606469E0212084F84100402084F842009A
:100D300000256564C4F8248067856563CDE9009665
:100D400053465A462046049901F054FE10B184F8E7
:100D5000405051E0608DFF274FF080784FF0007ACF
:100D6000FF2804D927853A464346009505E0608D63
:100D70002085009594F8282053462046049901F0D8
:100D8000FBFE32464946204601F073FFA0BB606A75
:100D9000216800788862606A401C6062608D401E35
:100DA0006085208D401E80B22085618DD9B1D0B97B
:100DB0004B46002280212046009601F008FFD8B95A
:100DC000608DFF2805D927853A464346009506E001
:100DD00026E0608D2085009594F828205346204613
:100DE000049901F0C9FE608D0028CAD132464946F7
:100DF000204601F018FF18B1012007B000F014B828
:100E000020682021C16120684268064B1A40426078
:100E100084F8411084F8425084F840500020ECE7F8
:100E20000220EAE700E800FE30BCBDE8C08F000009
:100E300010B500680C49884215D10C48816D21F429
:100E4000001181650A4C40212046FFF763FB802199
:100E50002046FFF75FFB1F2000F0D2F9BDE81040ED
:100E6000202000F0CDB910BD005400400010024019
:100E70000004004810B586B0044614216846FFF708
:100E8000A6F91A49206888422ED1194CE06C40F02E
:100E90000200E064E06C694600F002000590C020AA
:100EA0000090122001900120029003200390042062
:100EB00004901048FFF704FCA06D40F40010A065FA
:100EC000A06D002200F40010059011461F2000F0D4
:100ED000B5F91F2000F0A5F900221146202000F0EE
:100EE000ADF9202000F09DF906B010BD005400407F
:100EF00000100240000400487047704702488168B3
:100F000002781144816070474C000020094810B5F8
:100F10000168002441F480710160032000F0AEF903
:100F2000002000F009F808B1012401E000F052F9B6
:100F3000204610BD0020024070B50E4E054600242C
:100F4000307898B14FF47A71B1FBF0F00A49096832
:100F5000B1FBF0F001F0E9F940B9102D06D2002202
:100F60002946501E00F06AF9756000E00124204611
:100F700070BD00004C000020580000202DE9F04119
:100F8000044690F835000121012801D0022830D113
:100F900094F8340001280CD0012084F83400022792
:100FA00084F83570FFF7CAFC06464FF47A780025BE
:100FB0000CE00220BDE8F081FFF7C0FC801B40453B
:100FC00004D9A76384F834500320F3E720688068CD
:100FD000C0434007F0D500205FF01401226801EB08
:100FE0008003D550401C0F28F8D9204600F085F822
:100FF00001460846DEE700002DE9F041040004D078
:1010000094F83500002518B107E00120BDE8F08113
:1010100084F83450204600F06FF8022084F8350040
:101020002068016821F00101016000205FF01401D7
:10103000226801EB8003D550401C0F28F8D92068A6
:10104000816841F004018160D4E901010843D4E9D9
:101050000A1211430843E1690843216A0843A16960
:101060000843616A084321684A68224B1A401043CA
:101070004860204601F0AAFE0600C7D1D4E903016A
:101080000843226B61691143084321680A6822F012
:10109000FE02104308602068016841F00101016010
:1010A000FFF74CFC07464FF47A7806E0FFF746FC62
:1010B000C01B404501D908200EE020688068C0436D
:1010C000C007F3D1FFF73AFC074608E0FFF736FC0C
:1010D000C01B404503D91020A063032096E7206879
:1010E0008068C043C006F1D4A563012084F83500B0
:1010F00030468BE70E0000FC70472DE9F0410446B6
:1011000008202168C8602068816841F0040181607E
:10111000FFF714FC054600264FF47A770BE0FFF743
:101120000DFC401BB84206D90420A06384F834604B
:101130000320BDE8F08120688068C0430007EED43A
:10114000012084F8350084F834600020F1E70000C5
:101150002DE9F047044690F835009A4690468946B6
:10116000012804D0022802D00120BDE8F08794F8BD
:101170003500012822D194F8340001280BD0012039
:1011800084F83400022684F83560FFF7D7FB054663
:101190004FF47A770DE00220E7E700BFFFF7CEFBC0
:1011A000401BB84205D9A663002084F83400032010
:1011B000DBE720688068C0434007EFD51421226830
:1011C00001EB8900115801EA080141EA0A011150B6
:1011D0000020CAE7094808B5016E41F00101016627
:1011E000016E01F001010091816D41F08051816536
:1011F000806D00F08050009008BD0000001002409B
:1012000000280DDB00F01F02012191404009800001
:1012100000F1E020C0F88011BFF34F8FBFF36F8F54
:101220007047002809DB00F01F02012191404009AE
:10123000800000F1E020C0F800117047F0B40E4BC0
:101240001B680C46C3F30223C3F10705042D00D924
:101250000425191D072901D2002300E0DB1E012609
:1012600006FA05F1491E214099409E40761E16401F
:101270003143F0BC02F016BB0CED00E0064900F073
:10128000070208684FF6FF03184040EA0220034AAD
:1012900010430860704700000CED00E00000FA0504
:1012A0001649B0F5007F0868C0F3412009D0022834
:1012B00005D0086820F4C06040F480600860002019
:1012C00070470128FBD0086820F4C06040F400702B
:1012D00008600B483222006850430A4AB0FBF2F023
:1012E000401C00E0401E4A69520501D50028F9D192
:1012F00048694005E3D503207047000000700040B6
:101300005800002040420F000248416841F400713B
:1013100041607047007000400248006800F4C060FF
:1013200070470000007000402DE9F84F0446002788
:101330000088E54D3E46010504F1200B1DD5606E89
:1013400078B1B0F5800F11D0B0F5000F04D0B0F532
:10135000400F22D001270FE0E86840F48030E860B9
:101360001BE00021201D01F039FE03E0002158465A
:1013700001F0CAFE070010D03E462088C00426D5E2
:10138000A06EC0B1B0F1807F1AD0B0F1007F0DD057
:10139000B0F1407F19D0012718E0D5F88800616EC0
:1013A00020F440000843C5F88800E6E7E86840F408
:1013B0008030E86009E00021201D01F00FFE03E00D
:1013C0000021584601F0A0FE0746F7B13E462068CE
:1013D00080033AD5A86D4FF00008C00009D4A86D6D
:1013E00040F08050A865A86D4FF0010800F08050D3
:1013F0000090DFF8D8A2DAF8001041F48071CAF842
:101400000010FFF79BFA814610E0D5F88800A16E26
:1014100020F040700843C5F88800D8E7FFF78EFA3F
:10142000A0EB0900022801D9032705E0DAF8000043
:10143000C005F3D5002F7CD04FEA0706B8F1000FA6
:1014400003D0A86D20F08050A8652078C00707D091
:10145000D5F88800A16B20F003000843C5F8880088
:101460002078800707D5D5F88800E16B20F00C00C4
:101470000843C5F888002078400707D5D5F88800CC
:10148000216C20F030000843C5F888002078000760
:1014900007D5D5F88800616C20F0C0000843C5F876
:1014A00088002078C00607D5D5F88800A16C20F404
:1014B00040700843C5F888002078800607D5D5F825
:1014C0008800E16C20F440600843C5F8880020885B
:1014D000800507D5D5F88800E16D20F44020084349
:1014E000C5F888002088400507D5D5F88800216E0A
:1014F00020F440100843C5F888002078400607D53E
:10150000D5F88800216D20F440500843C5F88800C4
:101510002078000607D5D5F88800616D20F440409A
:101520000843C5F888002088C00509D5D5F888008B
:1015300000E01CE0A16D20F440300843C5F88800AD
:1015400020884FF0006780044FF080684FD5D5F8B1
:101550008800E16E20F040600843C5F88800E06E26
:10156000B8423CD1E86840F48010E8603FE0D5F82C
:10157000900010F4407015D0D4F88410814211D03E
:10158000D5F89000D5F8901020F4407041F48031E7
:10159000C5F89010D5F8901021F48031C5F890105E
:1015A000C5F89000C00710D0FFF7C8F9074641F210
:1015B000883906E0FFF7C2F9C11B494501D9032666
:1015C0003CE7D5F890008007F4D5D5F89000D4F822
:1015D000841020F440700843C5F890002EE7404581
:1015E00005D10121201D01F0F9FC00B1064620685B
:1015F000000317D5D5F88800216F20F0406008431C
:10160000C5F88800206FB84204D1E86840F4801023
:10161000E86007E0404505D10121201D01F0DEFC16
:1016200000B106462068400317D5D5F88800616FE1
:1016300020F040600843C5F88800606FB84204D1CC
:10164000E86840F48010E86007E0404505D10121DA
:10165000201D01F0C3FC00B10646208840041AD5C5
:10166000D5F88800A16F20F040500843C5F88800E5
:10167000A06FB0F1805F03D0B0F1005F05D00AE049
:101680000221201D01F0AAFC03E00221584601F0CE
:101690003BFD00B106462088000407D5D5F8880038
:1016A000E16F20F080400843C5F888002068C0033F
:1016B00007D555F8880FD4F8801020F00040084373
:1016C0002860304600F004B800100240007000406E
:1016D00018BCBDE8E08F00002DE9F0470F4605007B
:1016E00058D0404E306800F00700B84209D2306848
:1016F00020F0070038433060306800F00700B8423F
:1017000048D12878384CC0072CD06868032811D0FD
:10171000022812D0216898B1490500293ADAA16857
:1017200021F003010143A160FFF708F9804641F26F
:10173000883910E021688901EFE721688903ECE727
:101740008907EAE7FFF7FAF8A0EB0801494502D953
:101750000320BDE8F087A068696800F00C00B0EBDA
:10176000810FEFD12878800705D5A068A96820F0FF
:10177000F0000843A060306800F00700B8420BD9C1
:10178000306820F0070038433060306800F0070010
:10179000B84201D00120DCE72878400705D5A068D1
:1017A000E96820F4E0600843A0602878000706D5C7
:1017B000A068296920F4605040EAC100A06000F0F0
:1017C0001BF8A168094AC1F30311515C01F01F0124
:1017D000C8400749086007480068BDE8F047FFF7C0
:1017E000ABBB00000020024000100240CC420008C9
:1017F000580000205000002070B5254900231846ED
:101800008A68CC6812F00C0204F00306214C4FEAFF
:10181000640509D00C2A05D0042A32D0082A00D148
:10182000284670BD012E10D10B681B0704D4D1F8D7
:101830009430C3F3032302E00B68C3F30313164E83
:1018400056F82330DAB10C2AEBD1C86800F0030057
:10185000022818D0032818D01846CA68CB68C2F3EB
:101860000212C3F306234343521CB3FBF2F2C868CF
:10187000C0F34160401C4000B2FBF0F070BD184660
:1018800070BD204670BD2046E7E72846E5E700002A
:10189000001002400024F400DC4200082DE9F84367
:1018A00004006FD0FE4DA86800F00C06E86800F058
:1018B00003072078C00664D576B10C2E01D1012F24
:1018C0000AD0A069002828687AD040F0010028607A
:1018D000FFF734F880465DE02868800702D5A069EC
:1018E0000028DED0216A2868000703D5286800F0A8
:1018F000F00004E0D5F89400F02202EA10108142D2
:1019000016D9084601F084FC00283BD1286840F035
:10191000080028602868216A20F0F0000843286049
:101920006868E16920F47F4040EA0120686016E0C1
:10193000286840F0080028602868216A20F0F0003C
:10194000084328606868E16920F47F4040EA01208C
:10195000686026B9206A01F05BFC0028D5D1FFF74A
:101960004BFFA968CF4AC1F30311515C01F01F017D
:10197000C840CD490860CD480068FFF7DDFA00286F
:101980007ED12EE0CAE000BFFEF7D8FFA0EB080032
:10199000022876D828688007F6D5286840F0080025
:1019A00028602868216A20F0F000084328606868F1
:1019B000E16920F47F4040EA0120686011E0FFE720
:1019C00020F001002860FEF7B9FF804606E000BF66
:1019D000FEF7B4FFA0EB08000228DAD828688007D9
:1019E000F6D42078C00740D0082E18D00C2E01D194
:1019F000032F14D06068B0F5803F17D0B0F5A02F4A
:101A0000286817D020F480302860286820F48020CF
:101A100028606068E0B1FEF791FF804614E0286816
:101A2000800322D56068002878D01EE0286840F442
:101A30008030EDE740F480202860F7E7FEF77EFF76
:101A4000A0EB08006428A4D828688003F6D50CE031
:101A5000FEF774FF804605E0FEF770FFA0EB08007C
:101A6000642896D828688003F6D4207880073BD570
:101A7000042E11D00C2E01D1022F0DD0E06801E010
:101A800092E1F1E0002828681ED040F480702860C0
:101A9000FEF754FF07460CE0286840050CD5E068C7
:101AA0000028C1D008E000BFFEF748FFC01B022895
:101AB00093D828684005F7D56868217C20F0F85055
:101AC00040EA016068600FE020F480702860FEF753
:101AD00035FF074605E000BFFEF730FFC01B0228B8
:101AE000B1D828684005F7D42078000729D5606967
:101AF0000028D5F8940012D040F00100C5F89400F9
:101B0000FEF71CFF074604E0FEF718FFC01B022883
:101B100099D8D5F894008007F6D512E000E120F0BE
:101B20000100C5F89400FEF709FF074605E000BF75
:101B3000FEF704FFC01B022885D8D5F89400800763
:101B4000F6D42078400766D5A86D0027C00008D4D9
:101B5000A86D40F08050A865A86D012700F0805066
:101B6000009053480168C90512D40168814641F4C8
:101B700080710160FEF7E2FE804605E0FEF7DEFEC2
:101B8000A0EB080002286FD8D9F80000C005F5D5F1
:101B9000A068012816D00528D5F8900017D020F0AD
:101BA0000100C5F89000D5F8900020F0040000BFB7
:101BB000C5F89000A06841F28839C0B1FEF7BEFEBA
:101BC00080460FE0D5F8900040F00100F0E740F0CB
:101BD0000400C5F89000F5E7FEF7B0FEA0EB0801A1
:101BE000494541D8D5F890008007F5D50EE0FEF7BD
:101BF000A5FE804606E000BFFEF7A0FEA0EB0801B0
:101C0000494531D8D5F890008007F5D41FB1A86DAB
:101C100020F08050A865A06A38B302280AD00C2EA4
:101C20007ED0286820F080702860286810F0205F3F
:101C300077D0AAE0E868E26A00F0030191422BD174
:101C4000216B00F0700209011039914224D1626BBE
:101C500000F4FE41B1EB022F1ED1A26B00F4003163
:101C6000072A03D0012202E09DE089E00022914290
:101C700012D1A18F00F4C00249084905A1F5001155
:101C8000914209D194F8401000F0C060490849061B
:101C9000A1F1007181425CD00C2E41D0286809E08E
:101CA00000100240CC4200085800002050000020E4
:101CB0000070004040017ED42868C0007BD42868B2
:101CC00020F080702860FEF739FE064605E000BF70
:101CD000FEF734FE801B022865D828688001F7D4FF
:101CE000D4E90B016FF00F0202EB01110843A18F41
:101CF0005204490802EB4151626B41EA0221084358
:101D000094F840104FF07E42490802EB41610843CD
:101D1000A16B090940EA4140E968284A114001E005
:101D200049E02EE00843E860286840F080702860B1
:101D3000E86840F08070E860FEF700FE044604E0CA
:101D4000FEF7FCFD001B02282DD828688001F7D57E
:101D50002FE0286880012CD4286840F0807028602B
:101D6000E86840F08070E860FEF7E8FD044604E0B3
:101D7000FEF7E4FD001B022815D828688001F7D57E
:101D800017E0E86820F00300E860E8680C490840C4
:101D9000E860FEF7D3FD044608E000BFFEF7CEFD85
:101DA000001B022802D90320BDE8F88328688001BF
:101DB000F4D40020F8E70120F6E700008C809DF9BC
:101DC000FFFFEEFE7047000038B5134C0546207843
:101DD00000281FD100221149284600F077F8002280
:101DE00004F11001284600F04FF80C488178618119
:101DF0004378A3810278E281009109A104F11400E3
:101E000001F03CFDFEF738FA04F11400BDE838405B
:101E1000FEF738BA38BD000026000020A8000020D8
:101E200025303275253032752530327500000000BE
:101E300010B5144904464FF480200860206881687A
:101E4000C9040BD5C168C90508D5C16801F0800176
:101E500061F4C071C1602046FFF7B6FF2068816859
:101E600089040BD5C168890508D5C16801F08001D6
:101E700061F42071C1602046FFF7A4FF012084F8BF
:101E8000210010BD1404014010B500680B464168E4
:101E90000D480140080CD870C1F304245C7001F0B7
:101EA0003F049C70C1F34231197052B901F0F4F94A
:101EB000D870587801F0F0F95870987801F0ECF982
:101EC0009870002010BD00003FFFFF0010B50B46CA
:101ED0000168896A596001680969C1F30E01996056
:101EE000006801680D480140C1F305401870C1F356
:101EF00006245C7001F07F049C70890DD97052B982
:101F000001F0CAF91870587801F0C6F9587098783D
:101F100001F0C2F99870002010BD00007F7F7F00A3
:101F200010B504004FF0010044D094F8210028B906
:101F3000002084F82000204600F040F8022084F8B9
:101F400021002168CA204862216853204862204647
:101F500001F0B8F900282DD120688168164A114097
:101F60008160216888686268A369104322691A4306
:101F7000104388602168E06808612068016922894F
:101F800041EA02410161204601F0C0F9002811D167
:101F90002168CA6C22F00302CA646269E1691143D4
:101FA0002268D36C1943D1642268FF215162012158
:101FB00084F8211010BD0000BFFF8FFF10B500682E
:101FC000094988420FD1094850F8901F41F4004157
:101FD0000160002211462920FFF730F9BDE81040CA
:101FE0002920FFF71EB910BD002800400010024054
:101FF0002DE9F05F044690F820000B46012844D0FC
:10200000012084F82000022084F8210020680026A6
:1020100080684FEA4060BAB3002800DBDE70987831
:102020001978DA7840EA01405978090241EA825188
:10203000084393F8241040EA0165186A5F68054375
:10204000586921680543D8690743CA204862216856
:1020500053204862986A4FF0FF08B0F5807F2068EF
:102060004FF0030B4FF47A7A81682BD021F4007182
:1020700081602068C16801F0800161F42071C16055
:10208000FEF75CFC814652E002E0022000F078B8E6
:10209000002800DBDE70187801F007F90504587895
:1020A00001F003F945EA0025987801F0FEF80543B0
:1020B000D87845EA805593F8240001F0F6F845EA0F
:1020C0000065BAE721F4807181602068C16801F081
:1020D000800161F4C071C160FEF730FC814605E00B
:1020E000FEF72CFCA0EB0900504517D82068C0680B
:1020F000C007F5D02068C561206847642068816802
:1021000041F4807181602068816841F480511FE052
:10211000FEF714FCA0EB0900504508D92168C1F86E
:10212000248084F821B084F820600320AEE7206882
:10213000C0688007ECD52068056220688764206845
:10214000816841F4007181602068816841F4005128
:1021500081600A48016841F4802101600748083025
:10216000016841F4802101602168C1F824800120C8
:1021700084F8210084F82060002087E700040140F3
:1021800030BCBDE8C09F000070B5044690F8200048
:102190000B4601281BD0012684F82060022084F819
:1021A0002100B2B19878D97840EA01455878197879
:1021B000000240EA413005432168CA204862216894
:1021C00053204862204601F07DF8D0B120E0022083
:1021D00070BD5878C10603D500F0EF000A30587082
:1021E000D87801F062F80504587801F05EF845EA05
:1021F0000025987801F059F80543187845EA4035EC
:10220000DAE70848054020684560204601F07EF87E
:102210002268FF21516208B984F82160002184F806
:10222000201070BD3FFFFF002DE9F041044690F8FB
:10223000200090460D46012811D0012784F8207017
:10224000022084F821002168CA20486221685320B6
:102250004862204601F036F8002618B129E0022035
:10226000BDE8F0812068B8F1000F80684FEA406057
:1022700024D0002800DBEE70A8782978EA7840EABC
:1022800001406978090241EA82510843184908402F
:10229000216808602068816821F480218160D5E987
:1022A0000301084321688A6810438860204601F0D2
:1022B0002DF82268FF215162A0B115E0002800DB53
:1022C000EE70287800F0F1FF0304687800F0EDFF6D
:1022D00043EA0023A87800F0E8FF0343E87843EAE4
:1022E0008050D3E784F8217084F82060B8E70000BC
:1022F0007F7F7F0070B504460068C16821F0A001AF
:10230000C160FEF71BFB05464FF47A7607E000BF7D
:10231000FEF714FB401BB04201D9032070BD2068BA
:10232000C0688006F4D5002070BD10B5401EB0F125
:10233000807F01D3012010BD4FF0E02460610F21A8
:10234000601701F0AFFA0020A06107202061002093
:1023500010BDFEE70148FEF766BB0000BC00002090
:102360000148FEF794BB0000BC0000207FB5044686
:1023700000208DF80C0040F6B835012303A88DE845
:10238000290002232046FEF7EDFB10B1204600F0A5
:1023900066F89DF80C0004B070BD00003FB505461E
:1023A00090F8410083B0202802D0012007B030BD52
:1023B00040F6B834012306A88DE819000223284608
:1023C000FEF786FC084C207018B1284600F047F84C
:1023D00007E02846FEF764FB2028FAD10A20FEF722
:1023E00087F82078E2E7000024000020806A0021BE
:1023F000826B02B19163C26B02B1916300F0D2BBF8
:1024000010B50022CC074FF0280306D090F84140C9
:10241000422233EA040400D0F2228C0707D590F858
:10242000414042F04402A34301D042F0B0020B0409
:1024300001D542F0B802102904D0202905D0402946
:1024400006D007E042F0900204E042F0200201E0F2
:1024500042F04002006801689143016010BD10B570
:102460000446FEF7C7FA2046BDE8104000F0D6B992
:1024700001688A69D243920701D400228A62006807
:102480008169C943C90703D0816941F001018161B4
:1024900070472DE9F041044690F84100282181431E
:1024A00020684FF000054FF0080304D0C36184F8A2
:1024B0004050BDE8F0818169C1F300478169FE2287
:1024C00002EA11468168C1F30902C168D4F80CE040
:1024D00001F0FE014FF4004CBEF1020F17D14FF096
:1024E000060E06F006060EEAD21E76450ED1A16C47
:1024F000491CA164A16C0229DBD1A564C36184F8E5
:10250000405039462046FEF774FAD2E70E4661463F
:102510002046FFF775FF84F840503246F1E700008F
:1025200070B5044690F84100002584F84250364AC0
:10253000E2626585626C0A43626428281FD02928FC
:102540001DD02A281BD048F203012046FFF758FF70
:1025500094F84100602802D0202084F8410065638F
:10256000206B2A4EA16B19B1112812D0212810D04E
:10257000E16BE9B3122824D0222822D03EE00321C7
:102580002046FFF73DFF282084F841002048606383
:10259000E6E720680168490403D5016821F4804119
:1025A0000160A06BFDF7A1FF012827D0A06B866317
:1025B00084F84050A06BFDF771FF002823D0A06B7A
:1025C00018E020680168090403D5016821F400417E
:1025D0000160E06BFDF789FF01280FD0E06B866397
:1025E00084F84050E06BFDF759FF00280BD000E065
:1025F00004E0E06B816BBDE8704008472046BDE811
:10260000704000F0CFBA70BD0000FFFFED2300085E
:10261000592A000870B504461648E0620025256373
:10262000202084F8410084F84250C8436563400785
:1026300011D42068406A616A0870606A401C606258
:10264000208D40B1401E2085608D401E6085606CED
:1026500040F00400606448F203012046FFF7D0FE1A
:1026600021681020C86184F840502046FEF778FAAF
:1026700070BD00000000FFFF2DE9F0410268044634
:10268000156890F841000E462027D761212806D012
:10269000292804D0222809D02A2807D00DE048F2A2
:1026A00001012046FFF7ACFE212005E048F20201BF
:1026B0002046FFF7A5FE222020632068416841F4F0
:1026C0000041416020684168354A11404160204620
:1026D000FFF7CEFEE843410406D42068016821F4E8
:1026E00080410160A06B07E0000409D42068016804
:1026F00021F400410160E06B10B100684068608522
:10270000F04340070FD4206826F00406406A616A4F
:102710000870606A401C6062208D20B1401E2085D8
:10272000608D401E6085608D18B1606C40F00400C3
:102730006064002584F842506563606C68B1616C28
:102740002046FFF7EDFE94F84100282815D13146C8
:102750002046BDE8F041FFF75DBFE06A114EB04290
:102760000DD0204600F020F8E66284F84170256321
:1027700084F840502046FEF7F3F9BDE8F08194F864
:10278000410084F841702228256384F84050204697
:1027900002D0FEF7B2FBF0E7FEF7AEFBEDE700007C
:1027A00000E800FE0000FFFF70B504460068016805
:1027B000002584F84250C9434A0403D4016821F437
:1027C000804104E0090403D4016821F40041016060
:1027D00094F841102820292911D094F841102A2971
:1027E0000CD184F841002220206302212046FFF70B
:1027F00007FE84F840502046FEF77EFB70BD84F84B
:1028000041002120206301212046FFF7F9FD84F8D3
:1028100040502046FEF771FB70BD000010B5044625
:10282000FEF73EF9002815D10B4820600B48606088
:1028300000200121C4E9020120616061E0612062A1
:1028400000F050F82046FEF72FF900BF94F8410041
:102850002028FBD110BD0000005400402626119016
:102860002DE9F0410446006890460E468069C04359
:10287000C00633D40025202720688069C043800625
:1028800015D5701CF8D0FEF759F8A0EB0800B0423F
:1028900001D8002EF0D154F8440F40F0200044F845
:1028A00004096770A57025700120BDE8F0812168DA
:1028B0001020C8612068C7612046FFF7D9FD54F891
:1028C000440B4168064A11404160206840F0040012
:1028D00044F820096777A5772577E5E70020E4E746
:1028E00000E800FE30B5284CA9B0A06D40F0805043
:1028F000A065A06D00F080502790FEF705FD4025F3
:10290000A014009514906846FEF70EFDE06C40F0B0
:102910000200E064E06C22A900F00200279012207F
:10292000CDE9225001202490022025900420174D4B
:1029300026902846FDF7C4FE8020229022A9284632
:10294000FDF7BEFEA06D40F40010A065A06D00F480
:1029500000102790A06B40F40010A063A06B20F43F
:102960000010A063002201211F20FEF767FC1F203A
:10297000FEF757FC002201212020FEF75FFC2020FB
:10298000FEF74FFC29B030BD0010024000040048A3
:102990002DE9F84304461646DDE9089714489846A1
:1029A000DAB200900023204600F0E6F83A464946A5
:1029B000204600F05EF9B8B9F5B2B8F1010F08D0C1
:1029C0002168300A88623A464946204600F051F9AB
:1029D00050B9206885624B4600224021204600976E
:1029E00000F0F5F8002800D00120BDE8F8830000D1
:1029F000002000802DE9F843044616461548984605
:102A0000DDE90897DAB2C3020090204600F0B4F87E
:102A10003A464946204600F02CF9B8B9F5B2B8F16B
:102A2000010F08D02168300A88623A46494620469C
:102A300000F01FF950B9206885624B4600228021C2
:102A40002046009700F0C3F8002800D00120BDE820
:102A5000F8830000002000802DE9F041C56A04469B
:102A600090F840008846012826D0012084F84000D4
:102A70006FEA0807B8066FEA020605D4B00603D469
:102A800041462046FFF7F8FD3A49F8064FF08072BC
:102A900031D4F0062FD4638D102083B12168C86132
:102AA000606C40F0040060640DB195425ED1616CD1
:102AB0002046FFF735FD59E00220BDE8F08194F88B
:102AC0004120282A02D1B5F1007F04D094F841209A
:102AD000292A05D00CE041462046FFF79BFD45E042
:102AE0008D4205D02168C8612046FFF7C1FC3AE05D
:102AF0002168C8613AE0780715D4700713D4608D57
:102B000060B12068406A626A1070606A401C60624E
:102B1000208D401E2085608D401E6085608D28BB05
:102B20008D4220D122E0380706D4300704D4414634
:102B30002046FFF7AEFC19E0B80717D4B00715D44C
:102B4000608D68B1606A216800788862606A401CA4
:102B50006062608D401E6085208D401E208505E0EE
:102B6000954200D015B92046FFF71EFE002084F8DC
:102B70004000A2E70000FFFFF0B50568059C68680B
:102B80004FF48066064FC1F3090106EA545641EA44
:102B900002413E431943B043214308436860F0BDFE
:102BA000FF63FF0310B590F841200021602A05D093
:102BB000016380F84010FDF772FF10BD202280F8FD
:102BC0004120016380F84010FDF712FF10BD2DE990
:102BD000F0411D4617460E460446DDF8188008E011
:102BE000681C06D0FDF7AAFEA0EB0800A8420BD88F
:102BF00055B12068806936EA000012D00020B84242
:102C0000EED00020BDE8F08154F8440F40F02000E1
:102C100044F80409202060700020A070207001207A
:102C2000F0E70120EBE770B516460D4604460DE0CF
:102C3000324629462046FFF713FE08B1012070BD39
:102C4000FDF77CFE801BA84207D835B1206880695B
:102C5000C0438006ECD4002070BD54F8440F40F00F
:102C6000200044F80409202060700020A07020702B
:102C7000E4E770B516460D4604460FE03246294695
:102C80002046FFF7EDFD08B1012070BD681C05D09E
:102C9000FDF754FE801BA84207D835B12068806933
:102CA000C0438007EAD4002070BD54F8440F40F0C0
:102CB000200044F80409202060700020A0702070DB
:102CC000E2E7000030B5B9B0142122A8FDF77FFA81
:102CD000442127A8FDF77BFA88216846FDF777FA9B
:102CE000364CA06D40F08050A065A06D002500F02E
:102CF000805038900420319527900120299027A8F2
:102D0000FEF7CCFD00B1FEE74FF40030009040121A
:102D100021906846FEF708FBE06C40F00100E0649B
:102D2000E06C00F001003890E06C40F00200E064DC
:102D3000E06C00F002003890E06C40F00400E064C9
:102D4000E06C00F004003890E06C40F00800E064B3
:102D5000E06C22A900F00800389048F2C070229080
:102D60000220CDE92305032025900B2026904FF06B
:102D70009040FDF7A5FC4FF23320229022A9104885
:102D8000FDF79EFC4FF4FC70229022A90D48FDF740
:102D900097FC4FF47F40229022A90B48FDF790FC4E
:102DA0000220FDF7A5FBA06D40F40070A065A06DAA
:102DB00000F40070389039B030BD000000100240BF
:102DC0000004004800080048000C004870B50446A4
:102DD000FDF7B4FD05464FF47A7608E0FDF7AEFD49
:102DE000401BB04203D90120A063032070BD2068BE
:102DF0008068C0438006F1D4002070BD30B587B034
:102E000014216846FDF7E3F92B48C16C41F001013C
:102E1000C164C16C01F001010591C16C41F0020176
:102E2000C164C06C254C00F0020005900120CDE982
:102E3000000400204FF09045029069462846FDF7B7
:102E40003FFC2E20CDE9000402200290694628466E
:102E5000FDF736FC002211460620FEF7EFF90620AA
:102E6000FEF7DFF9002211460720FEF7E7F90720F9
:102E7000FEF7D7F9002211460820FEF7DFF90820F7
:102E8000FEF7CFF9002211460920FEF7D7F90920F5
:102E9000FEF7C7F9002211461720FEF7CFF91720D9
:102EA000FEF7BFF9002203212820FEF7C7F92820EA
:102EB000FEF7B7F907B030BD001002400000111056
:102EC0000E4810B50C49016040F6146141600021C4
:102ED0000122C0E90212016141618161C1610162A7
:102EE000FDF7E2FD00210548FDF72EFDBDE810408D
:102EF00000210248FDF753BD00540040BC000020F3
:102F000010B592B014210BA8FDF761F900242C2113
:102F100068461094FDF75BF92B482A49C0E9001474
:102F20007F218160FF21C0E9031444618461C46191
:102F3000FEF7F6FF09208DF82C001E208DF82D00DD
:102F40008DF82E400E9400220BA91F480F94FFF716
:102F50006BF904208DF8400011208DF84100052008
:102F60008DF842008DF84340002210A91648FFF763
:102F70000BF98DF800408DF801408DF802404FF0BC
:102F80008030CDE9044001208DF824000002039434
:102F90000A90019407940894002269460A48FFF7B2
:102FA00027F820B1FDF768F908A0FDF76BF9292093
:102FB000FEF737F9002203212920FEF73FF912B06E
:102FC00010BD0000002800400801002041412045BC
:102FD00052520000FEE77047704700002DE9F041B3
:102FE000444C05468846E0680026810728680DD0D5
:102FF000E16801F00301814216D1A8B1E068696877
:10300000C0F30210401C88420ED120E0012804D0F9
:10301000022805D0032807D108E02168890701E0CC
:1030200021684905002907DB01265FE02168890343
:1030300002D421684903F5E7E1686A686FF00F037D
:1030400021F0730103EB021211430143E160206898
:1030500020F080602060FDF771FC074605E000BFAE
:10306000FDF76CFCC01B022837D820680001F7D49C
:10307000B8F1000F18D0B8F1010F1ED0287D4FF025
:103080007E41400801EB4060A96840EA01202169C7
:10309000194A114008432061206840F08060206098
:1030A000FDF74CFC07461AE0A868E9680002090928
:1030B00040EA41402169114AEBE7288A104940085B
:1030C00001EB4050A96840EA012021690D4AE0E780
:1030D000FDF734FCC01B022801D9032606E0206856
:1030E0000001F5D52069A969084320613046BDE893
:1030F000F081000000100240FF80FFF9FF80FDFF1B
:103100000000E0FFFF809FFF2DE9F0413D4C0646A7
:103110008846E0680025810730680DD0E16801F03D
:103120000301814216D1A8B1E0687168C0F30210B2
:10313000401C88420ED120E0012804D0022805D08E
:10314000032807D108E02168890701E021684905C3
:10315000002907DB012551E02168890302D4216899
:103160004903F5E7E16872686FF00F0321F073011E
:1031700003EB021211430143E160206820F080500C
:103180002060FDF7DBFB074605E000BFFDF7D6FB3F
:10319000C01B022829D820688000F7D4B8F1000F9E
:1031A00015D0307C4FF07E41400801EB4060B168A3
:1031B00040EA01206169144A1140084360612068B7
:1031C00040F080502060FDF7B9FB07460FE0B06883
:1031D000F1680002090940EA414061690B4AEBE7E6
:1031E000FDF7ACFBC01B022801D9032506E02068CF
:1031F0008000F5D560697169084360612846BDE8C3
:10320000F081000000100240FF80FFF9FF80FDFF09
:10321000F8B51C4D06460024A86DC00002D5FEF787
:103220007BF80DE0A86D40F08050A865A86D00F017
:1032300080500090FEF770F8A96D21F08051A965CB
:10324000B0F5007F04D0802E07D94FF003040AE0C8
:10325000802E08D9A02E01D804E001D1022402E07A
:10326000702E00D101240848016821F00701214394
:103270000160006800F00700A04201D00120F8BD05
:103280000020F8BD00100240002002400148FEF777
:10329000CFBD000008010020010901EB810100F011
:1032A0000F0000EB4100C0B270470022014602E06F
:1032B0000A39C9B2521C0A29FAD2100741EA106031
:1032C000704700002DE9F041044600680025C16800
:1032D000490617D4691EC160FDF730FB06464FF45E
:1032E0007A78032708E000BFFDF728FB801B4045E4
:1032F00002D9032584F821702068C068400601D4F3
:10330000032DF1D12846BDE8F08100002DE9F04100
:10331000064613480025016821F080010160041F62
:1033200020684FF00307800607D43046FEF7E2FF1F
:1033300090B186F8217003250EE0206820F020006F
:1033400020603046FEF7D6FF10B186F821700325C5
:10335000206840F0200020602846BDE8F081000091
:103360000C2800407047FDF7C9BD000010B5B8B08B
:10337000442122A8FCF72BFF142133A8FCF727FFD8
:1033800088216846FCF723FF1820229001200024A2
:10339000CDE92804279060202A902C9422A8FEF7DB
:1033A0007DFA0F20CDE9330435943694002133A8FB
:1033B0003794FEF791F90648149404120090684679
:1033C0002194FDF7B1FF2046FDF76AFF38B010BD2C
:1033D000400002000D48016841F4700101600C4892
:1033E000016841F001010160002181600268094B20
:1033F0001A4002608214C260026822F480220260D5
:1034000081610249C00380390860704788ED00E09F
:1034100000100240FFFFF6EAFEE700002DE9F04150
:103420001D46FCF7A7FFFE4C062D7DD2DFE805F018
:10343000034FA3F6F4F32078FA4DC107C90E00F04C
:10344000020241EA825100F0040241EA025300F014
:1034500008000343F2482A4600213C38FDF778FE75
:103460002079C107C90E00F0020241EA825100F042
:10347000040241EA025300F008000343E8482A46E8
:1034800002213C38FDF764FE207AC107C90E00F026
:10349000020241EA825100F0040241EA025300F0C4
:1034A00008000343DE482A4604213C38FDF750FE5D
:1034B000207BC107C90E00F0020241EA825100F0F0
:1034C000040241EA025300F00800034350E0207870
:1034D000D54DC107490E00F0020241EA023100F069
:1034E000040241EA822100F0080041EA8003CC484E
:1034F0002A4600213C38FDF72BFE2079C107490EF2
:1035000000F0020241EA023100F0040241EA8221A5
:1035100000F0080041EA8003C1482A4602213C38F5
:10352000FDF716FE207A00E0A3E1C107490E00F086
:10353000020241EA023100F0040241EA822100F075
:10354000080041EA8003B6482A4604213C38FDF7CA
:10355000FFFD207BC107490E00F0020241EA023163
:1035600000F0040241EA822100F0080041EA8003F1
:103570002A4606211DE12078AC4DC107090C00F058
:10358000020241EA027100F0040241EA826100F0A5
:10359000080041EAC023A2482A4600213C38FDF732
:1035A000D7FD2079C107090C00F0020241EA02713F
:1035B00000F0040241EA826100F0080041EAC02301
:1035C00097482A4602213C38FDF7C2FD207AC10700
:1035D000090C00F0020241EA027100F0040241EA23
:1035E000826100F0080041EAC0238D482A46042188
:1035F0003C38FDF7ADFD207BC107090C00F002024D
:1036000041EA027100F0040241EA826100F0080020
:1036100041EAC023ACE7D2E05FE0FFE720786FF03B
:103620004045C10700F0080041EAC0637C482A46D3
:1036300000213C38FDF78CFD2078AE0000F002033D
:10364000C0F3800003437648324601213C38FDF741
:103650007FFD20792A46C10700F0080041EAC063D7
:103660006F4802213C38FDF773FD2079324600F0A7
:103670000203C0F380000343694803213C38FDF78F
:1036800067FD207A2A46C10700F0080041EAC063BE
:10369000634804213C38FDF75BFD207A324600F098
:1036A0000203C0F3800003435D4805213C38FDF769
:1036B0004FFD207B2A46C10700F0080041EAC063A5
:1036C000574806213C38FDF743FD207B324600F089
:1036D0000203C0F3800003436AE020786FF0407675
:1036E00000F00201090600F0040041EA80534C4852
:1036F000324600213C38FDF72BFD2068042505EA01
:10370000500100F0010041EAC0034548B7153A46B0
:1037100001213C38FDF71CFD2079324600F0020102
:10372000090600F0040041EA80533D4802213C387C
:10373000FDF70EFD60683A4605EA500100F0010011
:1037400041EAC003364803213C38FDF701FD207AE9
:10375000324600F00201090600F0040041EA8053FD
:103760002F4804213C38FDF7F3FCA0683A4605EAEF
:10377000500100F0010041EAC003294805213C380E
:10378000FDF7E6FC207B324600F00201090600F05E
:10379000040041EA8053224806213C38FDF7D8FC5A
:1037A000E0683A4605EA500100F0010041EAC00332
:1037B0000721BDE8F0411A483C38FDF7C9BC207824
:1037C0001B4DC107890B00F0020241EAC21100F053
:1037D000040241EAC21100F0080041EAC053104857
:1037E0002A4600213C38FDF7B3FC2079C107890B3C
:1037F00000F0020241EAC21100F0040241EAC211E3
:1038000000F0080041EAC05305482A4602213C382E
:10381000FDF79EFC207AC107890B00F0020209E047
:1038200098000020E7FF3FFF9FCFFFFFFF3FFFCF44
:10383000FFFCFDFB41EAC21100F0040241EAC211A3
:1038400000F0080041EAC0532A4604210A48FDF767
:103850007FFC207BC107890B00F0020241EAC21104
:1038600000F0040241EAC21100F0080041EAC0532E
:103870007EE6BDE8F08100005C0000200FB4084B3C
:1038800010B504A902AA039800F02CF8044602A976
:10389000002000F0CBF9204610BC5DF814FB0000BE
:1038A0002D3C00080907090E002804DB00F1E02088
:1038B00080F80014704700F00F0000F1E02080F85D
:1038C000141D704702E008C8121F08C1002AFAD16F
:1038D00070477047002001E001C1121F002AFBD190
:1038E000704700002DE9FF4F8BB088460546002643
:1038F00006E025280BD0DDE90D1290476D1C761CE3
:1039000028780028F5D10FB0304600F063B90024C4
:10391000A146A2460122AE4900E0044315F8013F4A
:10392000203B02FA03F00842F7D128782A2810D069
:103930006FF02F022878A0F13001092915D809EB82
:10394000890102EB410144F0020400EB01096D1C06
:10395000F0E758F8041B5FEA010903D544F400546A
:10396000C9F1000944F002046D1C28782E2817D1F3
:1039700015F8010F44F004042A280ED06FF02F022E
:103980002878A0F1300109290AD80AEB8A0102EB54
:10399000410100EB010A6D1CF2E758F804AB6D1C05
:1039A00028786C280FD006DC4C2817D068280DD05A
:1039B0006A2814D104E0742810D07A280FD10DE0C1
:1039C00044F400140AE044F4801401E044F4401488
:1039D0006978814202D104F580146D1C6D1C287831
:1039E000692865D006DC00288DD0632827D064289C
:1039F00006D15DE06E2808D073282AD0752877D0CC
:103A0000DDE90D129047761CE0E0C4F30250022875
:103A100009D003280DD0D8F8001004280DD00E606E
:103A200008F10408D2E0D8F80010F217C1E90062EA
:103A3000F6E7D8F800100E80F2E70E70F0E718F8FD
:103A4000041B8DF8001000208DF80100EB460120CA
:103A500003E058F804BB4FF0FF3061074FF0000758
:103A600001D40AE07F1C57450DDA8742FADB1BF8C8
:103A700007100029F6D106E07F1C8742FCDB1BF80B
:103A800007100029F8D1DDE90D23A9EB07008146D5
:103A9000214600F0B4F83044C61904E0DDE90D1207
:103AA0001BF8010B90477F1EF8D22146484688E05C
:103AB00058F8040BC4F302514FF00A0B032900D14C
:103AC00000B2042900D140B2002802DA40422D2180
:103AD00002E0210505D52B218DF82410012104E0F9
:103AE00006E0E10710D02021F6E708AF089113E0C7
:103AF00058F8040BC4F302514FF00A0B032900D10C
:103B000080B2042900D1C0B20021EEE75946FCF78B
:103B100072FB303107F8011D0028F7D1ADEB07002B
:103B200000F1200B600702D524F4803401E04FF04F
:103B3000010ADA4502DDAAEB0B0000E00020824614
:103B400000EB0B0108980144A9EB01000A90E00387
:103B500006D4DDE90D2321460A9800F050F806440A
:103B60004FF0000908E009A911F80900DDE90D127C
:103B7000904709F10109761C08998945F3DBE003B8
:103B80000CD5DDE90D2321460A9800F038F80644EB
:103B900004E0DDE90D1230209047761CBAF10001F7
:103BA000AAF1010AF5DC05E0DDE90D1217F8010BB9
:103BB0009047761CBBF10001ABF1010BF4DC0A98D5
:103BC0002146DDE90D2300F008F806446D1C97E658
:103BD0000928010030BCBDE8C08F2DE9F041044642
:103BE00000251E461746880404D405E039462020E7
:103BF000B0476D1C641EF9D52846BDE8F0812DE95B
:103C0000F041044600251E469046C80301D53027E2
:103C100000E02027880404D505E041463846B04737
:103C20006D1C641EF9D52846BDE8F0810A68531C56
:103C30000B601070704700000D480078082816D2FD
:103C4000DFE800F0150406080A0C0E1009A10AE0CE
:103C500009A108E009A106E009A104E009A102E028
:103C600009A100E009A102480A30FCF7BBBA70477D
:103C7000360000204D4F4E00545545005745440036
:103C800054485500465249005341540053554E0084
:103C9000144840780D2823D2DFE800F02207090BF2
:103CA0000D0F11131517191B1D000FA114E00FA103
:103CB00012E00FA110E00FA10EE00FA10CE00FA188
:103CC0000AE00FA108E00FA106E00FA104E00FA198
:103CD00002E00FA100E00FA102481030FCF782BA09
:103CE00070470000360000204A414E004645420021
:103CF0004D415200415052004D4159004A554E002D
:103D00004A554C0041554700534550004F4354001D
:103D10004E4F560044454300FDF7F8F8FFF726FBE9
:103D20000020FDF709F9FCF7C5FA0020FCF7E8FAD6
:103D3000FFF764F8FFF7C4F8FFF7E2F80C4C002532
:103D400020780528FCD2DFE800F00306090C1000FB
:103D500000F006FAF4E700F04BF904E000F062FA34
:103D600001E000F08FF92570EAE700F003F8E7E7DB
:103D7000260000202DE9F047904C3C270726A0782C
:103D8000DFF83C824FF03B0904F11005072810D200
:103D9000DFE800F0041F405C799DC100FFF74CFF95
:103DA00086481A30FCF76EFA6078042802D005289D
:103DB00007D0D2E02878B0FBF6F106FB1100401CDA
:103DC00003E02878012802D0401E2870C3E02E703E
:103DD000C1E07A48AA78E2807AA11430FFF74EFD5C
:103DE00076481430FCF74EFA60781F21042802D080
:103DF000052807D0B1E0A878B0FBF1F201FB120072
:103E0000401C03E0A878012802D0401EA870A2E060
:103E1000A970A0E0FFF73CFF68482030FCF732FAB9
:103E200060780C21042802D0052807D095E0687836
:103E3000B0FBF1F201FB1200401C03E0687801289E
:103E400002D0401E687086E0697084E0EA785B48C2
:103E500002F2E47222815BA11430FFF70FFD574894
:103E60001430FCF70FFA6078042802D0052805D03A
:103E700073E0E87863286ED2401C02E0E87818B35B
:103E8000401EE87067E04D4898F80020E2814FA19D
:103E90001430FFF7F3FC49481430FCF7F3F960786D
:103EA000042802D0052809D057E098F8000018210E
:103EB000401CB0FBF1F201FB120003E098F8000097
:103EC00018B1401E88F8000045E01720FAE73B488B
:103ED00098F80120A28140A11430FFF7CFFC3748A9
:103EE0001430FCF7CFF96078042802D0052808D0F8
:103EF00033E098F80100401CB0FBF7F107FB11001C
:103F000003E098F8010018B1401E88F8010022E093
:103F100088F801901FE0294898F80220628131A1B9
:103F20001430FFF7ABFC25481430FCF7ABF9607890
:103F3000042802D0052808D00FE098F80200401CA1
:103F4000B0FBF7F107FB110003E098F8020068B13D
:103F5000401E88F80200FCF78FF9607800250128E0
:103F600017D0022805D0032825D10BE088F802904D
:103F7000F1E7A07820B1401EA070FCF77DF91AE0AF
:103F80000620F9E7A078401CB0FBF6F106FB110013
:103F9000F2E70B49002201F16000FEF745F90749FD
:103FA0000748002210316030FEF7EEF825704FF41C
:103FB000FA70FCF79DFA6570BDE8F08726000020D6
:103FC000A800002025303275000000002530327531
:103FD0007878787800000000787825303275787825
:103FE00000000000787878782530327500000000F5
:103FF00070B52148A0F110048178E180C07800F20A
:10400000E4702081FFF718FEFFF742FEFCF734F959
:1040100004F11A00FCF736F94FF47A752846FCF7DC
:1040200067FAE28815A104F11400FFF727FCFCF7FA
:1040300023F904F11400FCF725F92846FCF758FA97
:10404000FCF71AF904F12000FCF71CF92846FCF7EC
:104050004FFA228909A104F11400FFF70FFCFCF7C5
:104060000BF904F11400FCF70DF92846FCF740FAAF
:104070000020607070BD00003600002025303275D1
:1040800000000000F8B5304CA288A0212F48FEF7B0
:104090006DF96081A288A0212C48521CFEF766F9B8
:1040A000A081A288A0212948921CFEF75FF982B264
:1040B000E28160890090A38925A104F11400FFF733
:1040C000DDFBFCF7D9F804F11400FCF7DBF84FF442
:1040D0007A763046FCF70CFAA0880625C01CB0FBA7
:1040E000F5F105FB1100A080A288A0211748FEF77A
:1040F0003DF96081A288A0211448521CFEF736F9D0
:10410000A081A288A0211148921CFEF72FF982B24B
:10411000E28160890090A3890DA104F11400FFF7EA
:10412000ADFBFCF7A9F804F11400FCF7ABF830463E
:10413000FCF7DEF9A088C01CB0FBF5F105FB11000F
:10414000A08000206070F8BD26000020BC00002088
:10415000253032752530327525303275000000006B
:104160002DE9F041FCF770F82B4C002578B92B4E67
:1041700035604FF47A7704E03068B84201D9012005
:104180000EE0FCF761F80028F6D00220207060787D
:10419000022804D0032836D0052839D102E00320B4
:1041A000207035E0A2880023A0211D48FEF7F6F814
:1041B000A2880023A0211A48521CFEF7EFF8A2881B
:1041C0000023A0211648921CFEF7E8F8A0880621DB
:1041D000C01CB0FBF1F201FB1200A080A2880023FA
:1041E000A0210F48FEF7DAF8A2880023A0210C488E
:1041F000521CFEF7D3F8A2880023A0210848921C85
:10420000FEF7CCF804E0FCF737F804202070A57026
:104210006570BDE8F08100002600002054000020F9
:10422000BC00002010B5104CA0880621C01CB0FBBB
:10423000F1F201FB1200A0806389A288A0210B4843
:10424000FEF7ACF8A389A288A0210848521CFEF70B
:10425000A5F8E389A288A0210448921CFEF79EF8E5
:104260000020607010BD000026000020BC0000206F
:1042700004000001060708170900010002000400FD
:104280002000080000FE1467001D1447009D009CDC
:10429000003F00FA1400005341980019485A095A87
:1042A000005F00FC015F01FC00AF1404005BC0185C
:1042B000815AC9005800C005005F004200F5006740
:1042C00000EA00AF00BF004600FF00EF0000000062
:1042D000000000000102030406070809A08601008F
:1042E000400D0300801A060000350C0040420F000C
:1042F00080841E0000093D0000127A000024F400B2
:1043000000366E010048E801006CDC022C43000816
:10431000000000205C000000C4380008884300084A
:104320005C000020D4040000D4380008B80B000062
:10433000B80B0000000400480010004800000048CE
:10434000000000480000004800000048000000484D
:10435000000000000000000000000000000000005D
:10436000000000000000000000000000000000004D
:10437000000000000000000001000000100000002C
:084380000000000000093D00EF
:040000050800018965
:00000001FF
