:020000040800F2
:10000000B80400209D0100084B1D0008B71A000825
:10001000491D0008BD020008E3210008000000009F
:1000200000000000000000000000000001200008A7
:10003000C9030008000000004D1D0008032000084F
:10004000B7010008B7010008B7010008B7010008B0
:10005000B7010008B7010008CB030008D10300086E
:10006000D7030008DD030008B7010008B701000846
:10007000B7010008B7010008B7010008B701000880
:10008000B7010008B7010008B7010008B701000870
:10009000B7010008B7010008B7010008E303000832
:1000A000B7010008B7010008B7010008B701000850
:1000B000B7010008AD200008B7010008B70100082B
:1000C000B7010008B7010008B7010008B701000830
:1000D000B7010008B7010008B7010008B701000820
:1000E000B7010008B7010008B7010008B701000810
:1000F000B7010008B7010008B7010008B701000800
:10010000B7010008B7010008B7010008B7010008EF
:10011000B7010008B7010008B7010008B7010008DF
:10012000B7010008B7010008B7010008B7010008CF
:10013000B7010008B7010008B7010008B7010008BF
:10014000B7010008B7010008B7010008B7010008AF
:10015000B7010008B7010008B7010008B70100089F
:10016000B7010008B7010008B7010008B70100088F
:10017000B7010008B7010008B7010008000000003F
:10018000B7010008B7010008DFF80CD000F040F814
:100190000048004761290008B8040020064880474D
:1001A00006480047FEE7FEE7FEE7FEE7FEE7FEE75C
:1001B000FEE7FEE7FEE7FEE7692000088901000888
:1001C000D2B201E000F8012B491EFBD27047002299
:1001D000F6E710B513460A4604461946FFF7F0FF46
:1001E000204610BD30B50B460146002020220124D8
:1001F00009E021FA02F59D4205D303FA02F5491BF5
:1002000004FA02F52844151EA2F10102F1DC30BD0A
:10021000064C074D06E0E06840F0010394E8070053
:1002200098471034AC42F6D3FFF7B2FF442A0008D7
:10023000642A0008014800F0C3BA000068000020EA
:1002400070B50546002408E00022234611462846E2
:1002500001F0C8FF641CE4B26D1C287808B1052CBD
:10026000F2D9BDE87040014800F069BB6800002089
:10027000114810B50F49016000214FF47012C0E918
:1002800001120C22C2604FF4A05340228361C0E9E6
:100290000421C0E9071212024162C0E90A12016397
:1002A00001F00AFC044800F0C9FABDE81040024819
:1002B00000F086BA0024004068000020FEE700003D
:1002C00070B5002300781C46342817D00FDCA0F14D
:1002D0002005142D24D2DFE805F0352323232356EF
:1002E00023233B3D384E234B235111111111642818
:1002F00032D009DCA0F13505042D11D8304B03EBC9
:10030000400030F8603C1DE0B02839D004DC6D2896
:1003100025D06E2804D125E0B52826D0FF2835D079
:10032000274DA0F14106343D1A2E03D205EB4003C0
:1003300033F8823CA0F161061A2E03D205EB40008F
:1003400030F8C23C012924D025E04AF2DD03F9E768
:100350002823F7E71123F5E74FF47343F2E74BF255
:100360001023EFE742F21023ECE746F28403E9E7BB
:100370004FF42043E6E74AF21403E3E7C023E1E742
:100380004FF46C43DEE74FF43343DBE74FF6DD73A6
:10039000D8E743F00203012A01D143F020030949C1
:1003A0000C2000BF23FA00F202F00F0241F82420D3
:1003B000001F641CE4B2C0B2042CF3D370BD000073
:1003C000F0290008A40000207047012000F06EB85A
:1003D000022000F06BB8042000F068B8082000F09C
:1003E00065B8202000F062B810B5FFF723FFBDE824
:1003F000104001A0FFF724BF6572726F7200000009
:1004000070B5044600F096F90546601C02D0044819
:100410000078044400F08EF9401BA042FAD370BD6E
:100420000C00002070B504281DDA1E4A4FF00005AC
:100430004FF0010611784FF002044FF0030301283A
:1004400009D002280FD1A9B1012915D0022915D050
:10045000032915D015E039B1022907D0012907D0A9
:10046000032900D1167070BD147070BD157070BD79
:10047000137070BD167004E0157002E0137000E098
:100480001470094842F25D11C2688A4200D14910D5
:10049000C160054801F006F90028EAD0BDE87040C7
:1004A000FFF7A2BF000000201C000020044910B587
:1004B0000A68024202D00860FFF7B4FF10BD0000D6
:1004C000140401402DE9F04FDFF83492002309F1C4
:1004D000040A012403250AF1040B87B00F270BF14E
:1004E000040E04E104FA03F632407CD0D1F804C0D3
:1004F000BCF1010F08D0BCF1020F05D0BCF1110F07
:1005000002D0BCF1120F29D1D0F808C0CDF800C03C
:100510004FEA430C05FA0CF8CDF80CC0DDF800C02A
:100520002CEA080CCDF800C0D1F80C80DDF80CC026
:1005300008FA0CF8DDF800C048EA0C08C0F808809A
:10054000D0F8048091F804C028EA0608CCF3001C17
:100550000CFA03FC4CEA080CC0F804C0D1F8048083
:100560006FEA080C5FEA8C7C09D1D0F82CC02CEA29
:10057000060CC8F3C0069E4046EA0C06C662D0F8D8
:100580000CC04FEA430805FA08F62CEA060CCDF831
:10059000148002968E6806FA08F646EA0C06C660D3
:1005A0004E68022E01D0122E15D1DE0800EB860611
:1005B0000396366A4FEA437C4FEADC6807FA08FC88
:1005C00026EA0C06D1F810C00CFA08FC4CEA060C1E
:1005D000039EC6F820C00668DDF808C026EA0C06AF
:1005E00091F804C000E081E0DDF814800CF0030C09
:1005F0000CFA08FC4CEA060CC0F800C04E68F60085
:1006000074D5404ED6F860C04CF0010CC6F860C0FE
:10061000366E23F0030C06F0010600963A4E66444F
:100620000296D6F808C09E074FEA167807FA08F631
:100630002CEA060CB0F1904F04D0344EB04203D1F6
:1006400001261BE0002619E0314EB04201D10226FE
:1006500014E0304EB04201D103260FE02E4EB042DE
:1006600001D104260AE02D4EB04201D1052605E055
:100670002B4EB04201D1062600E0072606FA08F606
:1006800046EA0C06DDF808C0CCF80860D9F800602E
:10069000CC46D1F8048096435FEAC83800D51643AB
:1006A000CCF80060DAF80060D446D1F804809643B4
:1006B0005FEA883800D51643CCF80060DBF80060AC
:1006C000DC46D1F8048096435FEAC82800D516437B
:1006D000CCF80060DEF80060F446D1F80480964360
:1006E0005FEA882800D51643CCF800605B1C0A68D6
:1006F00032FA03F67FF4F6AE07B000F013B800004C
:1007000000040140001002400000014000040048C5
:1007100000080048000C0048001000480014004881
:100720000018004830BCBDE8C08F0AB18161704735
:100730008162704701488068704700000C0000200B
:100740000248816802781144816070470C000020E3
:10075000094810B50168002441F48071016003204C
:1007600000F09EF9002000F009F808B1012401E032
:1007700000F052F9204610BD0020024070B50E4E28
:1007800005460024307898B14FF47A71B1FBF0F04F
:100790000A490968B1FBF0F000F01EFF40B9102DC6
:1007A00006D200222946501E00F05AF9756000E07A
:1007B0000124204670BD00000C000020180000201D
:1007C0002DE9F041044690F835000121012801D0BF
:1007D000022830D194F8340001280CD0012084F88C
:1007E0003400022784F83570FFF7A4FF06464FF463
:1007F0007A7800250CE00220BDE8F081FFF79AFF2F
:10080000801B404504D9A76384F834500320F3E7E4
:1008100020688068C0434007F0D500205FF01401D5
:10082000226801EB8003D550401C0F28F8D92046E0
:1008300000F085F801460846DEE700002DE9F041AA
:10084000040004D094F83500002518B107E0012019
:10085000BDE8F08184F83450204600F06FF80220A3
:1008600084F835002068016821F001010160002052
:100870005FF01401226801EB8003D550401C0F2863
:10088000F8D92068816841F004018160D4E9010150
:100890000843D4E90A1211430843E1690843216A75
:1008A0000843A1690843616A084321684A68224BEA
:1008B0001A4010434860204601F082F90600C7D173
:1008C000D4E903010843226B61691143084321689D
:1008D0000A6822F0FE02104308602068016841F0B7
:1008E00001010160FFF726FF07464FF47A7806E022
:1008F000FFF720FFC01B404501D908200EE020680B
:100900008068C043C007F3D1FFF714FF074608E033
:10091000FFF710FFC01B404503D91020A063032040
:1009200096E720688068C043C006F1D4A563012023
:1009300084F8350030468BE70E0000FC70472DE947
:10094000F041044608202168C8602068816841F0B1
:1009500004018160FFF7EEFE054600264FF47A772A
:100960000BE0FFF7E7FE401BB84206D90420A06366
:1009700084F834600320BDE8F08120688068C043BB
:100980000007EED4012084F8350084F8346000209C
:10099000F1E700002DE9F047044690F835009A464B
:1009A00090468946012804D0022802D00120BDE8E3
:1009B000F08794F83500012822D194F834000128FA
:1009C0000BD0012084F83400022684F83560FFF74C
:1009D000B1FE05464FF47A770DE00220E7E700BF4D
:1009E000FFF7A8FE401BB84205D9A663002084F893
:1009F00034000320DBE720688068C0434007EFD560
:100A00001421226801EB8900115801EA080141EA2A
:100A10000A0111500020CAE7094808B5016E41F0EB
:100A200001010166016E01F001010091816D41F04B
:100A300080518165806D00F08050009008BD0000FD
:100A400000100240002809DB00F01F020121914044
:100A50004009800000F1E020C0F80011704700005C
:100A6000F0B40E4B1B680C46C3F30223C3F1070519
:100A7000042D00D90425191D072901D2002300E007
:100A8000DB1E012606FA05F1491E214099409E40D1
:100A9000761E16403143F0BC01F0E8BD0CED00E0DD
:100AA000064900F0070208684FF6FF03184040EAC5
:100AB0000220034A10430860704700000CED00E07C
:100AC0000000FA051649B0F5007F0868C0F3412020
:100AD00009D0022805D0086820F4C06040F4806086
:100AE0000860002070470128FBD0086820F4C0602F
:100AF00040F4007008600B483222006850430A4AF4
:100B0000B0FBF2F0401C00E0401E4A69520501D5DE
:100B10000028F9D148694005E3D50320704700005B
:100B2000007000401800002040420F00024800689A
:100B300000F4C06070470000007000402DE9F84FDD
:100B4000044600270088E54D3E46010504F1200BD0
:100B50001DD5606E78B1B0F5800F11D0B0F5000FE3
:100B600004D0B0F5400F22D001270FE0E86840F430
:100B70008030E8601BE00021201D01F0E9F803E06F
:100B80000021584601F07AF9070010D03E4620882F
:100B9000C00426D5A06EC0B1B0F1807F1AD0B0F1EC
:100BA000007F0DD0B0F1407F19D0012718E0D5F8B3
:100BB0008800616E20F440000843C5F88800E6E72D
:100BC000E86840F48030E86009E00021201D01F071
:100BD000BFF803E00021584601F050F90746F7B18D
:100BE0003E46206880033AD5A86D4FF00008C0004B
:100BF00009D4A86D40F08050A865A86D4FF0010899
:100C000000F080500090DFF8D8A2DAF8001041F42C
:100C10008071CAF80010FFF78DFD814610E0D5F80D
:100C20008800A16E20F040700843C5F88800D8E71E
:100C3000FFF780FDA0EB0900022801D9032705E09A
:100C4000DAF80000C005F3D5002F7CD04FEA070684
:100C5000B8F1000F03D0A86D20F08050A86520786F
:100C6000C00707D0D5F88800A16B20F00300084327
:100C7000C5F888002078800707D5D5F88800E16B93
:100C800020F00C000843C5F888002078400707D5FD
:100C9000D5F88800216C20F030000843C5F88800A2
:100CA0002078000707D5D5F88800616C20F0C000D7
:100CB0000843C5F888002078C00607D5D5F8880015
:100CC000A16C20F440700843C5F8880020788006A5
:100CD00007D5D5F88800E16C20F440600843C5F8DA
:100CE00088002088800507D5D5F88800E16D20F4BC
:100CF00040200843C5F888002088400507D5D5F86E
:100D00008800216E20F440100843C5F88800207840
:100D1000400607D5D5F88800216D20F440500843DF
:100D2000C5F888002078000607D5D5F88800616DE1
:100D300020F440400843C5F888002088C00509D544
:100D4000D5F8880000E01CE0A16D20F44030084395
:100D5000C5F8880020884FF0006780044FF0806855
:100D60004FD5D5F88800E16E20F040600843C5F803
:100D70008800E06EB8423CD1E86840F48010E8603A
:100D80003FE0D5F8900010F4407015D0D4F88410EE
:100D9000814211D0D5F89000D5F8901020F4407021
:100DA00041F48031C5F89010D5F8901021F48031CD
:100DB000C5F89010C5F89000C00710D0FFF7BAFC36
:100DC000074641F2883906E0FFF7B4FCC11B4945EC
:100DD00001D903263CE7D5F890008007F4D5D5F873
:100DE0009000D4F8841020F440700843C5F89000B7
:100DF0002EE7404505D10121201D00F0A9FF00B1DB
:100E000006462068000317D5D5F88800216F20F02A
:100E100040600843C5F88800206FB84204D1E868F4
:100E200040F48010E86007E0404505D10121201D15
:100E300000F08EFF00B106462068400317D5D5F8B4
:100E40008800616F20F040600843C5F88800606F3B
:100E5000B84204D1E86840F48010E86007E04045FB
:100E600005D10121201D00F073FF00B10646208846
:100E700040041AD5D5F88800A16F20F040500843EF
:100E8000C5F88800A06FB0F1805F03D0B0F1005FBB
:100E900005D00AE00221201D00F05AFF03E00221E4
:100EA000584600F0EBFF00B106462088000407D545
:100EB000D5F88800E16F20F080400843C5F888002D
:100EC0002068C00307D555F8880FD4F8801020F0AB
:100ED000004008432860304600F004B8001002408B
:100EE0000070004018BCBDE8E08F00002DE9F0471D
:100EF0000F46050058D0404E306800F00700B84259
:100F000009D2306820F0070038433060306800F0C4
:100F10000700B84248D12878384CC0072CD0686800
:100F2000032811D0022812D0216898B14905002960
:100F30003ADAA16821F003010143A160FFF7FAFB4F
:100F4000804641F2883910E021688901EFE7216885
:100F50008903ECE78907EAE7FFF7ECFBA0EB080160
:100F6000494502D90320BDE8F087A068696800F010
:100F70000C00B0EB810FEFD12878800705D5A06871
:100F8000A96820F0F0000843A060306800F0070076
:100F9000B8420BD9306820F0070038433060306821
:100FA00000F00700B84201D00120DCE728784007B4
:100FB00005D5A068E96820F4E0600843A0602878BF
:100FC000000706D5A068296920F4605040EAC100F6
:100FD000A06000F01BF8A168094AC1F30311515C3D
:100FE00001F01F01C8400749086007480068BDE8D4
:100FF000F047FFF7C3BB0000002002400010024092
:10100000042A0008180000201000002070B52549AF
:10101000002318468A68CC6812F00C0204F003061C
:10102000214C4FEA640509D00C2A05D0042A32D09D
:10103000082A00D1284670BD012E10D10B681B076D
:1010400004D4D1F89430C3F3032302E00B68C3F354
:101050000313164E56F82330DAB10C2AEBD1C868C8
:1010600000F00300022818D0032818D01846CA68D8
:10107000CB68C2F30212C3F306234343521CB3FBF3
:10108000F2F2C868C0F34160401C4000B2FBF0F0CF
:1010900070BD184670BD204670BD2046E7E7284663
:1010A000E5E70000001002400024F400142A0008C4
:1010B0002DE9F84304006FD0FE4DA86800F00C063F
:1010C000E86800F003072078C00664D576B10C2EDE
:1010D00001D1012F0AD0A069002828687AD040F0F9
:1010E00001002860FFF726FB80465DE02868800746
:1010F00002D5A0690028DED0216A2868000703D540
:10110000286800F0F00004E0D5F89400F02202EA2C
:101110001010814216D9084600F034FF00283BD158
:10112000286840F0080028602868216A20F0F00054
:10113000084328606868E16920F47F4040EA0120A4
:10114000686016E0286840F0080028602868216A76
:1011500020F0F000084328606868E16920F47F40CF
:1011600040EA0120686026B9206A00F00BFF0028E1
:10117000D5D1FFF74BFFA968CF4AC1F30311515CEA
:1011800001F01F01C840CD490860CD480068FFF755
:10119000F5FA00287ED12EE0CAE000BFFFF7CAFAB8
:1011A000A0EB0800022876D828688007F6D52868C2
:1011B00040F0080028602868216A20F0F000084309
:1011C00028606868E16920F47F4040EA0120686097
:1011D00011E0FFE720F001002860FFF7ABFA80463E
:1011E00006E000BFFFF7A6FAA0EB08000228DAD855
:1011F00028688007F6D42078C00740D0082E18D081
:101200000C2E01D1032F14D06068B0F5803F17D0A9
:10121000B0F5A02F286817D020F480302860286807
:1012200020F4802028606068E0B1FFF783FA8046F0
:1012300014E02868800322D56068002878D01EE07A
:10124000286840F48030EDE740F480202860F7E71C
:10125000FFF770FAA0EB08006428A4D82868800380
:10126000F6D50CE0FFF766FA804605E0FFF762FA74
:10127000A0EB0800642896D828688003F6D420786C
:1012800080073BD5042E11D00C2E01D1022F0DD09A
:10129000E06801E092E1F1E0002828681ED040F407
:1012A00080702860FFF746FA07460CE02868400582
:1012B0000CD5E0680028C1D008E000BFFFF73AFA7B
:1012C000C01B022893D828684005F7D56868217CA0
:1012D00020F0F85040EA016068600FE020F4807070
:1012E0002860FFF727FA074605E000BFFFF722FA5C
:1012F000C01B0228B1D828684005F7D42078000721
:1013000029D560690028D5F8940012D040F001007A
:10131000C5F89400FFF70EFA074604E0FFF70AFA53
:10132000C01B022899D8D5F894008007F6D512E0A2
:1013300000E120F00100C5F89400FFF7FBF9074633
:1013400005E000BFFFF7F6F9C01B022885D8D5F8E5
:1013500094008007F6D42078400766D5A86D002752
:10136000C00008D4A86D40F08050A865A86D012782
:1013700000F08050009053480168C90512D40168FC
:10138000814641F480710160FFF7D4F9804605E0A1
:10139000FFF7D0F9A0EB080002286FD8D9F80000B9
:1013A000C005F5D5A068012816D00528D5F890000D
:1013B00017D020F00100C5F89000D5F8900020F07B
:1013C000040000BFC5F89000A06841F28839C0B1A0
:1013D000FFF7B0F980460FE0D5F8900040F001002B
:1013E000F0E740F00400C5F89000F5E7FFF7A2F938
:1013F000A0EB0801494541D8D5F890008007F5D504
:101400000EE0FFF797F9804606E000BFFFF792F97C
:10141000A0EB0801494531D8D5F890008007F5D4F4
:101420001FB1A86D20F08050A865A06A38B30228CB
:101430000AD00C2E7ED0286820F0807028602868A2
:1014400010F0205F77D0AAE0E868E26A00F00301BC
:1014500091422BD1216B00F07002090110399142A9
:1014600024D1626B00F4FE41B1EB022F1ED1A26BBE
:1014700000F40031072A03D0012202E09DE089E058
:101480000022914212D1A18F00F4C00249084905FF
:10149000A1F50011914209D194F8401000F0C0600C
:1014A00049084906A1F1007181425CD00C2E41D05F
:1014B000286809E000100240042A000818000020F3
:1014C000100000200070004040017ED42868C00059
:1014D0007BD4286820F080702860FFF72BF906463F
:1014E00005E000BFFFF726F9801B022865D82868B1
:1014F0008001F7D4D4E90B016FF00F0202EB011168
:101500000843A18F5204490802EB4151626B41EA42
:101510000221084394F840104FF07E42490802EB44
:1015200041610843A16B090940EA4140E968284A42
:10153000114001E049E02EE00843E860286840F0EF
:1015400080702860E86840F08070E860FFF7F2F88B
:10155000044604E0FFF7EEF8001B02282DD82868A7
:101560008001F7D52FE0286880012CD4286840F04E
:1015700080702860E86840F08070E860FFF7DAF873
:10158000044604E0FFF7D6F8001B022815D82868A7
:101590008001F7D517E0E86820F00300E860E8680C
:1015A0000C490840E860FFF7C5F8044608E000BFB2
:1015B000FFF7C0F8001B022802D90320BDE8F8831A
:1015C00028688001F4D40020F8E70120F6E7000045
:1015D0008C809DF9FFFFEEFE10B5401EB0F1807FBC
:1015E00001D3012010BD4FF0E02460610F2160178E
:1015F00001F03CF80020A06107202061002010BD10
:101600007047704770470000F0B590F83C20012A01
:1016100039D0012480F83C40022280F83D20026845
:1016200053689568194E1A4FB24201D0BA4204D19C
:1016300023F4700C4B6843EA0C0323F0700C0B6826
:1016400043EA0C0353600268B24210D0B2F1804FFB
:101650000DD0104B9A420AD00F4B9A4207D00F4B35
:101660009A4204D0BA4202D00D4B9A4204D1896802
:1016700025F080031943916080F83D40002180F8F7
:101680003C100846F0BD0220F0BD0000002C0140D7
:10169000003401400004004000080040000C0040FD
:1016A0000040014010B5040003D094F83D0010B193
:1016B00007E0012010BD002084F83C00204600F027
:1016C00023F8022084F83D00211D206800F0F4FC7E
:1016D000012084F8480084F83E0084F83F0084F834
:1016E000400084F8410084F8420084F8430084F804
:1016F000440084F8450084F8460084F8470084F8E4
:101700003D00002010BD000008B500680B4988426C
:1017100012D10B48816D41F002018165806D00227C
:1017200000F00200009011461D20FFF799F9BDE876
:1017300008401D20FFF786B908BD000000040040E6
:101740000010024090F83D10012901D0012070479F
:10175000022180F83D100168CA6842F00102CA60A7
:1017600000681149884211D0B0F1804F0ED00F4966
:1017700088420BD00E49884208D00E49884205D0D5
:101780000D49884202D00D49884207D181680C4A30
:101790001140062906D0B1F5803F03D0016841F021
:1017A0000101016000207047002C0140000400404E
:1017B00000080040000C004000340140004001409F
:1017C0000700010070B5044690F83C00012817D0CE
:1017D000012584F83C50022084F83D00226890687E
:1017E0002E4B184020F47F4090600868502830D07D
:1017F0000DDC20284DD005DC98B310283BD148E003
:10180000022070BD302844D0402834D139E060280F
:1018100028D0702806D0B0F5805F2CD0B0F5005FDE
:1018200029D10AE0CB68D1E90121206800F0A4FCAD
:101830002068816841F0770109E0CB68D1E9012196
:10184000206800F099FC2068816841F48041816043
:1018500011E0CA684968206800F0A0FC50212068A7
:1018600007E016E0CA684968206800F0A8FC60211B
:10187000206800F08BFC84F83D50002084F83C0088
:1018800070BDCA684968206800F088FC4021206863
:10189000EFE7226801461046EBE7000088FFFEFFF5
:1018A000704770B50446006801694FF00005C943F0
:1018B000890715D4C168C943890711D4E91E01619C
:1018C00001202077206880698007204602D0FFF73A
:1018D000E7FF04E000F0A7F8204600F0A5F8257720
:1018E00020680169C943490717D4C168C94349073A
:1018F00013D46FF004010161022020772068806911
:1019000010F4407F204602D0FFF7CAFF04E000F049
:101910008AF8204600F088F8257720680169C943D5
:10192000090716D4C168C943090712D46FF008012A
:101930000161042020772068C0698007204602D01A
:10194000FFF7AEFF04E000F06EF8204600F06CF800
:10195000257720680169C943C90617D4C168C943FE
:10196000C90613D46FF010010161082020772068A8
:10197000C06910F4407F204602D0FFF791FF04E0D9
:1019800000F051F8204600F04FF8257720680169F3
:10199000C943C90708D1C168C943C90704D1891E11
:1019A0000161204600F042F820680169C943090638
:1019B00009D4C168C943090605D46FF080010161EB
:1019C0002046FFF71EFE20680169C943C90509D4F6
:1019D000C168C943090605D46FF4807101612046CE
:1019E000FFF70EFE20680169C943490609D4C168A2
:1019F000C943490605D46FF040010161204600F05B
:101A000059F820680169C94389060BD4C168C943E4
:101A1000890607D46FF0200101612046BDE87040BF
:101A2000FFF7F0BD70BD70477047000010B500684B
:101A30001D49884237D11D4C207830B1012809D08A
:101A400002280CD003281FD114E0A078401C00F01D
:101A500003000BE0A078401C00F0070011E0608854
:101A6000401E80B26080032801D90320608000F00E
:101A70002FFF09E06088401E80B26080072801D9EE
:101A80000720608000F0C4FE6288084808A1001D9D
:101A9000521C00F0D7FDFEF7CDFB0448BDE8104016
:101AA000001DFEF7CDBB10BD00040040000000206B
:101AB000257500007047FEE730B5B9B0142122A8A3
:101AC000FEF785FB442127A8FEF781FB88216846A5
:101AD000FEF77DFB364CA06D40F08050A065A06DF8
:101AE000002500F080503890042031952790012087
:101AF000299027A8FFF7DCFA00B1FEE74FF4003089
:101B00000090401221906846FFF718F8E06C40F012
:101B10000100E064E06C00F001003890E06C40F0FF
:101B20000200E064E06C00F002003890E06C40F0ED
:101B30000400E064E06C00F004003890E06C40F0D9
:101B40000800E064E06C22A900F00800389048F238
:101B5000C07022900220CDE92305032025900B20A0
:101B600026904FF09040FEF7ADFC4FF233202290CC
:101B700022A91048FEF7A6FC4FF4FC70229022A97F
:101B80000D48FEF79FFC4FF47F40229022A90B489E
:101B9000FEF798FC0220FEF733FCA06D40F40070C5
:101BA000A065A06D00F40070389039B030BD000021
:101BB000001002400004004800080048000C0048E3
:101BC00070B50446FEF7B6FD05464FF47A7608E098
:101BD000FEF7B0FD401BB04203D90120A0630320F3
:101BE00070BD20688068C0438006F1D4002070BDBD
:101BF0002DE9F04387B014216846FEF7E8FA314832
:101C0000C16C41F00101C164C16C01F00101059199
:101C1000C16C41F01001C164C06CDFF8AC9000F001
:101C200010004FF470470590002239464846FEF7F1
:101C30007CFD0125254E00240095CDE901644FF07F
:101C4000904869464046FEF73DFC2E20CDE900064F
:101C50000220029069464046FEF734FC0097CDE929
:101C60000154694648460394FEF72CFC00221146B5
:101C70000620FEF7F5FE0620FEF7E4FE00221146E0
:101C80000720FEF7EDFE0720FEF7DCFE00221146DE
:101C90000820FEF7E5FE0820FEF7D4FE00221146DC
:101CA0000920FEF7DDFE0920FEF7CCFE00221146DA
:101CB0001720FEF7D5FE1720FEF7C4FE07B0BDE8DB
:101CC000F0830000001002400010004800001110D6
:101CD00010B588B000241B4800940194029403942A
:101CE0000494059416490694016040F28F11C0E9EE
:101CF000011442F25D11C0E9031480218161FFF7F4
:101D0000D1FC08B1FEF770FB4FF48050009069469B
:101D10000C48FFF757FD08B1FEF766FB049404A9D1
:101D200008480694FFF770FC08B1FEF75DFB054814
:101D3000FFF708FD002801D0FEF756FB08B010BDE4
:101D4000000400401C000020FEE7704770470000C0
:101D50002DE9F041444C05468846E068002681079D
:101D600028680DD0E16801F00301814216D1A8B1C5
:101D7000E0686968C0F30210401C88420ED120E080
:101D8000012804D0022805D0032807D108E02168E3
:101D9000890701E021684905002907DB01265FE08A
:101DA0002168890302D421684903F5E7E1686A687C
:101DB0006FF00F0321F0730103EB02121143014393
:101DC000E160206820F080602060FEF7B3FC0746E9
:101DD00005E000BFFEF7AEFCC01B022837D8206824
:101DE0000001F7D4B8F1000F18D0B8F1010F1ED0E0
:101DF000287D4FF07E41400801EB4060A96840EA31
:101E000001202169194A114008432061206840F0EF
:101E100080602060FEF78EFC07461AE0A868E9683B
:101E20000002090940EA41402169114AEBE7288A8A
:101E30001049400801EB4050A96840EA012021699F
:101E40000D4AE0E7FEF776FCC01B022801D9032605
:101E500006E020680001F5D52069A96908432061E2
:101E60003046BDE8F081000000100240FF80FFF91D
:101E7000FF80FDFF0000E0FFFF809FFF2DE9F041A4
:101E80003D4C06468846E0680025810730680DD045
:101E9000E16801F00301814216D1A8B1E0687168E0
:101EA000C0F30210401C88420ED120E0012804D06B
:101EB000022805D0032807D108E02168890701E03E
:101EC00021684905002907DB012551E021688903C4
:101ED00002D421684903F5E7E16872686FF00F03E7
:101EE00021F0730103EB021211430143E16020680A
:101EF00020F080502060FEF71DFC074605E000BF83
:101F0000FEF718FCC01B022829D820688000F7D4EF
:101F1000B8F1000F15D0307C4FF07E41400801EB46
:101F20004060B16840EA01206169144A11400843E9
:101F30006061206840F080502060FEF7FBFB0746A0
:101F40000FE0B068F1680002090940EA41406169A8
:101F50000B4AEBE7FEF7EEFBC01B022801D9032575
:101F600006E020688000F5D560697169084360610A
:101F70002846BDE8F081000000100240FF80FFF914
:101F8000FF80FDFFF8B51C4D06460024A86DC0007B
:101F900002D5FEF7CBFD0DE0A86D40F08050A8659E
:101FA000A86D00F080500090FEF7C0FDA96D21F0F3
:101FB0008051A965B0F5007F04D0802E07D94FF07D
:101FC00003040AE0802E08D9A02E01D804E001D134
:101FD000022402E0702E00D101240848016821F09B
:101FE000070121430160006800F00700A04201D012
:101FF0000120F8BD0020F8BD001002400020024082
:102000007047FEF79DBB10B596B044216846FEF7B9
:10201000DEF8142111A8FEF7DAF810200090002451
:102020000120CDE90604602008900A946846FFF775
:102030003FF808B1FEF7D8F90F20CDE91104139449
:102040001494002111A81594FEF750FF08B1FEF773
:10205000CBF94FF40070FEF735FD002801D0FEF7F4
:10206000C3F916B010BD00000D48016841F47001BD
:1020700001600C48016841F00101016000218160AC
:102080000268094B1A4002608214C260026822F49E
:102090008022026081610249C00380390860704774
:1020A00088ED00E000100240FFFFF6EA0148FFF76C
:1020B000F8BB00001C0000202DE9F0470268264B09
:1020C000264D274E274F284C4FF0804A984209D082
:1020D000504507D0A84205D0B04203D0B84201D045
:1020E000A04204D122F0700C4A6842EA0C02DFF8E8
:1020F0007CC0DFF87C80DFF87C9098420FD05045A0
:102100000DD0A8420BD0B04209D0B84207D0A042AF
:1021100005D0604503D0404501D0484503D122F4A5
:102120004075CA682A434D6922F080022A43026042
:102130008A68C2620A688262984207D0A04205D0CB
:10214000604503D0404501D0484501D1096901638C
:1021500001214161BDE8F087002C014000040040EE
:1021600000080040000C00400034014000400140E5
:10217000004401400048014010B5846842EA03224F
:1021800024F47F440A432243826010BD826822F017
:1021900070020A4342F007018160704710B5036A7C
:1021A000046A24F001040462846924F0F00444EA1F
:1021B000021423F00A020A438461026210BD10B5C2
:1021C000036A23F0100303628369046A23F47043F3
:1021D00043EA023224F0A00343EA01118261016262
:1021E00010BDFEE72DE9F0411D46FEF769F8FE4CF3
:1021F000062D7DD2DFE805F0034FA3F6F4F3207837
:10220000FA4DC107C90E00F0020241EA825100F006
:10221000040241EA025300F008000343F2482A4650
:1022200000213C38FEF7B6FB2079C107C90E00F04B
:10223000020241EA825100F0040241EA025300F036
:1022400008000343E8482A4602213C38FEF7A2FB77
:10225000207AC107C90E00F0020241EA825100F063
:10226000040241EA025300F008000343DE482A4614
:1022700004213C38FEF78EFB207BC107C90E00F01D
:10228000020241EA825100F0040241EA025300F0E6
:102290000800034350E02078D54DC107490E00F0F7
:1022A000020241EA023100F0040241EA822100F018
:1022B000080041EA8003CC482A4600213C38FEF75A
:1022C00069FB2079C107490E00F0020241EA0231A0
:1022D00000F0040241EA822100F0080041EA800394
:1022E000C1482A4602213C38FEF754FB207A00E020
:1022F000A3E1C107490E00F0020241EA023100F0F9
:10230000040241EA822100F0080041EA8003B64855
:102310002A4604213C38FEF73DFB207BC107490ECD
:1023200000F0020241EA023100F0040241EA822197
:1023300000F0080041EA80032A4606211DE12078CA
:10234000AC4DC107090C00F0020241EA027100F035
:10235000040241EA826100F0080041EAC023A24879
:102360002A4600213C38FEF715FB2079C107090CED
:1023700000F0020241EA027100F0040241EA8261C7
:1023800000F0080041EAC02397482A4602213C3861
:10239000FEF700FB207AC107090C00F0020241EAB7
:1023A000027100F0040241EA826100F0080041EA93
:1023B000C0238D482A4604213C38FEF7EBFA207BE7
:1023C000C107090C00F0020241EA027100F00402A8
:1023D00041EA826100F0080041EAC023ACE7D2E0A4
:1023E0005FE0FFE720786FF04045C10700F008008C
:1023F00041EAC0637C482A4600213C38FEF7CAFA0D
:102400002078AE0000F00203C0F38000034376485A
:10241000324601213C38FEF7BDFA20792A46C10731
:1024200000F0080041EAC0636F4802213C38FEF723
:10243000B1FA2079324600F00203C0F38000034372
:10244000694803213C38FEF7A5FA207A2A46C107DD
:1024500000F0080041EAC063634804213C38FEF7FD
:1024600099FA207A324600F00203C0F38000034359
:102470005D4805213C38FEF78DFA207B2A46C107CE
:1024800000F0080041EAC063574806213C38FEF7D7
:1024900081FA207B324600F00203C0F38000034340
:1024A0006AE020786FF0407600F00201090600F043
:1024B000040041EA80534C48324600213C38FEF784
:1024C00069FA2068042505EA500100F0010041EA9C
:1024D000C0034548B7153A4601213C38FEF75AFA81
:1024E0002079324600F00201090600F0040041EABA
:1024F00080533D4802213C38FEF74CFA60683A466A
:1025000005EA500100F0010041EAC003364803210A
:102510003C38FEF73FFA207A324600F00201090605
:1025200000F0040041EA80532F4804213C38FEF7B4
:1025300031FAA0683A4605EA500100F0010041EA8C
:10254000C003294805213C38FEF724FA207B324697
:1025500000F00201090600F0040041EA805322481D
:1025600006213C38FEF716FAE0683A4605EA5001C3
:1025700000F0010041EAC0030721BDE8F0411A481C
:102580003C38FEF707BA20781B4DC107890B00F0D5
:10259000020241EAC21100F0040241EAC21100F055
:1025A000080041EAC05310482A4600213C38FEF793
:1025B000F1F92079C107890B00F0020241EAC2114A
:1025C00000F0040241EAC21100F0080041EAC053E1
:1025D00005482A4602213C38FEF7DCF9207AC1077B
:1025E000890B00F0020209E0A4000020E7FF3FFF92
:1025F0009FCFFFFFFF3FFFCFFFFCFDFB41EAC21172
:1026000000F0040241EAC21100F0080041EAC053A0
:102610002A4604210A48FEF7BDF9207BC107890B31
:1026200000F0020241EAC21100F0040241EAC211C4
:1026300000F0080041EAC0537EE6BDE8F0810000EA
:10264000680000200FB4084B10B504A902AA039833
:1026500000F02CF8044602A9002000F0D4F820462F
:1026600010BC5DF814FB0000072800080907090EDC
:10267000002804DB00F1E02080F80014704700F02F
:102680000F0000F1E02080F8141D704702E008C838
:10269000121F08C1002AFAD170477047002001E0DC
:1026A00001C1121F002AFBD1704700002DE9FF4F26
:1026B00089B09B460446002506E025280BD05A46E3
:1026C0000B999047641C6D1C20780028F5D10DB043
:1026D000284600F095B80027B8460122474900E097
:1026E000074314F8013F203B02FA03F00842F7D1F8
:1026F00020782E2819D114F8010F47F004072A2852
:102700000ED06FF02F022078A0F1300109290CD8EB
:1027100008EB880102EB410100EB0108641CF2E7C1
:102720000A98641C50F8048B0A9020780028CED0B8
:10273000642808D0692806D075281ED05A460B99FF
:1027400090476D1C58E00A994FF00A0901C90A9197
:10275000002802DA40422D2102E0390504D52B2160
:102760008DF82010012103E0F90704D02021F7E7BC
:102770008A4608AE0DE00021FAE70A994FF00A09EF
:1027800001C90A91F7E74946FDF72CFD303106F8FB
:10279000011D0028F7D1ADEB060000F120097807F4
:1027A00001D44FF00108C84502DDA8EB090000E0A4
:1027B00000208046002706E008A85A46C05D0B9915
:1027C00090476D1C7F1C5745F6DB04E030205A46CD
:1027D0000B9990476D1CB8F10001A8F10108F5DCD8
:1027E00005E016F8010B5A460B9990476D1CB9F19C
:1027F0000001A9F10109F4DC641C65E70928010066
:1028000030BCBDE8C08F0A68531C0B601070704765
:102810002DE9F0412C484FF480512C4C40884D005C
:102820008E00CF0008284CD2DFE800F00406121416
:10283000292F3A4001223AE001222046FDF775FF98
:10284000002227E031462046FDF76FFF002210E00E
:10285000012200E000222046FDF767FF0022294602
:102860002046FDF762FF002231462046FDF75DFF5E
:10287000012239462046BDE8F041FDF756BF00224F
:102880002046FDF752FF0122E9E700222046FDF72E
:102890004CFF012229462046FDF747FF0022D1E7E1
:1028A00000222046FDF741FF012204E000222046DD
:1028B000FDF73BFF002229462046FDF736FF0122A7
:1028C000C0E7BDE8F08100000000002000100048D3
:1028D0002DE9F04120484FF48051204C40884D00B4
:1028E0008E00CF00D0B101281ED0022822D00328AC
:1028F00030D100222046FDF718FF0122294620464C
:10290000FDF713FF012231462046FDF70EFF00229E
:1029100039462046BDE8F041FDF707BF01222046B9
:10292000FDF703FF0022E9E701222046FDF7FDFE47
:10293000002204E000222046FDF7F7FE012229468E
:102940002046FDF7F2FE002231462046FDF7EDFE5F
:102950000122DDE7BDE8F081000000200010004802
:10296000FDF7F6FEFFF74FFBFFF742F9FFF7B0F96F
:10297000FDF77EFC0F4800210F4C017003214180C0
:1029800000224FF480512046FDF7CFFE00224FF485
:1029900000512046FDF7C9FE00224FF48041204639
:1029A000FDF7C3FE00224FF400412046FDF7BDFEB7
:1029B000FEE70000000000200010004800FE146741
:1029C000001D1447009D009C003F00FA14000053B6
:1029D00041980019485A095A005F00FC015F01FC48
:1029E00000AF1404005BC018815AC9005800C0052C
:1029F000005F004200F5006700EA00AF00BF00463C
:102A000000FF00EF000000000000000001020304CE
:102A100006070809A0860100400D0300801A060081
:102A200000350C0040420F0080841E0000093D006C
:102A300000127A000024F40000366E010048E8011C
:102A4000006CDC02642A0008000000201C0000006A
:102A50008C260008802A00081C0000209C0400002E
:102A60009C2600080000000000000000000000009C
:102A700001000000100000000000000000093D00FF
:040000050800018965
:00000001FF
