:020000040800F2
:10000000800500209D010008EB210008EF1E00087C
:10001000E9210008B1040008B3290008000000002D
:10002000000000000000000000000000A124000803
:10003000BD05000800000000ED210008A324000811
:10004000B7010008B7010008B7010008B7010008B0
:10005000B7010008B7010008BF050008C505000882
:10006000CB050008D1050008B7010008B70100085A
:10007000B7010008B7010008B7010008B701000880
:10008000B7010008B7010008B7010008B701000870
:10009000B7010008B7010008B7010008D70500083C
:1000A000B7010008B7010008B7010008B701000850
:1000B000392500084525000851250008B70100082A
:1000C000B7010008B7010008B7010008B701000830
:1000D000B7010008B7010008B7010008B701000820
:1000E000B7010008B7010008B7010008B701000810
:1000F000B7010008B7010008B7010008B701000800
:10010000B7010008B7010008B7010008B7010008EF
:10011000B7010008B7010008B7010008B7010008DF
:10012000B7010008B7010008B7010008B7010008CF
:10013000B7010008B7010008B7010008B7010008BF
:10014000B7010008B7010008B7010008B7010008AF
:10015000B7010008B7010008B7010008B70100089F
:10016000B7010008B7010008B7010008B70100088F
:10017000B7010008B7010008B7010008000000003F
:10018000B7010008B7010008DFF80CD000F02AF82A
:1001900000480047552E000880050020064880478B
:1001A00006480047FEE7FEE7FEE7FEE7FEE7FEE75C
:1001B000FEE7FEE7FEE7FEE7F524000889010008F8
:1001C000D2B201E000F8012B491EFBD27047002299
:1001D000F6E710B513460A4604461946FFF7F0FF46
:1001E000204610BD064C074D06E0E06840F00103D4
:1001F00094E8070098471034AC42F6D3FFF7C8FFE5
:100200004C2F00086C2F00082DE9F04F002487B018
:100210000646254DDFF894A003274FF00209DFF8CA
:10022000908012E08CB1032C0FD0012C0DD0022C49
:100230000BD0042C09D000BF38F81400CDE9029788
:1002400000905EB1012E11D025E0E86C40F0010075
:10025000E864E86C00F001000590EDE700200190F3
:100260005AF82400694600F01FFA14E01148019082
:100270005AF82400694600F017FADFF834B000227B
:10028000ABF1060B0F211BF9040000F0E3FC1BF996
:10029000040000F0D1FC641CE4B2052CC2D307B00A
:1002A000002000F009B800000010024034000020D7
:1002B000FA2E00080000211030BCBDE8C08F0000FD
:1002C000014800F077BB00003001002070B5054602
:1002D000002408E0002223461146284602F06AFB6B
:1002E000641CE4B26D1C287808B1052CF2D9BDE875
:1002F0007040014800F01DBC30010020114810B5CD
:100300000F49016000214FF47012C0E901120C2264
:10031000C2604FF4A05340228361C0E90421C0E9C8
:10032000071212024162C0E90A12016301F0E0FD06
:10033000044800F07DFBBDE81040024800F03ABBE5
:1003400000240040300100202DE9FC5F0025324FE1
:100350000095019593468946AA463D7000284DD0E8
:10036000014602E06D1CEDB2491C0A78002AF9D161
:1003700004466846FFF7AAFF584600F02FF900260A
:1003800047E0002041E0411CB1FBF5F2884605FB47
:100390001211615C8DF80010811CB1FBF5F205FBB8
:1003A0001211615C8DF80110C11CB1FBF5F205FB67
:1003B0001211615C8DF80210011DB1FBF5F205FB15
:1003C0001211615C8DF80310411DB1FBF5F205FBC4
:1003D0001211801D615C8DF80410B0FBF5F105FB76
:1003E0001100205C8DF805000C4800F0E3FA684627
:1003F000FFF76CFF387818B187F800A000F010B84C
:10040000584600F0EBF808F0FF00A842BBD3761C7A
:10041000F6B24E45B5D3F1E7480000203001002088
:100420003CBCBDE8C09F000030B50400174887B051
:1004300002D0012C08D00FE0C16C41F00201C16470
:10044000C06C00F0020006E0C16C41F01001C16414
:10045000C06C00F0100005900D480E4D694630F854
:1004600014000090012001900020029003200390CE
:1004700055F8240000F018F90098002281B255F8D0
:10048000240000F04CFA07B030BD0000001002401C
:10049000F02E00082C0000200349044A31F8101007
:1004A00052F8200000F033BAF02E00082C00002093
:1004B000FEE7000070B5002300781C46342817D0F2
:1004C0000FDCA0F12005142D24D2DFE805F0352340
:1004D0002323235623233B3D384E234B2351111115
:1004E0001111642832D009DCA0F13505042D11D892
:1004F000304B03EB400030F8603C1DE0B02839D0B1
:1005000004DC6D2825D06E2804D125E0B52826D03E
:10051000FF2835D0274DA0F14106343D1A2E03D2D5
:1005200005EB400333F8823CA0F161061A2E03D29A
:1005300005EB400030F8C23C012924D025E04AF206
:10054000DD03F9E72823F7E71123F5E74FF47343B9
:10055000F2E74BF21023EFE742F21023ECE746F20A
:100560008403E9E74FF42043E6E74AF21403E3E7A4
:10057000C023E1E74FF46C43DEE74FF43343DBE79E
:100580004FF6DD73D8E743F00203012A01D143F0AF
:10059000200309490C2000BF23FA00F202F00F02E9
:1005A00041F82420001F641CE4B2C0B2042CF3D331
:1005B00070BD0000382F00086C010020704701203A
:1005C00000F066B8022000F063B8042000F060B8C4
:1005D000082000F05DB8202000F05AB870B504463D
:1005E00000F0A2F90546601C02D0044800780444DB
:1005F00000F09AF9401BA042FAD370BD1800002009
:1006000010B504281FD007DC012810D0022822D101
:10061000FFF756FE10A006E0082818D020281AD1AF
:10062000FFF74EFE0EA0BDE81040FFF74FBE0E498B
:1006300001200861FFF744FEC822BDE810400121F7
:100640000AA0FFF781BEFFF73BFE0EA0EBE7FFF726
:1006500037FE0EA0E7E710BD4C45465400000000F1
:10066000444F574E00000000000000204D5433540A
:100670004134204C414220312050524F4A4543548E
:100680002000000052494748540000005550000027
:10069000044910B50A68024202D00860FFF7B0FFB3
:1006A00010BD0000140401402DE9F04FDFF8349232
:1006B000002309F1040A012403250AF1040B87B081
:1006C0000F270BF1040E04E104FA03F632407CD04C
:1006D000D1F804C0BCF1010F08D0BCF1020F05D065
:1006E000BCF1110F02D0BCF1120F29D1D0F808C013
:1006F000CDF800C04FEA430C05FA0CF8CDF80CC059
:10070000DDF800C02CEA080CCDF800C0D1F80C8050
:10071000DDF80CC008FA0CF8DDF800C048EA0C0857
:10072000C0F80880D0F8048091F804C028EA0608D0
:10073000CCF3001C0CFA03FC4CEA080CC0F804C013
:10074000D1F804806FEA080C5FEA8C7C09D1D0F8FC
:100750002CC02CEA060CC8F3C0069E4046EA0C06E4
:10076000C662D0F80CC04FEA430805FA08F62CEA36
:10077000060CCDF8148002968E6806FA08F646EA52
:100780000C06C6604E68022E01D0122E15D1DE086E
:1007900000EB86060396366A4FEA437C4FEADC6834
:1007A00007FA08FC26EA0C06D1F810C00CFA08FC7F
:1007B0004CEA060C039EC6F820C00668DDF808C0A7
:1007C00026EA0C0691F804C000E081E0DDF8148010
:1007D0000CF0030C0CFA08FC4CEA060CC0F800C044
:1007E0004E68F60074D5404ED6F860C04CF0010C4F
:1007F000C6F860C0366E23F0030C06F001060096C2
:100800003A4E66440296D6F808C09E074FEA16781C
:1008100007FA08F62CEA060CB0F1904F04D0344EDB
:10082000B04203D101261BE0002619E0314EB04250
:1008300001D1022614E0304EB04201D103260FE070
:100840002E4EB04201D104260AE02D4EB04201D115
:10085000052605E02B4EB04201D1062600E0072612
:1008600006FA08F646EA0C06DDF808C0CCF808607F
:10087000D9F80060CC46D1F8048096435FEAC838C6
:1008800000D51643CCF80060DAF80060D446D1F801
:10089000048096435FEA883800D51643CCF80060A0
:1008A000DBF80060DC46D1F8048096435FEAC82894
:1008B00000D51643CCF80060DEF80060F446D1F8AD
:1008C000048096435FEA882800D51643CCF8006080
:1008D0005B1C0A6832FA03F67FF4F6AE07B000F04C
:1008E00013B8000000040140001002400000014065
:1008F0000004004800080048000C004800100048B0
:10090000001400480018004830BCBDE8C08F4269A0
:1009100021EA02030A4043EA0241816170470AB1B9
:1009200081617047816270470148806870470000AC
:1009300018000020024881680278114481607047E5
:1009400018000020094810B50168002441F48071A6
:100950000160032000F09EF9002000F009F808B1C2
:10096000012401E000F052F9204610BD00200240B1
:1009700070B50E4E05460024307898B14FF47A7168
:10098000B1FBF0F00A490968B1FBF0F000F01EFF7E
:1009900040B9102D06D200222946501E00F05AF907
:1009A000756000E00124204670BD000018000020A2
:1009B000140000202DE9F041044690F83500012193
:1009C000012801D0022830D194F8340001280CD03D
:1009D000012084F83400022784F83570FFF7A4FF63
:1009E00006464FF47A7800250CE00220BDE8F0813D
:1009F000FFF79AFF801B404504D9A76384F8345061
:100A00000320F3E720688068C0434007F0D500204A
:100A10005FF01401226801EB8003D550401C0F28C1
:100A2000F8D9204600F085F801460846DEE70000C8
:100A30002DE9F041040004D094F83500002518B1E8
:100A400007E00120BDE8F08184F83450204600F032
:100A50006FF8022084F835002068016821F0010158
:100A6000016000205FF01401226801EB8003D55083
:100A7000401C0F28F8D92068816841F0040181608A
:100A8000D4E901010843D4E90A1211430843E1699A
:100A90000843216A0843A1690843616A0843216841
:100AA0004A68224B1A4010434860204601F0A4FADD
:100AB0000600C7D1D4E903010843226B61691143E1
:100AC000084321680A6822F0FE021043086020688B
:100AD000016841F001010160FFF726FF07464FF46E
:100AE0007A7806E0FFF720FFC01B404501D90820B7
:100AF0000EE020688068C043C007F3D1FFF714FF01
:100B0000074608E0FFF710FFC01B404503D910203F
:100B1000A063032096E720688068C043C006F1D434
:100B2000A563012084F8350030468BE70E0000FCF9
:100B300070472DE9F041044608202168C86020680C
:100B4000816841F004018160FFF7EEFE0546002652
:100B50004FF47A770BE0FFF7E7FE401BB84206D967
:100B60000420A06384F834600320BDE8F08120688D
:100B70008068C0430007EED4012084F8350084F873
:100B800034600020F1E700002DE9F047044690F8BA
:100B900035009A4690468946012804D0022802D0A2
:100BA0000120BDE8F08794F83500012822D194F89F
:100BB000340001280BD0012084F83400022684F888
:100BC0003560FFF7B1FE05464FF47A770DE002205D
:100BD000E7E700BFFFF7A8FE401BB84205D9A663B0
:100BE000002084F834000320DBE720688068C043DD
:100BF0004007EFD51421226801EB8900115801EA62
:100C0000080141EA0A0111500020CAE7094808B565
:100C1000016E41F001010166016E01F001010091D8
:100C2000816D41F080518165806D00F080500090B1
:100C300008BD000000100240002809DB00F01F0280
:100C4000012191404009800000F1E020C0F800112E
:100C500070470000F0B40E4B1B680C46C3F3022330
:100C6000C3F10705042D00D90425191D072901D258
:100C7000002300E0DB1E012606FA05F1491E214093
:100C800099409E40761E16403143F0BC02F0C2B837
:100C90000CED00E0064900F0070208684FF6FF037C
:100CA000184040EA0220034A1043086070470000E1
:100CB0000CED00E00000FA051649B0F5007F086869
:100CC000C0F3412009D0022805D0086820F4C06094
:100CD00040F480600860002070470128FBD008685D
:100CE00020F4C06040F4007008600B4832220068B5
:100CF00050430A4AB0FBF2F0401C00E0401E4A6933
:100D0000520501D50028F9D148694005E3D50320F3
:100D100070470000007000401400002040420F00A7
:100D20000248006800F4C060704700000070004096
:100D30002DE9F84F044600270088E54D3E460105A1
:100D400004F1200B1DD5606E78B1B0F5800F11D085
:100D5000B0F5000F04D0B0F5400F22D001270FE00E
:100D6000E86840F48030E8601BE00021201D01F0BD
:100D70003FFA03E00021584601F0D0FA070010D0F6
:100D80003E462088C00426D5A06EC0B1B0F1807F59
:100D90001AD0B0F1007F0DD0B0F1407F19D00127FB
:100DA00018E0D5F88800616E20F440000843C5F8CB
:100DB0008800E6E7E86840F48030E86009E0002158
:100DC000201D01F015FA03E00021584601F0A6FAB3
:100DD0000746F7B13E46206880033AD5A86D4FF02C
:100DE0000008C00009D4A86D40F08050A865A86D27
:100DF0004FF0010800F080500090DFF8D8A2DAF838
:100E0000001041F48071CAF80010FFF78DFD814693
:100E100010E0D5F88800A16E20F040700843C5F8B6
:100E20008800D8E7FFF780FDA0EB0900022801D970
:100E3000032705E0DAF80000C005F3D5002F7CD0C9
:100E40004FEA0706B8F1000F03D0A86D20F08050DC
:100E5000A8652078C00707D0D5F88800A16B20F0DE
:100E600003000843C5F888002078800707D5D5F827
:100E70008800E16B20F00C000843C5F8880020785A
:100E8000400707D5D5F88800216C20F030000843D2
:100E9000C5F888002078000707D5D5F88800616C70
:100EA00020F0C0000843C5F888002078C00607D5A8
:100EB000D5F88800A16C20F440700843C5F888007C
:100EC0002078800607D5D5F88800E16C20F44060D2
:100ED0000843C5F888002088800507D5D5F8880024
:100EE000E16D20F440200843C5F8880020884005C3
:100EF00007D5D5F88800216E20F440100843C5F8C6
:100F000088002078400607D5D5F88800216D20F4A8
:100F100040500843C5F888002078000607D5D5F86A
:100F20008800616D20F440400843C5F8880020889F
:100F3000C00509D5D5F8880000E01CE0A16D20F4BB
:100F400040300843C5F8880020884FF000678004CF
:100F50004FF080684FD5D5F88800E16E20F04060F2
:100F60000843C5F88800E06EB8423CD1E86840F418
:100F70008010E8603FE0D5F8900010F4407015D084
:100F8000D4F88410814211D0D5F89000D5F8901093
:100F900020F4407041F48031C5F89010D5F89010DD
:100FA00021F48031C5F89010C5F89000C00710D02A
:100FB000FFF7BAFC074641F2883906E0FFF7B4FCB8
:100FC000C11B494501D903263CE7D5F890008007AD
:100FD000F4D5D5F89000D4F8841020F4407008437C
:100FE000C5F890002EE7404505D10121201D01F0F4
:100FF000FFF800B106462068000317D5D5F8880031
:10100000216F20F040600843C5F88800206FB84287
:1010100004D1E86840F48010E86007E0404505D15D
:101020000121201D01F0E4F800B1064620684003CC
:1010300017D5D5F88800616F20F040600843C5F8E7
:101040008800606FB84204D1E86840F48010E8601E
:1010500007E0404505D10121201D01F0C9F800B18C
:101060000646208840041AD5D5F88800A16F20F0E4
:1010700040500843C5F88800A06FB0F1805F03D0EE
:10108000B0F1005F05D00AE00221201D01F0B0F8A8
:1010900003E00221584601F041F900B106462088DC
:1010A000000407D5D5F88800E16F20F080400843A0
:1010B000C5F888002068C00307D555F8880FD4F814
:1010C000801020F0004008432860304600F004B84B
:1010D000001002400070004018BCBDE8E08F000026
:1010E0002DE9F0470F46050058D0404E306800F01B
:1010F0000700B84209D2306820F00700384330605A
:10110000306800F00700B84248D12878384CC00752
:101110002CD06868032811D0022812D0216898B119
:10112000490500293ADAA16821F003010143A160D1
:10113000FFF7FAFB804641F2883910E02168890107
:10114000EFE721688903ECE78907EAE7FFF7ECFBA3
:10115000A0EB0801494502D90320BDE8F087A0684B
:10116000696800F00C00B0EB810FEFD128788007A0
:1011700005D5A068A96820F0F0000843A060306899
:1011800000F00700B8420BD9306820F00700384360
:101190003060306800F00700B84201D00120DCE781
:1011A0002878400705D5A068E96820F4E060084386
:1011B000A0602878000706D5A068296920F460504F
:1011C00040EAC100A06000F01BF8A168094AC1F321
:1011D0000311515C01F01F01C8400749086007482E
:1011E0000068BDE8F047FFF7C3BB000000200240E5
:1011F00000100240B02E0008140000201C00002047
:1012000070B52549002318468A68CC6812F00C0294
:1012100004F00306214C4FEA640509D00C2A05D0DE
:10122000042A32D0082A00D1284670BD012E10D1E0
:101230000B681B0704D4D1F89430C3F3032302E0F6
:101240000B68C3F30313164E56F82330DAB10C2A99
:10125000EBD1C86800F00300022818D0032818D08A
:101260001846CA68CB68C2F30212C3F3062343438D
:10127000521CB3FBF2F2C868C0F34160401C40004E
:10128000B2FBF0F070BD184670BD204670BD204620
:10129000E7E72846E5E70000001002400024F400DC
:1012A000C02E00082DE9F84304006FD0FE4DA86859
:1012B00000F00C06E86800F003072078C00664D54B
:1012C00076B10C2E01D1012F0AD0A0690028286820
:1012D0007AD040F001002860FFF726FB80465DE0F1
:1012E0002868800702D5A0690028DED0216A286816
:1012F000000703D5286800F0F00004E0D5F894005A
:10130000F02202EA1010814216D9084601F08AF84C
:1013100000283BD1286840F0080028602868216A2E
:1013200020F0F000084328606868E16920F47F40FD
:1013300040EA0120686016E0286840F00800286054
:101340002868216A20F0F000084328606868E16995
:1013500020F47F4040EA0120686026B9206A01F04D
:1013600061F80028D5D1FFF74BFFA968CF4AC1F338
:101370000311515C01F01F01C840CD490860CD4800
:101380000068FFF7F5FA00287ED12EE0CAE000BF22
:10139000FFF7CAFAA0EB0800022876D82868800771
:1013A000F6D5286840F0080028602868216A20F0F7
:1013B000F000084328606868E16920F47F4040EA53
:1013C0000120686011E0FFE720F001002860FFF7CE
:1013D000ABFA804606E000BFFFF7A6FAA0EB0800D4
:1013E0000228DAD828688007F6D42078C00740D0D1
:1013F000082E18D00C2E01D1032F14D06068B0F540
:10140000803F17D0B0F5A02F286817D020F4803087
:101410002860286820F4802028606068E0B1FFF729
:1014200083FA804614E02868800322D5606800288B
:1014300078D01EE0286840F48030EDE740F480204A
:101440002860F7E7FFF770FAA0EB08006428A4D83B
:1014500028688003F6D50CE0FFF766FA804605E0C1
:10146000FFF762FAA0EB0800642896D8286880038A
:10147000F6D4207880073BD5042E11D00C2E01D154
:10148000022F0DD0E06801E092E1F1E00028286829
:101490001ED040F480702860FFF746FA07460CE043
:1014A000286840050CD5E0680028C1D008E000BFDE
:1014B000FFF73AFAC01B022893D828684005F7D5F1
:1014C0006868217C20F0F85040EA016068600FE015
:1014D00020F480702860FFF727FA074605E000BF78
:1014E000FFF722FAC01B0228B1D828684005F7D4BC
:1014F0002078000729D560690028D5F8940012D01B
:1015000040F00100C5F89400FFF70EFA074604E02A
:10151000FFF70AFAC01B022899D8D5F89400800773
:10152000F6D512E000E120F00100C5F89400FFF7C5
:10153000FBF9074605E000BFFFF7F6F9C01B0228DC
:1015400085D8D5F894008007F6D42078400766D572
:10155000A86D0027C00008D4A86D40F08050A86591
:10156000A86D012700F08050009053480168C9051C
:1015700012D40168814641F480710160FFF7D4F90B
:10158000804605E0FFF7D0F9A0EB080002286FD8ED
:10159000D9F80000C005F5D5A068012816D00528A7
:1015A000D5F8900017D020F00100C5F89000D5F8CC
:1015B000900020F0040000BFC5F89000A06841F240
:1015C0008839C0B1FFF7B0F980460FE0D5F8900038
:1015D00040F00100F0E740F00400C5F89000F5E7A6
:1015E000FFF7A2F9A0EB0801494541D8D5F89000D2
:1015F0008007F5D50EE0FFF797F9804606E000BFBB
:10160000FFF792F9A0EB0801494531D8D5F89000D1
:101610008007F5D41FB1A86D20F08050A865A06A9E
:1016200038B302280AD00C2E7ED0286820F08070B3
:101630002860286810F0205F77D0AAE0E868E26AA6
:1016400000F0030191422BD1216B00F070020901DF
:101650001039914224D1626B00F4FE41B1EB022FAC
:101660001ED1A26B00F40031072A03D0012202E050
:101670009DE089E00022914212D1A18F00F4C002C6
:1016800049084905A1F50011914209D194F840108B
:1016900000F0C06049084906A1F1007181425CD0A8
:1016A0000C2E41D0286809E000100240B02E00083E
:1016B000140000201C0000200070004040017ED477
:1016C0002868C0007BD4286820F080702860FFF76D
:1016D0002BF9064605E000BFFFF726F9801B02281C
:1016E00065D828688001F7D4D4E90B016FF00F02A8
:1016F00002EB01110843A18F5204490802EB41514A
:10170000626B41EA0221084394F840104FF07E4298
:10171000490802EB41610843A16B090940EA4140D5
:10172000E968284A114001E049E02EE00843E860FA
:10173000286840F080702860E86840F08070E860B9
:10174000FFF7F2F8044604E0FFF7EEF8001B02286A
:101750002DD828688001F7D52FE0286880012CD487
:10176000286840F080702860E86840F08070E86089
:10177000FFF7DAF8044604E0FFF7D6F8001B02286A
:1017800015D828688001F7D517E0E86820F0030035
:10179000E860E8680C490840E860FFF7C5F80446CF
:1017A00008E000BFFFF7C0F8001B022802D90320A1
:1017B000BDE8F88328688001F4D40020F8E7012010
:1017C000F6E700008C809DF9FFFFEEFE10B5401E8D
:1017D000B0F1807F01D3012010BD4FF0E0246061A3
:1017E0000F21601701F016FB0020A0610720206187
:1017F000002010BD7047704770470000F0B590F8AA
:101800003C20012A39D0012480F83C40022280F893
:101810003D20026853689568194E1A4FB24201D0B4
:10182000BA4204D123F4700C4B6843EA0C0323F052
:10183000700C0B6843EA0C0353600268B24210D08C
:10184000B2F1804F0DD0104B9A420AD00F4B9A4202
:1018500007D00F4B9A4204D0BA4202D00D4B9A42A5
:1018600004D1896825F080031943916080F83D40D8
:10187000002180F83C100846F0BD0220F0BD0000B9
:10188000002C0140003401400004004000080040EA
:10189000000C00400040014010B5040003D094F853
:1018A0003D0010B107E0012010BD002084F83C008D
:1018B000204600F023F8022084F83D00211D206816
:1018C00000F04CFE012084F8480084F83E0084F8C3
:1018D0003F0084F8400084F8410084F8420084F816
:1018E000430084F8440084F8450084F8460084F8F6
:1018F000470084F83D00002010BD000008B51E4AD6
:1019000001681E4891420ED1816D41F0020181654E
:10191000806D002200F00200009011461D20FFF7AC
:1019200099F91D2022E0164A91420ED1816D41F0B5
:1019300004018165806D002200F0040000901146D2
:101940001E20FFF787F91E2010E0B1F1804F11D162
:10195000816D41F001018165806D002200F0010080
:10196000009011461C20FFF775F91C20BDE80840C7
:10197000FFF762B908BD00000004004000100240FB
:101980000008004090F83D10012901D00120704767
:10199000022180F83D100168CA6842F00102CA6065
:1019A00000681149884211D0B0F1804F0ED00F4924
:1019B00088420BD00E49884208D00E49884205D093
:1019C0000D49884202D00D49884207D181680C4AEE
:1019D0001140062906D0B1F5803F03D0016841F0DF
:1019E0000101016000207047002C0140000400400C
:1019F00000080040000C004000340140004001405D
:101A00000700010070B5044690F83C00012817D08B
:101A1000012584F83C50022084F83D00226890683B
:101A20002E4B184020F47F4090600868502830D03A
:101A30000DDC20284DD005DC98B310283BD148E0C0
:101A4000022070BD302844D0402834D139E06028CD
:101A500028D0702806D0B0F5805F2CD0B0F5005F9C
:101A600029D10AE0CB68D1E90121206800F0E3FD2B
:101A70002068816841F0770109E0CB68D1E9012154
:101A8000206800F0D8FD2068816841F480418160C1
:101A900011E0CA684968206800F068FF502120689A
:101AA00007E016E0CA684968206800F070FF60210E
:101AB000206800F0CAFD84F83D50002084F83C0006
:101AC00070BDCA684968206800F050FF4021206856
:101AD000EFE7226801461046EBE7000088FFFEFFB3
:101AE000704770B50446006801694FF00005C943AE
:101AF000890715D4C168C943890711D4E91E01615A
:101B000001202077206880698007204602D0FFF7F7
:101B1000E7FF04E000F0DCF8204600F0B7F9257795
:101B200020680169C943490717D4C168C9434907F7
:101B300013D46FF0040101610220207720688069CE
:101B400010F4407F204602D0FFF7CAFF04E000F007
:101B5000BFF8204600F09AF9257720680169C9434B
:101B6000090716D4C168C943090712D46FF00801E8
:101B70000161042020772068C0698007204602D0D8
:101B8000FFF7AEFF04E000F0A3F8204600F07EF976
:101B9000257720680169C943C90617D4C168C943BC
:101BA000C90613D46FF01001016108202077206866
:101BB000C06910F4407F204602D0FFF791FF04E097
:101BC00000F086F8204600F061F925772068016969
:101BD000C943C90708D1C168C943C90704D1891ECF
:101BE0000161204600F054F920680169C9430906E3
:101BF00009D4C168C943090605D46FF080010161A9
:101C00002046FFF7F8FD20680169C943C90509D4DA
:101C1000C168C943090605D46FF48071016120468B
:101C2000FFF7E8FD20680169C943490609D4C16886
:101C3000C943490605D46FF040010161204600F018
:101C400055F920680169C94389060BD4C168C943A5
:101C5000890607D46FF0200101612046BDE870407D
:101C6000FFF7CABD70BD10B5044690F83C000128CE
:101C70000BD0012084F83C000C2A19D007DC5AB1A3
:101C8000042A0DD0082A1ED10EE0022010BD102A11
:101C900012D0142A17D113E0206800F0DFFC12E004
:101CA000206800F029FD0EE0206800F06DFD0AE0DC
:101CB000206800F0B1FD06E0206800F0E7FD02E0DA
:101CC000206800F01BFE002084F83C0010BD0000DE
:101CD00010B50949044688680A68401C90FBF2F375
:101CE00002FB1300886010B90020FEF7D5FB2168C5
:101CF0000020486210BD00000000002010B5040064
:101D000003D094F83D0010B107E0012010BD002081
:101D100084F83C00204600F022F8022084F83D00C0
:101D2000211D206800F01AFC012084F8480084F886
:101D30003E0084F83F0084F8400084F8410084F8B5
:101D4000420084F8430084F8440084F8450084F895
:101D5000460084F8470084F83D00002010BD70471D
:101D600030B50446022269B1042916D0082920D0D2
:101D70000C2929D010292ED094F84300012831D005
:101D8000012030BD94F83E000128F9D184F83E20AE
:101D90002068C26842F0020209E094F83F0001287E
:101DA000EED184F83F202068C26842F00402C2608D
:101DB0001CE094F840000128E2D184F8402020681B
:101DC000C26842F00802F2E794F841000128D7D136
:101DD00084F8412008E094F842000128D0D184F82A
:101DE000422003E084F843200C2938D001222068E7
:101DF00000F014FC1C4920681C4A1D4B884209D085
:101E0000904207D0984205D01A4DA84202D01A4DF0
:101E1000A84203D1456C45F40045456420688842DA
:101E20000FD0B0F1804F0CD01449884209D014492A
:101E3000884206D01349884203D0904201D098428C
:101E400007D18168104A1140062906D0B1F5803FBC
:101E500003D0016841F001010160002030BD20681D
:101E6000C26842F01002A2E7002C01400034014099
:101E7000004001400044014000480140000400408F
:101E800000080040000C00400700010070470000FF
:101E900010B50068B0F1804F25D1134C206960B1B6
:101EA000E068012809D100202061206800EBD07192
:101EB00021F00101401A401C2060D4E90010401CB0
:101EC00090FBF1F201FB1200606000280BD10120B1
:101ED000FEF7E2FAE068401CC11700EB917121F0B7
:101EE0000301401AE06010BD000000207047FEE7CB
:101EF00030B5B9B0142122A8FEF769F9442127A80A
:101F0000FEF765F988216846FEF761F9364CA06D49
:101F100040F08050A065A06D002500F08050389002
:101F20000420319527900120299027A8FFF7BAF9BE
:101F300000B1FEE74FF40030009040122190684657
:101F4000FEF7F6FEE06C40F00100E064E06C00F0AB
:101F500001003890E06C40F00200E064E06C00F0BA
:101F600002003890E06C40F00400E064E06C00F0A7
:101F700004003890E06C40F00800E064E06C22A9B6
:101F800000F00800389048F2C07022900220CDE99D
:101F90002305032025900B2026904FF09040FEF75C
:101FA00083FB4FF23320229022A91048FEF77CFBDE
:101FB0004FF4FC70229022A90D48FEF775FB4FF4F8
:101FC0007F40229022A90B48FEF76EFB0220FEF70D
:101FD00005FBA06D40F40070A065A06D00F40070DA
:101FE000389039B030BD00000010024000040048B5
:101FF00000080048000C004870B50446FEF794FC49
:1020000005464FF47A7608E0FEF78EFC401BB0429E
:1020100003D90120A063032070BD20688068C043FD
:102020008006F1D4002070BD2DE9F04186B0142166
:102030006846FEF7CCF81B48C16C41F00201C16450
:10204000C16C01F002010591C16C41F01001C16445
:10205000C06C154F00F01000059000220421384696
:10206000FEF75DFCDFF844804FF4807600223146B5
:102070004046FEF754FC0420009001250024CDE9E1
:102080000154694638460394FEF70EFB0096CDE9ED
:102090000154694640460394FEF706FB06B0BDE8CE
:1020A000F0810000001002400004004800100048C9
:1020B00010B588B00024134800940194029403944E
:1020C000049405944FF080410694016040F28F1112
:1020D000C0E9011441F28731C0E903148021816114
:1020E000FFF7DAFB4FF48050009069460548FFF790
:1020F00089FC049404A903480694FFF77FFB08B009
:1021000010BD0000E400002010B588B00024134882
:102110000094019402940394049405940E49069447
:10212000016040F28F11C0E9011441F28731C0E92A
:10213000031480218161FFF7AFFB4FF480500090C2
:1021400069460648FFF75EFC049404A90348069418
:10215000FFF754FB08B010BD000400404C00002005
:1021600030B58FB000240794089409940A940B9416
:102170000C941C2168460D94FEF729F8194D184857
:10218000286040F28F10C5E901044FF6FF70C5E9E1
:1021900003048020A8612846FFF77EFB4FF480509F
:1021A000079007A92846FFF72DFC2846FFF7A6FD54
:1021B0000B940BA928460D94FFF720FB42F20F70F9
:1021C000CDE9004002940422694628460494FFF7B2
:1021D0004AFD2868816941F4006181610FB030BD1A
:1021E0000008004098000020FEE77047704700009C
:1021F0002DE9F041444C05468846E06800268107F9
:1022000028680DD0E16801F00301814216D1A8B120
:10221000E0686968C0F30210401C88420ED120E0DB
:10222000012804D0022805D0032807D108E021683E
:10223000890701E021684905002907DB01265FE0E5
:102240002168890302D421684903F5E7E1686A68D7
:102250006FF00F0321F0730103EB021211430143EE
:10226000E160206820F080602060FEF75DFB07469B
:1022700005E000BFFEF758FBC01B022837D82068D6
:102280000001F7D4B8F1000F18D0B8F1010F1ED03B
:10229000287D4FF07E41400801EB4060A96840EA8C
:1022A00001202169194A114008432061206840F04B
:1022B00080602060FEF738FB07461AE0A868E968EE
:1022C0000002090940EA41402169114AEBE7288AE6
:1022D0001049400801EB4050A96840EA01202169FB
:1022E0000D4AE0E7FEF720FBC01B022801D90326B8
:1022F00006E020680001F5D52069A969084320613E
:102300003046BDE8F081000000100240FF80FFF978
:10231000FF80FDFF0000E0FFFF809FFF2DE9F041FF
:102320003D4C06468846E0680025810730680DD0A0
:10233000E16801F00301814216D1A8B1E06871683B
:10234000C0F30210401C88420ED120E0012804D0C6
:10235000022805D0032807D108E02168890701E099
:1023600021684905002907DB012551E0216889031F
:1023700002D421684903F5E7E16872686FF00F0342
:1023800021F0730103EB021211430143E160206865
:1023900020F080502060FEF7C7FA074605E000BF36
:1023A000FEF7C2FAC01B022829D820688000F7D4A3
:1023B000B8F1000F15D0307C4FF07E41400801EBA2
:1023C0004060B16840EA01206169144A1140084345
:1023D0006061206840F080502060FEF7A5FA074653
:1023E0000FE0B068F1680002090940EA4140616904
:1023F0000B4AEBE7FEF798FAC01B022801D9032528
:1024000006E020688000F5D5606971690843606165
:102410002846BDE8F081000000100240FF80FFF96F
:10242000FF80FDFFF8B51C4D06460024A86DC000D6
:1024300002D5FEF775FC0DE0A86D40F08050A86550
:10244000A86D00F080500090FEF76AFCA96D21F0A5
:102450008051A965B0F5007F04D0802E07D94FF0D8
:1024600003040AE0802E08D9A02E01D804E001D18F
:10247000022402E0702E00D101240848016821F0F6
:10248000070121430160006800F00700A04201D06D
:102490000120F8BD0020F8BD0010024000200240DD
:1024A0007047FEF747BA10B596B044216846FDF76D
:1024B0008EFE142111A8FDF78AFE10200090002442
:1024C0000120CDE90604602008900A946846FEF7D2
:1024D000E9FE0F20CDE9110413941494002111A8F2
:1024E0001594FEF7FDFD4FF40070FEF7E5FB16B006
:1024F00010BD00000D48016841F4700101600C48F6
:10250000016841F001010160002181600268094B0E
:102510001A4002608214C260026822F480220260C3
:1025200081610249C00380390860704788ED00E08E
:1025300000100240FFFFF6EA0148FFF7D2BA0000A0
:10254000E40000200148FFF7CCBA00004C00002056
:102550000148FFF7C6BA0000980000202DE9F047B7
:102560000268264B264D274E274F284C4FF0804AB5
:10257000984209D0504507D0A84205D0B04203D0B8
:10258000B84201D0A04204D122F0700C4A6842EA5D
:102590000C02DFF87CC0DFF87C80DFF87C9098428A
:1025A0000FD050450DD0A8420BD0B04209D0B84250
:1025B00007D0A04205D0604503D0404501D0484532
:1025C00003D122F44075CA682A434D6922F0800283
:1025D0002A4302608A68C2620A688262984207D00F
:1025E000A04205D0604503D0404501D0484501D107
:1025F0000969016301214161BDE8F087002C0140B8
:102600000004004000080040000C0040003401407D
:1026100000400140004401400048014010B501F075
:102620001F030121046A99408C430462016A9A40A5
:102630001143016210BD10B5846842EA032224F4FC
:102640007F440A432243826010BD826822F07002F8
:102650000A4342F007018160704700002DE9F04312
:10266000026A22F001020262056A436882691C4C18
:1026700025F0020522400C6822F0030214438A6808
:10268000194E2A43174D194FDFF864C0DFF86490E4
:10269000A84207D0B04205D0B84203D0604501D06F
:1026A000484506D122F00808CA6842EA080222F02A
:1026B0000402A84207D0B04205D0B84203D060451A
:1026C00001D0484505D14D6923F440731D438B6902
:1026D0002B4343608461496841630262BDE8F08333
:1026E0008FFFFEFF002C01400034014000400140FC
:1026F0000044014000480140F0B5026A22F0100297
:102700000262056A42688369194C1B4E23400C68BB
:1027100023F4407343EA042425F020038D6843EA40
:102720000513144DA84201D0B04206D1CF6823F062
:10273000800343EA071323F04003A8420AD0B042C3
:1027400008D00E4DA84205D00D4DA84202D00D4D27
:10275000A84207D14D6922F4406242EA85028D69A0
:1027600042EA850242608461496881630362F0BD88
:10277000FF8FFFFE002C014000340140004001406B
:102780000044014000480140F0B5026A22F4807222
:102790000262056A4368C269194C1B4E22400C68EC
:1027A00022F00302144325F400728D6842EA0522E8
:1027B000144DA84201D0B04206D1CF6822F4006285
:1027C00042EA072222F48062A8420AD0B04208D02E
:1027D0000E4DA84205D00E4DA84202D00D4DA84284
:1027E00007D14D6923F4405343EA05138D6943EA49
:1027F00005134360C4614968C1630262F0BD000013
:102800008FFFFEFF002C01400034014000400140DA
:10281000004401400048014030B5026A22F4805271
:102820000262046A4268C369124D24F400542B40CA
:102830000D6823F4407343EA05238D6844EA0534A8
:102840000D4DA8420BD00D4DA84208D00C4DA8420A
:1028500005D00C4DA84202D00B4DA84204D14D69C1
:1028600022F4804242EA85124260C36149680164F1
:10287000046230BDFF8FFFFE002C01400034014098
:1028800000400140004401400048014030B5026A68
:1028900022F480320262046A4268436D114D2B407B
:1028A0000D681D4324F400330C8943EA04430E4CA5
:1028B000A0420BD00D4CA04208D00D4CA04205D038
:1028C0000C4CA04202D00C4CA04204D14C6922F422
:1028D000803242EA042242604565496881650362AC
:1028E00030BD00008FFFFEFF002C0140003401408E
:1028F00000400140004401400048014030B5026AF8
:1029000022F480120262046A4268436D114D24F47D
:1029100000142B400D6843EA05230D8944EA055451
:102920000D4DA8420BD00D4DA84208D00C4DA84229
:1029300005D00C4DA84202D00B4DA84204D14D69E0
:1029400022F4802242EA8522426043654968C165DB
:10295000046230BDFF8FFFFE002C014000340140B7
:1029600000400140004401400048014010B5036AA6
:10297000046A24F001040462846924F0F00444EA47
:10298000021423F00A020A438461026210BD10B5EA
:10299000036A23F0100303628369046A23F470431B
:1029A00043EA023224F0A00343EA0111826101628A
:1029B00010BDFEE72DE9F0411D46FDF77BFDFE4C05
:1029C000062D7DD2DFE805F0034FA3F6F4F320785F
:1029D000FA4DC107C90E00F0020241EA825100F02F
:1029E000040241EA025300F008000343F2482A4679
:1029F00000213C38FEF7C8F82079C107C90E00F065
:102A0000020241EA825100F0040241EA025300F05E
:102A100008000343E8482A4602213C38FEF7B4F890
:102A2000207AC107C90E00F0020241EA825100F08B
:102A3000040241EA025300F008000343DE482A463C
:102A400004213C38FEF7A0F8207BC107C90E00F036
:102A5000020241EA825100F0040241EA025300F00E
:102A60000800034350E02078D54DC107490E00F01F
:102A7000020241EA023100F0040241EA822100F040
:102A8000080041EA8003CC482A4600213C38FEF782
:102A90007BF82079C107490E00F0020241EA0231B9
:102AA00000F0040241EA822100F0080041EA8003BC
:102AB000C1482A4602213C38FEF766F8207A00E039
:102AC000A3E1C107490E00F0020241EA023100F021
:102AD000040241EA822100F0080041EA8003B6487E
:102AE0002A4604213C38FEF74FF8207BC107490EE7
:102AF00000F0020241EA023100F0040241EA8221C0
:102B000000F0080041EA80032A4606211DE12078F2
:102B1000AC4DC107090C00F0020241EA027100F05D
:102B2000040241EA826100F0080041EAC023A248A1
:102B30002A4600213C38FEF727F82079C107090C06
:102B400000F0020241EA027100F0040241EA8261EF
:102B500000F0080041EAC02397482A4602213C3889
:102B6000FEF712F8207AC107090C00F0020241EAD0
:102B7000027100F0040241EA826100F0080041EABB
:102B8000C0238D482A4604213C38FDF7FDFF207BF9
:102B9000C107090C00F0020241EA027100F00402D0
:102BA00041EA826100F0080041EAC023ACE7D2E0CC
:102BB0005FE0FFE720786FF04045C10700F00800B4
:102BC00041EAC0637C482A4600213C38FDF7DCFF1F
:102BD0002078AE0000F00203C0F380000343764883
:102BE000324601213C38FDF7CFFF20792A46C10744
:102BF00000F0080041EAC0636F4802213C38FDF74D
:102C0000C3FF2079324600F00203C0F38000034383
:102C1000694803213C38FDF7B7FF207A2A46C107EF
:102C200000F0080041EAC063634804213C38FDF726
:102C3000ABFF207A324600F00203C0F3800003436A
:102C40005D4805213C38FDF79FFF207B2A46C107E0
:102C500000F0080041EAC063574806213C38FDF700
:102C600093FF207B324600F00203C0F38000034351
:102C70006AE020786FF0407600F00201090600F06B
:102C8000040041EA80534C48324600213C38FDF7AD
:102C90007BFF2068042505EA500100F0010041EAAD
:102CA000C0034548B7153A4601213C38FDF76CFF93
:102CB0002079324600F00201090600F0040041EAE2
:102CC00080533D4802213C38FDF75EFF60683A467C
:102CD00005EA500100F0010041EAC0033648032133
:102CE0003C38FDF751FF207A324600F00201090618
:102CF00000F0040041EA80532F4804213C38FDF7DE
:102D000043FFA0683A4605EA500100F0010041EA9D
:102D1000C003294805213C38FDF736FF207B3246A9
:102D200000F00201090600F0040041EA8053224845
:102D300006213C38FDF728FFE0683A4605EA5001D5
:102D400000F0010041EAC0030721BDE8F0411A4844
:102D50003C38FDF719BF20781B4DC107890B00F0E7
:102D6000020241EAC21100F0040241EAC21100F07D
:102D7000080041EAC05310482A4600213C38FDF7BC
:102D800003FF2079C107890B00F0020241EAC2115A
:102D900000F0040241EAC21100F0080041EAC05309
:102DA00005482A4602213C38FDF7EEFE207AC1078D
:102DB000890B00F0020209E06C010020E7FF3FFFF1
:102DC0009FCFFFFFFF3FFFCFFFFCFDFB41EAC2119A
:102DD00000F0040241EAC21100F0080041EAC053C9
:102DE0002A4604210A48FDF7CFFE207BC107890B44
:102DF00000F0020241EAC21100F0040241EAC211ED
:102E000000F0080041EAC0537EE6BDE8F081000012
:102E1000300100200907090E002804DB00F1E02042
:102E200080F80014704700F00F0000F1E02080F8F7
:102E3000141D704702E008C8121F08C1002AFAD109
:102E400070477047002001E001C1121F002AFBD12A
:102E500070470000FDF776FDFFF756F91148FEF7C1
:102E600091FDFFF725F90F489830FEF78BFDFFF72E
:102E700077F90C4804214C30FEF772FFFDF73EFA5B
:102E800009A0FDF723FA0120FDF7BEF90020FDF7A8
:102E9000CBFA0120FDF7C8FAFFF7C6F8FFF703FBEE
:102EA000FEE700004C0000204D5433544134000034
:102EB00000000000000000000102030406070809EA
:102EC000A0860100400D0300801A060000350C00AA
:102ED00040420F0080841E0000093D0000127A006D
:102EE0000024F40000366E010048E801006CDC02AA
:102EF0000400000106070817090001000200040091
:102F00002000080000FE1467001D1447009D009C6F
:102F1000003F00FA1400005341980019485A095A1A
:102F2000005F00FC015F01FC00AF1404005BC018EF
:102F3000815AC9005800C005005F004200F50067D3
:102F400000EA00AF00BF004600FF00EF6C2F000852
:102F5000000000204C000000342E0008B82F0008AC
:102F60004C00002034050000442E00080100000041
:102F70000000000000000000000000000000000051
:102F800000093D00010000001000000000000000EA
:102F9000B80B0000B80B0000000400480010004807
:102FA0000000004800000048000000480000004801
:082FB0000000004800040000CD
:040000050800018965
:00000001FF
