:020000040800F2
:10000000680500209D0100081F280008232600081D
:100010001D28000815050008E32C0008000000005A
:10002000000000000000000000000000E12A0008BD
:10003000210600080000000021280008E32A00082B
:10004000B7010008B7010008B7010008B7010008B0
:10005000B7010008B7010008010A0008070A0008F4
:100060000D0A0008130A0008B7010008B7010008CC
:10007000B7010008B7010008B7010008B701000880
:10008000B7010008B7010008B7010008B701000870
:10009000B7010008B7010008B7010008190A0008F5
:1000A000B7010008B7010008B7010008B701000850
:1000B000B7010008A12B0008AD2B0008B70100080C
:1000C000B7010008B7010008B7010008B701000830
:1000D000B7010008B7010008B7010008B701000820
:1000E000B7010008B7010008B7010008B701000810
:1000F000B7010008B7010008B7010008B701000800
:10010000B7010008B7010008B7010008B7010008EF
:10011000B7010008B7010008B7010008B7010008DF
:10012000B7010008B7010008B7010008B7010008CF
:10013000B7010008B7010008B7010008B7010008BF
:10014000B7010008B7010008B7010008B7010008AF
:10015000B7010008B7010008B7010008B70100089F
:10016000B7010008B7010008B7010008B70100088F
:10017000B7010008B7010008B7010008000000003F
:10018000D52A0008B7010008DFF80CD000F040F8CD
:1001900000480047113300086805002006488047E2
:1001A00006480047FEE7FEE7FEE7FEE7FEE7FEE75C
:1001B000FEE7FEE7FEE7FEE75D2B00088901000889
:1001C000D2B201E000F8012B491EFBD27047002299
:1001D000F6E710B513460A4604461946FFF7F0FF46
:1001E000204610BD30B50B460146002020220124D8
:1001F00009E021FA02F59D4205D303FA02F5491BF5
:1002000004FA02F52844151EA2F10102F1DC30BD0A
:10021000064C074D06E0E06840F0010394E8070053
:1002200098471034AC42F6D3FFF7B2FF34350008DC
:10023000543500082DE9F04F002487B00646254DBF
:10024000DFF894A003274FF00209DFF8908012E056
:100250008CB1032C0FD0012C0DD0022C0BD0042C10
:1002600009D000BF38F81400CDE9029700905EB1C4
:10027000012E11D025E0E86C40F00100E864E86C44
:1002800000F001000590EDE7002001905AF82400ED
:10029000694600F0D3FD14E0114801905AF824009B
:1002A000694600F0CBFDDFF834B00022ABF1060B5D
:1002B0000F211BF9040001F097F81BF9040001F06D
:1002C00085F8641CE4B2052CC2D307B0002000F00E
:1002D00009B800000010024014000020EA340008B1
:1002E0000000211030BCBDE8C08F0000014800F0C4
:1002F0002BBF00007400002070B50546002408E004
:10030000002223461146284602F0ECFC641CE4B2AD
:100310006D1C287808B1052CF2D9BDE87040014861
:1003200000F0D1BF74000020114810B50F490160E2
:1003300000214FF47012C0E901120C22C2604FF488
:10034000A05340228361C0E90421C0E907121202D0
:100350004162C0E90A12016302F064F9044800F046
:1003600031FFBDE81040024800F0EEBE002400401E
:10037000740000202DE9FC5F0025324F00950195A7
:1003800093468946AA463D7000284DD0014602E0BA
:100390006D1CEDB2491C0A78002AF9D10446684662
:1003A000FFF7AAFF584600F0E7FB002647E00020D1
:1003B00041E0411CB1FBF5F2884605FB1211615C7E
:1003C0008DF80010811CB1FBF5F205FB1211615C88
:1003D0008DF80110C11CB1FBF5F205FB1211615C37
:1003E0008DF80210011DB1FBF5F205FB1211615CE5
:1003F0008DF80310411DB1FBF5F205FB1211801DB4
:10040000615C8DF80410B0FBF5F105FB1100205C78
:100410008DF805000C4800F097FE6846FFF76CFF6A
:10042000387818B187F800A000F010B8584600F0EE
:10043000A3FB08F0FF00A842BBD3761CF6B24E45E2
:10044000B5D3F1E700000020740000203CBCBDE8FB
:10045000C09F000030B50400174887B002D0012CBF
:1004600008D00FE0C16C41F00201C164C06C00F023
:10047000020006E0C16C41F01001C164C06C00F0E4
:10048000100005900D480E4D694630F8140000909C
:1004900001200190002002900320039055F82400D1
:1004A00000F0CCFC0098002281B255F8240000F046
:1004B00000FE07B030BD000000100240E03400082C
:1004C0000C0000200449054A31F8101052F82000B1
:1004D000002200F0EEBD0000E03400080C00002017
:1004E0000449054A31F8101052F82000012200F0AA
:1004F000E0BD0000E03400080C0000200349044A7D
:1005000031F8101052F8200000F0CBBDE0340008A4
:100510000C000020FEE7000070B5002300781C46A8
:10052000342817D00FDCA0F12005142D24D2DFE8E9
:1005300005F035232323235623233B3D384E234BFD
:10054000235111111111642832D009DCA0F13505B5
:10055000042D11D8304B03EB400030F8603C1DE017
:10056000B02839D004DC6D2825D06E2804D125E0D0
:10057000B52826D0FF2835D0274DA0F14106343DBF
:100580001A2E03D205EB400333F8823CA0F161063A
:100590001A2E03D205EB400030F8C23C012924D0CA
:1005A00025E04AF2DD03F9E72823F7E71123F5E711
:1005B0004FF47343F2E74BF21023EFE742F21023BC
:1005C000ECE746F28403E9E74FF42043E6E74AF21A
:1005D0001403E3E7C023E1E74FF46C43DEE74FF495
:1005E0003343DBE74FF6DD73D8E743F00203012A1C
:1005F00001D143F0200309490C2000BF23FA00F287
:1006000002F00F0241F82420001F641CE4B2C0B2C3
:10061000042CF3D370BD0000CC340008B0000020DF
:10062000704700000C490A880C49098860B101280C
:1006300010D14EF6EE6009B11AB107E0824209D03E
:1006400006E0814204D005E022B109B1AB20704739
:10065000012070470020704700D00F0800D80F0815
:1006600010B586B0002004900090FA20029001207E
:1006700003900220114C0190204600F0A1F928B906
:1006800004A9684600F08AFA002814D10022134613
:100690002146104600F0F8FA00280CD1FB20029009
:1006A000074800F08DF928B904A9684600F076FAE9
:1006B000002800D1002006B010BD000000D00F08B7
:1006C00000D80F082DE9F04F85B000245F4804944E
:1006D000661E40692546002801DA00F02BFBDFF892
:1006E0007081B8F80010DFF86CB1BBF8000002228E
:1006F000CDE900524FF0FA0A4FF00109CDE902A905
:10070000FB27554D554A4FF6FF7300296AD0A1F6D5
:10071000EE61B1F5604122D001F6EF61B1F5005F05
:100720001AD140B1A0F56E41EE3915D1404600F026
:1007300047F938B10CE0404681E004A9684600F072
:100740002DFA49E004A9684600F028FA002846D1AD
:100750000022134659463CE0FFF782FF3CE038B1E7
:100760009842F9D15846029700F02AF940B32DE09B
:100770004FEA020AB8F8061035F81400814200D199
:1007800026B2B4420CD0354900F0CAF8012807D08F
:1007900035F81400BAF8001000F0E6F800281ED171
:1007A000641CA4B2032CE5D3002213464146104634
:1007B00000F06AFA002812D1CDE9027958463EE0ED
:1007C00004A9684600F0EAF9002808D1002213467F
:1007D0004146002000F058FA002800D1002005B062
:1007E00000F03EB80028B7D0984202D15846029790
:1007F00025E0184FBF1D398835F81400814200D11B
:1008000026B2B4420CD0154900F08AF8012807D06E
:10081000124935F81400098800F0A6F80028DED146
:10082000641CA4B2032CE6D300221346594610469A
:1008300000F02AFA0028D2D1CDE902A9404600F002
:10084000BFF800283FF479AFC8E70000002002405D
:1008500000D00F0800D80F08320000202800002028
:1008600030BCBDE8C08F00002DE9F047002486B001
:1008700006468846264DA14620460494FFF7D2FE40
:10088000012804D028B1AB2006B0BDE8F087FB27D3
:1008900001E0204DFA2700234EF6EE622946184665
:1008A00000F0F2F90028EFD14146304600F05CF844
:1008B0000028E9D1DFF86080DFF860A038F8142064
:1008C000B2420DD01549104600F02AF8012807D091
:1008D00038F81400BAF8001000F046F80028D3D118
:1008E000641CA4B2032CE9D30220CDF80090CDE91A
:1008F00001070120039004A9684600F04FF9002881
:10090000C2D1002213462946104600F0BDF9BBE7CC
:1009100000D00F0800D80F08320000202800002067
:100920002DE9F04106460D4601240D4F0020FFF74A
:1009300079FEAB2812D00B4A07EBC02102EBC02294
:10094000083108E01088B04204D132F8080C288041
:10095000002402E0103A8A42F4D82046BDE8F08133
:1009600000D00F08F8D70F0870B506460D46124C98
:100970000120FFF757FEAB280CD0104904EBC02430
:1009800001EBC02003E02168491C04D010348442EC
:10099000F9D3802070BD00232A462146184600F076
:1009A00073F90028F6D1324604F10801BDE8704021
:1009B0000023184600F068B900D00F08FFD70F08D1
:1009C00010B501214FF6FF73054C05E002889A42ED
:1009D00001D0002102E01030A042F7D9084610BD36
:1009E000FFD70F0870B50C460546FFF7BDFFC0B234
:1009F000802804D121462846FFF736FFC0B270BDDB
:100A0000012000F00FBA022000F00CBA042000F020
:100A100009BA082000F006BA202000F003BA00004E
:100A2000124A117F1248012901D003290BD1036812
:100A300043F400630360036823F400630360036806
:100A400043F400730360022901D003290BD101682C
:100A500041F480510160016821F480510160016816
:100A600041F4806101600020107770475000002041
:100A7000002002400849C20703D04A6942F004023C
:100A80004A61800703D5486940F4004048614869DD
:100A900040F480304861704700200240CA070B498B
:100AA0004A6902D022F4006201E042F400624A6125
:100AB0004A6960F3CA024A61486940F0020048612D
:100AC000486940F4803048617047000000200240CF
:100AD000054910B54C6944F001044C610260BFF354
:100AE0006F8F436010BD000000200240094A10B51E
:100AF0005469402344F480245461EFF3108272B6A9
:100B000010C910C05B1E13F0FF03F9D182F31088E7
:100B100010BD00000020024070B5054600F0CEFA7E
:100B20000646134C08E0681C06D000F0C7FA801B8C
:100B3000A84201D3032070BD2069C003F3D420690B
:100B40004CF2FA3108400CD00A494A6802434A6024
:100B5000810F01D0A169A161810000D02061012035
:100B600070BD2069C00701D001202061002070BD48
:100B7000002002405000002070B5044600F09EFAAC
:100B80000546601C02D004480078044400F096FA40
:100B9000401BA042FAD370BD440000202DE9F05F55
:100BA000054635488946017801290CD00127804641
:100BB00007704CF2503B5846FFF7AEFF06004FF06F
:100BC000000A03D053E0022000F05AB851464046D4
:100BD000C8F804A0294C226892050ED5216821F49A
:100BE000007121602168490505D5216821F48061E3
:100BF0002160032109E0077708E02268520504D547
:100C0000216821F480612160022101772868012890
:100C100007D04FF0FF31C9F8001040F2FA7BAF68FF
:100C20001EE06868FFF726FF5846FFF775FF064687
:100C3000606948F204018843606116E038466968DB
:100C4000FFF72CFF4CF25030FFF766FF060060699B
:100C500020EA0B00606102D0C9F8007005E07F1C3B
:100C6000D5E902010844B842E8D8FFF7D9FE88F870
:100C700000A03046A8E700005000002000200240FD
:100C800030BCBDE8C09F00002DE9FF5F254C064643
:100C9000904620789A4601280BD0012020704CF213
:100CA000503B5846FFF738FF07004FF0000904D0CB
:100CB0002AE0022004B000F039B84846C4F8049095
:100CC000194D2968490504D5286820F480602860FA
:100CD0000220207726B1012E09D0022E07D00CE089
:100CE000424653460198FFF7F3FE012612E04146C3
:100CF0000198FFF7FBFE022E0AD05846FFF70CFFC3
:100D00004FEA0007FFF78CFE84F800903846D1E7E1
:100D10004FF480265846FFF7FFFE07466869B04348
:100D20006861EFE7500000200020024030BCBDE8C1
:100D3000C09F0000064900204A69002A07DA054AD8
:100D40008A60054A8A604969002900DA01207047F3
:100D50000020024023016745AB89EFCD70B5012823
:100D600018D0274C0025022821783ED0082815D01D
:100D7000202843D109B1032940D1A2880120904302
:100D8000A08026D01E49E088891CFFF7C9FD628833
:100D90008AB114E0BDE8704002F0EABA194801F0E7
:100DA000ABFA18484C3801F067FAA5802570FFF7B8
:100DB0009DFA15A015E0FFF799FA15A011E010486B
:100DC00015A1103002F0BEF9FFF790FA0C48103070
:100DD00007E019B1032911D1E268F0E7FFF786FABD
:100DE0000EA0BDE87040FFF787BA002906D16580E4
:100DF0002946E088BDE87040FFF7F4BD70BD0000F3
:100E00002C0000201C01002053746172740000004B
:100E10004E4F2054494D00002575000073746172D7
:100E200074000000044910B50A68024202D008604C
:100E3000FFF794FF10BD0000140401402DE9F04FAE
:100E4000DFF83492002309F1040A012403250AF192
:100E5000040B87B00F270BF1040E04E104FA03F62C
:100E600032407CD0D1F804C0BCF1010F08D0BCF1F5
:100E7000020F05D0BCF1110F02D0BCF1120F29D125
:100E8000D0F808C0CDF800C04FEA430C05FA0CF8C2
:100E9000CDF80CC0DDF800C02CEA080CCDF800C07D
:100EA000D1F80C80DDF80CC008FA0CF8DDF800C0B1
:100EB00048EA0C08C0F80880D0F8048091F804C013
:100EC00028EA0608CCF3001C0CFA03FC4CEA080CD8
:100ED000C0F804C0D1F804806FEA080C5FEA8C7C8B
:100EE00009D1D0F82CC02CEA060CC8F3C0069E40ED
:100EF00046EA0C06C662D0F80CC04FEA430805FA71
:100F000008F62CEA060CCDF8148002968E6806FAD4
:100F100008F646EA0C06C6604E68022E01D0122E74
:100F200015D1DE0800EB86060396366A4FEA437C4D
:100F30004FEADC6807FA08FC26EA0C06D1F810C074
:100F40000CFA08FC4CEA060C039EC6F820C00668A2
:100F5000DDF808C026EA0C0691F804C000E081E044
:100F6000DDF814800CF0030C0CFA08FC4CEA060CBB
:100F7000C0F800C04E68F60074D5404ED6F860C088
:100F80004CF0010CC6F860C0366E23F0030C06F07E
:100F9000010600963A4E66440296D6F808C09E07AF
:100FA0004FEA167807FA08F62CEA060CB0F1904FD3
:100FB00004D0344EB04203D101261BE0002619E0D4
:100FC000314EB04201D1022614E0304EB04201D180
:100FD00003260FE02E4EB04201D104260AE02D4E2A
:100FE000B04201D1052605E02B4EB04201D10626C4
:100FF00000E0072606FA08F646EA0C06DDF808C007
:10100000CCF80860D9F80060CC46D1F8048096434B
:101010005FEAC83800D51643CCF80060DAF8006003
:10102000D446D1F8048096435FEA883800D5164349
:10103000CCF80060DBF80060DC46D1F80480964311
:101040005FEAC82800D51643CCF80060DEF80060DF
:10105000F446D1F8048096435FEA882800D5164309
:10106000CCF800605B1C0A6832FA03F67FF4F6AE37
:1010700007B000F013B80000000401400010024067
:10108000000001400004004800080048000C00482F
:1010900000100048001400480018004830BCBDE8AB
:1010A000C08F426921EA02030A4043EA024181619A
:1010B00070470AB18161704781627047014880685A
:1010C0007047000044000020024881680278114403
:1010D0008160704744000020094810B50168002471
:1010E00041F480710160032000F09EF9002000F0BF
:1010F00009F808B1012401E000F052F9204610BDC2
:101100000020024070B50E4E05460024307898B19C
:101110004FF47A71B1FBF0F00A490968B1FBF0F0C5
:1011200000F0E1FF40B9102D06D200222946501EE2
:1011300000F05AF9756000E00124204670BD0000FF
:1011400044000020700000202DE9F041044690F892
:1011500035000121012801D0022830D194F8340053
:1011600001280CD0012084F83400022784F835705F
:10117000FFF7A4FF06464FF47A7800250CE0022022
:10118000BDE8F081FFF79AFF801B404504D9A763B3
:1011900084F834500320F3E720688068C043400798
:1011A000F0D500205FF01401226801EB8003D550D8
:1011B000401C0F28F8D9204600F085F80146084663
:1011C000DEE700002DE9F041040004D094F835007A
:1011D000002518B107E00120BDE8F08184F8345003
:1011E000204600F06FF8022084F83500206801687E
:1011F00021F00101016000205FF01401226801EB81
:101200008003D550401C0F28F8D92068816841F030
:1012100004018160D4E901010843D4E90A121143B1
:101220000843E1690843216A0843A1690843616AE8
:10123000084321684A68224B1A4010434860204600
:1012400001F074FA0600C7D1D4E903010843226B08
:1012500061691143084321680A6822F0FE021043C5
:1012600008602068016841F001010160FFF726FF76
:1012700007464FF47A7806E0FFF720FFC01B404591
:1012800001D908200EE020688068C043C007F3D170
:10129000FFF714FF074608E0FFF710FFC01B4045AB
:1012A00003D91020A063032096E720688068C0431C
:1012B000C006F1D4A563012084F8350030468BE7E1
:1012C0000E0000FC70472DE9F0410446082021681B
:1012D000C8602068816841F004018160FFF7EEFE7C
:1012E000054600264FF47A770BE0FFF7E7FE401B38
:1012F000B84206D90420A06384F834600320BDE816
:10130000F08120688068C0430007EED4012084F893
:10131000350084F834600020F1E700002DE9F04743
:10132000044690F835009A4690468946012804D034
:10133000022802D00120BDE8F08794F8350001288A
:1013400022D194F8340001280BD0012084F8340015
:10135000022684F83560FFF7B1FE05464FF47A7730
:101360000DE00220E7E700BFFFF7A8FE401BB842F0
:1013700005D9A663002084F834000320DBE7206849
:101380008068C0434007EFD51421226801EB890033
:10139000115801EA080141EA0A0111500020CAE788
:1013A000094808B5016E41F001010166016E01F0C6
:1013B00001010091816D41F080518165806D00F0E7
:1013C0008050009008BD000000100240002809DB9A
:1013D00000F01F02012191404009800000F1E0204F
:1013E000C0F8001170470000F0B40E4B1B680C46AB
:1013F000C3F30223C3F10705042D00D90425191DE9
:10140000072901D2002300E0DB1E012606FA05F1C0
:10141000491E214099409E40761E16403143F0BC43
:1014200001F0A4BE0CED00E0064900F007020868D8
:101430004FF6FF03184040EA0220034A10430860B9
:10144000704700000CED00E00000FA051649B0F509
:10145000007F0868C0F3412009D0022805D0086841
:1014600020F4C06040F480600860002070470128CC
:10147000FBD0086820F4C06040F4007008600B489E
:101480003222006850430A4AB0FBF2F0401C00E0F0
:10149000401E4A69520501D50028F9D14869400526
:1014A000E3D503207047000000700040700000206A
:1014B00040420F000248006800F4C060704700001E
:1014C000007000402DE9F84F044600270088E54DE4
:1014D0003E46010504F1200B1DD5606E78B1B0F5D4
:1014E000800F11D0B0F5000F04D0B0F5400F22D01E
:1014F00001270FE0E86840F48030E8601BE000213D
:10150000201D01F08FF903E00021584601F020FA78
:10151000070010D03E462088C00426D5A06EC0B17A
:10152000B0F1807F1AD0B0F1007F0DD0B0F1407FD4
:1015300019D0012718E0D5F88800616E20F440002A
:101540000843C5F88800E6E7E86840F48030E860C2
:1015500009E00021201D01F065F903E00021584653
:1015600001F0F6F90746F7B13E46206880033AD508
:10157000A86D4FF00008C00009D4A86D40F080505D
:10158000A865A86D4FF0010800F080500090DFF8CA
:10159000D8A2DAF8001041F48071CAF80010FFF701
:1015A0008DFD814610E0D5F88800A16E20F04070D6
:1015B0000843C5F88800D8E7FFF780FDA0EB0900D5
:1015C000022801D9032705E0DAF80000C005F3D5A9
:1015D000002F7CD04FEA0706B8F1000F03D0A86DAA
:1015E00020F08050A8652078C00707D0D5F8880083
:1015F000A16B20F003000843C5F88800207880071D
:1016000007D5D5F88800E16B20F00C000843C5F839
:1016100088002078400707D5D5F88800216C20F095
:1016200030000843C5F888002078000707D5D5F8B2
:101630008800616C20F0C0000843C5F8880020785D
:10164000C00607D5D5F88800A16C20F44070084387
:10165000C5F888002078800607D5D5F88800E16CA9
:1016600020F440600843C5F888002088800507D52D
:10167000D5F88800E16D20F440200843C5F88800C3
:101680002088400507D5D5F88800216E20F4401049
:101690000843C5F888002078400607D5D5F88800AB
:1016A000216D20F440500843C5F8880020780006DA
:1016B00007D5D5F88800616D20F440400843C5F88F
:1016C00088002088C00509D5D5F8880000E01CE016
:1016D000A16D20F440300843C5F8880020884FF001
:1016E000006780044FF080684FD5D5F88800E16E20
:1016F00020F040600843C5F88800E06EB8423CD155
:10170000E86840F48010E8603FE0D5F8900010F4FD
:10171000407015D0D4F88410814211D0D5F89000D3
:10172000D5F8901020F4407041F48031C5F8901045
:10173000D5F8901021F48031C5F89010C5F89000CC
:10174000C00710D0FFF7BAFC074641F2883906E01F
:10175000FFF7B4FCC11B494501D903263CE7D5F886
:1017600090008007F4D5D5F89000D4F8841020F4C8
:1017700040700843C5F890002EE7404505D101218F
:10178000201D01F04FF800B106462068000317D570
:10179000D5F88800216F20F040600843C5F8880024
:1017A000206FB84204D1E86840F48010E86007E098
:1017B000404505D10121201D01F034F800B1064655
:1017C0002068400317D5D5F88800616F20F040608D
:1017D0000843C5F88800606FB84204D1E86840F457
:1017E0008010E86007E0404505D10121201D01F08F
:1017F00019F800B10646208840041AD5D5F88800AB
:10180000A16F20F040500843C5F88800A06FB0F1E8
:10181000805F03D0B0F1005F05D00AE00221201DF7
:1018200001F000F803E00221584601F091F800B100
:1018300006462088000407D5D5F88800E16F20F01F
:1018400080400843C5F888002068C00307D555F8D4
:10185000880FD4F8801020F00040084328603046FC
:1018600000F004B8001002400070004018BCBDE851
:10187000E08F00002DE9F0470F46050058D0404E9C
:10188000306800F00700B84209D2306820F0070045
:1018900038433060306800F00700B84248D12878FB
:1018A000384CC0072CD06868032811D0022812D009
:1018B000216898B1490500293ADAA16821F00301AD
:1018C0000143A160FFF7FAFB804641F2883910E03E
:1018D00021688901EFE721688903ECE78907EAE7D6
:1018E000FFF7ECFBA0EB0801494502D90320BDE856
:1018F000F087A068696800F00C00B0EB810FEFD1B1
:101900002878800705D5A068A96820F0F000084372
:10191000A060306800F00700B8420BD9306820F0B2
:10192000070038433060306800F00700B84201D04B
:101930000120DCE72878400705D5A068E96820F495
:10194000E0600843A0602878000706D5A0682969F0
:1019500020F4605040EAC100A06000F01BF8A168CC
:10196000094AC1F30311515C01F01F01C840074946
:10197000086007480068BDE8F047FFF7C3BB0000F8
:101980000020024000100240F434000870000020E3
:101990004800002070B52549002318468A68CC68A5
:1019A00012F00C0204F00306214C4FEA640509D042
:1019B0000C2A05D0042A32D0082A00D1284670BD4E
:1019C000012E10D10B681B0704D4D1F89430C3F357
:1019D000032302E00B68C3F30313164E56F82330BB
:1019E000DAB10C2AEBD1C86800F00300022818D045
:1019F000032818D01846CA68CB68C2F30212C3F392
:101A000006234343521CB3FBF2F2C868C0F34160A3
:101A1000401C4000B2FBF0F070BD184670BD20467F
:101A200070BD2046E7E72846E5E7000000100240C9
:101A30000024F400043500082DE9F84304006FD0B9
:101A4000FE4DA86800F00C06E86800F00307207857
:101A5000C00664D576B10C2E01D1012F0AD0A06941
:101A6000002828687AD040F001002860FFF726FBA4
:101A700080465DE02868800702D5A0690028DED096
:101A8000216A2868000703D5286800F0F00004E008
:101A9000D5F89400F02202EA1010814216D90846C7
:101AA00000F0DAFF00283BD1286840F008002860E9
:101AB0002868216A20F0F000084328606868E1691E
:101AC00020F47F4040EA0120686016E0286840F07A
:101AD000080028602868216A20F0F0000843286088
:101AE0006868E16920F47F4040EA0120686026B917
:101AF000206A00F0B1FF0028D5D1FFF74BFFA9689D
:101B0000CF4AC1F30311515C01F01F01C840CD4918
:101B10000860CD480068FFF7F5FA00287ED12EE076
:101B2000CAE000BFFFF7CAFAA0EB0800022876D887
:101B300028688007F6D5286840F0080028602868E3
:101B4000216A20F0F000084328606868E16920F409
:101B50007F4040EA0120686011E0FFE720F00100CB
:101B60002860FFF7ABFA804606E000BFFFF7A6FA51
:101B7000A0EB08000228DAD828688007F6D420787D
:101B8000C00740D0082E18D00C2E01D1032F14D03E
:101B90006068B0F5803F17D0B0F5A02F286817D047
:101BA00020F480302860286820F480202860606855
:101BB000E0B1FFF783FA804614E02868800322D55D
:101BC0006068002878D01EE0286840F48030EDE797
:101BD00040F480202860F7E7FFF770FAA0EB0800D8
:101BE0006428A4D828688003F6D50CE0FFF766FACD
:101BF000804605E0FFF762FAA0EB0800642896D85B
:101C000028688003F6D4207880073BD5042E11D0B5
:101C10000C2E01D1022F0DD0E06801E092E1F1E03D
:101C2000002828681ED040F480702860FFF746FA2C
:101C300007460CE0286840050CD5E0680028C1D0B4
:101C400008E000BFFFF73AFAC01B022893D82868C3
:101C50004005F7D56868217C20F0F85040EA016023
:101C600068600FE020F480702860FFF727FA0746CD
:101C700005E000BFFFF722FAC01B0228B1D8286890
:101C80004005F7D42078000729D560690028D5F8E9
:101C9000940012D040F00100C5F89400FFF70EFA4E
:101CA000074604E0FFF70AFAC01B022899D8D5F8C6
:101CB00094008007F6D512E000E120F00100C5F89D
:101CC0009400FFF7FBF9074605E000BFFFF7F6F9C0
:101CD000C01B022885D8D5F894008007F6D4207858
:101CE000400766D5A86D0027C00008D4A86D40F055
:101CF0008050A865A86D012700F0805000905348DF
:101D00000168C90512D40168814641F480710160FF
:101D1000FFF7D4F9804605E0FFF7D0F9A0EB080003
:101D200002286FD8D9F80000C005F5D5A0680128B1
:101D300016D00528D5F8900017D020F00100C5F87E
:101D40009000D5F8900020F0040000BFC5F8900086
:101D5000A06841F28839C0B1FFF7B0F980460FE0C2
:101D6000D5F8900040F00100F0E740F00400C5F81D
:101D70009000F5E7FFF7A2F9A0EB0801494541D82B
:101D8000D5F890008007F5D50EE0FFF797F980466B
:101D900006E000BFFFF792F9A0EB0801494531D8F2
:101DA000D5F890008007F5D41FB1A86D20F08050C1
:101DB000A865A06A38B302280AD00C2E7ED0286805
:101DC00020F080702860286810F0205F77D0AAE0AB
:101DD000E868E26A00F0030191422BD1216B00F028
:101DE000700209011039914224D1626B00F4FE4166
:101DF000B1EB022F1ED1A26B00F40031072A03D0F1
:101E0000012202E09DE089E00022914212D1A18FDF
:101E100000F4C00249084905A1F50011914209D119
:101E200094F8401000F0C06049084906A1F1007123
:101E300081425CD00C2E41D0286809E0001002409D
:101E4000F4340008700000204800002000700040BA
:101E500040017ED42868C0007BD4286820F08070C0
:101E60002860FFF72BF9064605E000BFFFF726F9CB
:101E7000801B022865D828688001F7D4D4E90B01BB
:101E80006FF00F0202EB01110843A18F52044908C1
:101E900002EB4151626B41EA0221084394F8401081
:101EA0004FF07E42490802EB41610843A16B0909EA
:101EB00040EA4140E968284A114001E049E02EE04B
:101EC0000843E860286840F080702860E86840F0C7
:101ED0008070E860FFF7F2F8044604E0FFF7EEF8E0
:101EE000001B02282DD828688001F7D52FE028682C
:101EF00080012CD4286840F080702860E86840F0A9
:101F00008070E860FFF7DAF8044604E0FFF7D6F8DF
:101F1000001B022815D828688001F7D517E0E8686B
:101F200020F00300E860E8680C490840E860FFF72B
:101F3000C5F8044608E000BFFFF7C0F8001B022800
:101F400002D90320BDE8F88328688001F4D400207A
:101F5000F8E70120F6E700008C809DF9FFFFEEFE18
:101F6000704700002DE9F0470446007900278A46B3
:101F700001280ED00125257160794FF00009012854
:101F800009D00420A060012784F804903846BDE8F9
:101F9000F0870220FBE74FF0020884F80580FFF786
:101FA0008DF806460CE000BFFFF788F8801B02287A
:101FB00006D96571C4F8088084F804900120E6E72A
:101FC00020684068C043C007EED120688068E060A8
:101FD000CAF800006571D7E710B50446006841688B
:101FE000C943890601D4102004E04068C04340067C
:101FF0000AD40820A060042060712046FFF7B0FFDB
:1020000021686FF06000486020684168C943C907D3
:1020100010D1016821F00801016020688168E16049
:102020006079042806D001206071002020712046CC
:1020300000F058F810BD00002DE9F041040024D054
:1020400060794FF0000820B984F80480204600F041
:102050002BF8022666712068016841F004010160D6
:10206000206840684FF00407C043400601D4677100
:102070000BE0FFF723F805460AE000BFFFF71EF864
:10208000401B022804D96771A6600120BDE8F081D9
:1020900020684068C0434007F0D501206071C4F853
:1020A00008800020F2E7000008B500680B4988426C
:1020B00012D10B48C16C41F48021C164C06C002274
:1020C00000F48020009011465020FFF78DF9BDE804
:1020D00008405020FFF77AB908BD000000080650FC
:1020E00000100240704710B5401EB0F1807F01D350
:1020F000012010BD4FF0E02460610F21601701F056
:1021000035F80020A06107202061002010BD704735
:1021100070477047F0B590F83C20012A39D001246F
:1021200080F83C40022280F83D20026853689568A0
:10213000194E1A4FB24201D0BA4204D123F4700CA6
:102140004B6843EA0C0323F0700C0B6843EA0C0362
:1021500053600268B24210D0B2F1804F0DD0104BE4
:102160009A420AD00F4B9A4207D00F4B9A4204D0A2
:10217000BA4202D00D4B9A4204D1896825F08003FF
:102180001943916080F83D40002180F83C100846DA
:10219000F0BD0220F0BD0000002C014000340140E1
:1021A0000004004000080040000C004000400140D6
:1021B00010B5040003D094F83D0010B107E00120F1
:1021C00010BD002084F83C00204600F023F80220D7
:1021D00084F83D00211D206800F0EEFC012084F809
:1021E000480084F83E0084F83F0084F8400084F8FA
:1021F000410084F8420084F8430084F8440084F8E5
:10220000450084F8460084F8470084F83D0000202B
:1022100010BD000008B5154A0168154891420ED15D
:10222000816D41F002018165806D002200F00200A5
:10223000009011461D20FFF7D7F81D2010E00D4A31
:10224000914211D1816D41F004018165806D0022C0
:1022500000F00400009011461E20FFF7C5F81E2074
:10226000BDE80840FFF7B2B808BD00000004004018
:10227000001002400008004090F83D10012901D0F4
:1022800001207047022180F83D100168CA6842F0C1
:102290000102CA6000681149884211D0B0F1804F34
:1022A0000ED00F4988420BD00E49884208D00E4903
:1022B000884205D00D49884202D00D49884207D195
:1022C00081680C4A1140062906D0B1F5803F03D041
:1022D000016841F00101016000207047002C0140BD
:1022E0000004004000080040000C004000340140A1
:1022F00000400140070001000168CA6822F00102A5
:10230000CA6001680A6A41F211131A4207D10A6AC7
:102310009B101A4203D10A6822F001020A600121CF
:1023200080F83D100020704770B5044690F83C00DE
:10233000012817D0012584F83C50022084F83D0084
:10234000226890682E4B184020F47F409060086807
:10235000502830D00DDC20284DD005DC98B3102853
:102360003BD148E0022070BD302844D0402834D111
:1023700039E0602828D0702806D0B0F5805F2CD0D6
:10238000B0F5005F29D10AE0CB68D1E901212068CE
:1023900000F072FC2068816841F0770109E0CB68A9
:1023A000D1E90121206800F067FC2068816841F4D0
:1023B0008041816011E0CA684968206800F06EFCC5
:1023C0005021206807E016E0CA684968206800F0DC
:1023D00076FC6021206800F059FC84F83D50002014
:1023E00084F83C0070BDCA684968206800F056FC5B
:1023F00040212068EFE7226801461046EBE7000025
:1024000088FFFEFF704770B50446006801694FF011
:102410000005C943890715D4C168C943890711D488
:10242000E91E01610120207720688069800720462D
:1024300002D0FFF7E7FF04E000F0A7F8204600F025
:10244000A5F8257720680169C943490717D4C168F1
:10245000C943490713D46FF00401016102202077BA
:102460002068806910F4407F204602D0FFF7CAFF41
:1024700004E000F08AF8204600F088F8257720680C
:102480000169C943090716D4C168C943090712D4B1
:102490006FF008010161042020772068C06980077F
:1024A000204602D0FFF7AEFF04E000F06EF82046B1
:1024B00000F06CF8257720680169C943C90617D474
:1024C000C168C943C90613D46FF010010161082027
:1024D00020772068C06910F4407F204602D0FFF7C3
:1024E00091FF04E000F051F8204600F04FF8257706
:1024F00020680169C943C90708D1C168C943C90730
:1025000004D1891E0161204600F042F8206801696B
:10251000C943090609D4C168C943090605D46FF047
:10252000800101612046FFF7F3FD20680169C9437E
:10253000C90509D4C168C943090605D46FF480717F
:1025400001612046FFF7E3FD20680169C9434906A0
:1025500009D4C168C943490605D46FF0400101613F
:10256000204600F05DF820680169C94389060BD454
:10257000C168C943890607D46FF020010161204674
:10258000BDE87040FFF7C5BD70BD704770470000E3
:1025900010B5204C1E4A01682078914200D1D8B174
:1025A0001D4A914232D101281ED002282ED1E26864
:1025B0003220521C92FBF0F100FB1120E260002857
:1025C00024D1144815A1103000F0BCFD1148BDE81D
:1025D00010401030FDF790BE0020FDF78FFFBDE8E2
:1025E00010400120FDF78ABFE068401CE060A16850
:1025F00088420BD3FDF77AFE0020FDF771FF012022
:10260000FDF76EFF0020E0600220207010BD00008A
:10261000000400402C000020000800402575000048
:102620007047FEE730B5B9B0142122A8FDF7CFFD01
:10263000442127A8FDF7CBFD88216846FDF7C7FD9B
:10264000364CA06D40F08050A065A06D002500F0D4
:10265000805038900420319527900120299027A898
:10266000FFF7EAF900B1FEE74FF4003000904012A6
:1026700021906846FEF726FFE06C40F00100E06420
:10268000E06C00F001003890E06C40F00200E06483
:10269000E06C00F002003890E06C40F00400E06470
:1026A000E06C00F004003890E06C40F00800E0645A
:1026B000E06C22A900F00800389048F2C070229027
:1026C0000220CDE92305032025900B2026904FF012
:1026D0009040FEF7B3FB4FF23320229022A910481E
:1026E000FEF7ACFB4FF4FC70229022A90D48FEF7D8
:1026F000A5FB4FF47F40229022A90B48FEF79EFBDA
:102700000220FEF739FAA06D40F40070A065A06DBC
:1027100000F40070389039B030BD00000010024065
:102720000004004800080048000C004870B504464A
:10273000FEF7C4FC05464FF47A7608E0FEF7BEFCCF
:10274000401BB04203D90120A063032070BD206864
:102750008068C0438006F1D4002070BD10B588B0F9
:102760000024154800940194029403940494059461
:1027700010490694016040F28F11C0E9011442F241
:102780000F71C0E9031480218161FFF711FD4FF43F
:102790008050009069460848FFF7C6FD049404A9DC
:1027A00005480694FFF7B6FC0348FFF765FD08B03F
:1027B00010BD000000040040D000002010B588B01B
:1027C0000024154800940194029403940494059401
:1027D00010490694016040F28F11C0E901140921EB
:1027E000C0E9031480218161FFF7E2FC4FF48050BF
:1027F000009069460848FFF797FD049404A906482D
:102800000694FFF787FC04484C38FFF735FD08B005
:1028100010BD0000000800401C010020FEE77047CA
:10282000704700002DE9F041444C05468846E068B9
:102830000026810728680DD0E16801F0030181427C
:1028400016D1A8B1E0686968C0F30210401C884244
:102850000ED120E0012804D0022805D0032807D19A
:1028600008E02168890701E021684905002907DBA4
:1028700001265FE02168890302D421684903F5E756
:10288000E1686A686FF00F0321F0730103EB021235
:1028900011430143E160206820F080602060FEF772
:1028A0000DFC074605E000BFFEF708FCC01B022830
:1028B00037D820680001F7D4B8F1000F18D0B8F16C
:1028C000010F1ED0287D4FF07E41400801EB406093
:1028D000A96840EA01202169194A11400843206192
:1028E000206840F080602060FEF7E8FB07461AE0B1
:1028F000A868E9680002090940EA41402169114AD3
:10290000EBE7288A1049400801EB4050A96840EAEB
:10291000012021690D4AE0E7FEF7D0FBC01B022829
:1029200001D9032606E020680001F5D52069A969D0
:10293000084320613046BDE8F081000000100240ED
:10294000FF80FFF9FF80FDFF0000E0FFFF809FFF99
:102950002DE9F0413D4C06468846E0680025810798
:1029600030680DD0E16801F00301814216D1A8B1B1
:10297000E0687168C0F30210401C88420ED120E06C
:10298000012804D0022805D0032807D108E02168D7
:10299000890701E021684905002907DB012551E08D
:1029A0002168890302D421684903F5E7E168726868
:1029B0006FF00F0321F0730103EB02121143014387
:1029C000E160206820F080502060FEF777FB07462A
:1029D00005E000BFFEF772FBC01B022829D8206863
:1029E0008000F7D4B8F1000F15D0307C4FF07E4155
:1029F000400801EB4060B16840EA01206169144A77
:102A0000114008436061206840F080502060FEF76C
:102A100055FB07460FE0B068F1680002090940EA7B
:102A2000414061690B4AEBE7FEF748FBC01B0228F7
:102A300001D9032506E020688000F5D56069716939
:102A4000084360612846BDE8F081000000100240A4
:102A5000FF80FFF9FF80FDFFF8B51C4D06460024FE
:102A6000A86DC00002D5FEF725FD0DE0A86D40F071
:102A70008050A865A86D00F080500090FEF71AFD08
:102A8000A96D21F08051A965B0F5007F04D0802E9A
:102A900007D94FF003040AE0802E08D9A02E01D8F0
:102AA00004E001D1022402E0702E00D10124084884
:102AB000016821F0070121430160006800F0070070
:102AC000A04201D00120F8BD0020F8BD0010024056
:102AD000002002400148FFF77FBA0000C00000203C
:102AE0007047FEF7F1BA70B5B8B0442122A8FDF7DF
:102AF0006EFB142133A8FDF76AFB88216846FDF7B9
:102B000066FB102601250024602022962895CDE939
:102B1000294022A82C94FEF78FFF0F20CDE9330423
:102B200035943694002133A83794FEF7A3FEA80409
:102B3000009000021D90019502950720CDE90360E9
:102B4000022005900690C00407906846FEF7BAFC84
:102B50006802FEF77BFC38B070BD00000D480168CC
:102B600041F4700101600C48016841F0010101600D
:102B7000002181600268094B1A4002608214C26021
:102B8000026822F48022026081610249C003803918
:102B90000860704788ED00E000100240FFFFF6EA91
:102BA0000148FFF730BC0000D00000200148FFF7CB
:102BB0002ABC00001C0100202DE9F0470268264BCA
:102BC000264D274E274F284C4FF0804A984209D077
:102BD000504507D0A84205D0B04203D0B84201D03A
:102BE000A04204D122F0700C4A6842EA0C02DFF8DD
:102BF0007CC0DFF87C80DFF87C9098420FD0504595
:102C00000DD0A8420BD0B04209D0B84207D0A042A4
:102C100005D0604503D0404501D0484503D122F49A
:102C20004075CA682A434D6922F080022A43026037
:102C30008A68C2620A688262984207D0A04205D0C0
:102C4000604503D0404501D0484501D10969016381
:102C500001214161BDE8F087002C014000040040E3
:102C600000080040000C00400034014000400140DA
:102C7000004401400048014010B5846842EA032244
:102C800024F47F440A432243826010BD826822F00C
:102C900070020A4342F007018160704710B5036A71
:102CA000046A24F001040462846924F0F00444EA14
:102CB000021423F00A020A438461026210BD10B5B7
:102CC000036A23F0100303628369046A23F47043E8
:102CD00043EA023224F0A00343EA01118261016257
:102CE00010BDFEE72DE9F0411D46FDF715FCFE4C39
:102CF000062D7DD2DFE805F0034FA3F6F4F320782C
:102D0000FA4DC107C90E00F0020241EA825100F0FB
:102D1000040241EA025300F008000343F2482A4645
:102D200000213C38FEF7FAFA2079C107C90E00F0FD
:102D3000020241EA825100F0040241EA025300F02B
:102D400008000343E8482A4602213C38FEF7E6FA29
:102D5000207AC107C90E00F0020241EA825100F058
:102D6000040241EA025300F008000343DE482A4609
:102D700004213C38FEF7D2FA207BC107C90E00F0CF
:102D8000020241EA825100F0040241EA025300F0DB
:102D90000800034350E02078D54DC107490E00F0EC
:102DA000020241EA023100F0040241EA822100F00D
:102DB000080041EA8003CC482A4600213C38FEF74F
:102DC000ADFA2079C107490E00F0020241EA023152
:102DD00000F0040241EA822100F0080041EA800389
:102DE000C1482A4602213C38FEF798FA207A00E0D2
:102DF000A3E1C107490E00F0020241EA023100F0EE
:102E0000040241EA822100F0080041EA8003B6484A
:102E10002A4604213C38FEF781FA207BC107490E7F
:102E200000F0020241EA023100F0040241EA82218C
:102E300000F0080041EA80032A4606211DE12078BF
:102E4000AC4DC107090C00F0020241EA027100F02A
:102E5000040241EA826100F0080041EAC023A2486E
:102E60002A4600213C38FEF759FA2079C107090C9F
:102E700000F0020241EA027100F0040241EA8261BC
:102E800000F0080041EAC02397482A4602213C3856
:102E9000FEF744FA207AC107090C00F0020241EA69
:102EA000027100F0040241EA826100F0080041EA88
:102EB000C0238D482A4604213C38FEF72FFA207B98
:102EC000C107090C00F0020241EA027100F004029D
:102ED00041EA826100F0080041EAC023ACE7D2E099
:102EE0005FE0FFE720786FF04045C10700F0080081
:102EF00041EAC0637C482A4600213C38FEF70EFABE
:102F00002078AE0000F00203C0F38000034376484F
:102F1000324601213C38FEF701FA20792A46C107E2
:102F200000F0080041EAC0636F4802213C38FEF718
:102F3000F5F92079324600F00203C0F38000034324
:102F4000694803213C38FEF7E9F9207A2A46C1078F
:102F500000F0080041EAC063634804213C38FEF7F2
:102F6000DDF9207A324600F00203C0F3800003430B
:102F70005D4805213C38FEF7D1F9207B2A46C10780
:102F800000F0080041EAC063574806213C38FEF7CC
:102F9000C5F9207B324600F00203C0F380000343F2
:102FA0006AE020786FF0407600F00201090600F038
:102FB000040041EA80534C48324600213C38FEF779
:102FC000ADF92068042505EA500100F0010041EA4E
:102FD000C0034548B7153A4601213C38FEF79EF933
:102FE0002079324600F00201090600F0040041EAAF
:102FF00080533D4802213C38FEF790F960683A461C
:1030000005EA500100F0010041EAC00336480321FF
:103010003C38FEF783F9207A324600F002010906B7
:1030200000F0040041EA80532F4804213C38FEF7A9
:1030300075F9A0683A4605EA500100F0010041EA3E
:10304000C003294805213C38FEF768F9207B324649
:1030500000F00201090600F0040041EA8053224812
:1030600006213C38FEF75AF9E0683A4605EA500175
:1030700000F0010041EAC0030721BDE8F0411A4811
:103080003C38FEF74BB920781B4DC107890B00F087
:10309000020241EAC21100F0040241EAC21100F04A
:1030A000080041EAC05310482A4600213C38FEF788
:1030B00035F92079C107890B00F0020241EAC211FB
:1030C00000F0040241EAC21100F0080041EAC053D6
:1030D00005482A4602213C38FEF720F9207AC1072C
:1030E000890B00F0020209E0B0000020E7FF3FFF7B
:1030F0009FCFFFFFFF3FFFCFFFFCFDFB41EAC21167
:1031000000F0040241EAC21100F0080041EAC05395
:103110002A4604210A48FEF701F9207BC107890BE2
:1031200000F0020241EAC21100F0040241EAC211B9
:1031300000F0080041EAC0537EE6BDE8F0810000DF
:10314000740000200FB4084B10B504A902AA03981C
:1031500000F02CF8044602A9002000F0D4F8204624
:1031600010BC5DF814FB0000073300080907090EC6
:10317000002804DB00F1E02080F80014704700F024
:103180000F0000F1E02080F8141D704702E008C82D
:10319000121F08C1002AFAD170477047002001E0D1
:1031A00001C1121F002AFBD1704700002DE9FF4F1B
:1031B00089B09B460446002506E025280BD05A46D8
:1031C0000B999047641C6D1C20780028F5D10DB038
:1031D000284600F095B80027B8460122474900E08C
:1031E000074314F8013F203B02FA03F00842F7D1ED
:1031F00020782E2819D114F8010F47F004072A2847
:103200000ED06FF02F022078A0F1300109290CD8E0
:1032100008EB880102EB410100EB0108641CF2E7B6
:103220000A98641C50F8048B0A9020780028CED0AD
:10323000642808D0692806D075281ED05A460B99F4
:1032400090476D1C58E00A994FF00A0901C90A918C
:10325000002802DA40422D2102E0390504D52B2155
:103260008DF82010012103E0F90704D02021F7E7B1
:103270008A4608AE0DE00021FAE70A994FF00A09E4
:1032800001C90A91F7E74946FCF7ACFF303106F86F
:10329000011D0028F7D1ADEB060000F120097807E9
:1032A00001D44FF00108C84502DDA8EB090000E099
:1032B00000208046002706E008A85A46C05D0B990A
:1032C00090476D1C7F1C5745F6DB04E030205A46C2
:1032D0000B9990476D1CB8F10001A8F10108F5DCCD
:1032E00005E016F8010B5A460B9990476D1CB9F191
:1032F0000001A9F10109F4DC641C65E7092801005B
:1033000030BCBDE8C08F0A68531C0B60107070475A
:10331000FDF7E2FEFFF7E7FBFFF720FAFFF74EFAB3
:103320000F490E4808600846FEF786FE0020FDF7AC
:1033300091F80120FDF78EF809485C30FEF7DCFFBC
:10334000FCF7F2FF0120FCF775FFFDF7BBF905491B
:103350000020087004A0FCF7CFFFFEE7000806502D
:10336000C00000202C000020537461727400000023
:1033700070B53C4C0025207805285CD2DFE800F0D1
:10338000032A395C6600E560FCF7B0FF3648FEF7BB
:10339000B3FF012020703349334808311038FEF75D
:1033A000E1FDA06840F6B831B0FBF1F201FB12007C
:1033B00000F57A70A0602C484C30FEF75DFF2BA022
:1033C000FCF79AFF0020FDF77DF8BDE87040012072
:1033D000FDF778B8FCF78AFF23484C30FEF78CFFE6
:1033E00004202070BDE870409622012121A0FCF746
:1033F000C1BF1D484C30FEF77FFF032020701948E5
:1034000022A11030E268FFF79DFEFCF76FFF154820
:103410001030FCF771FF1349E088891CFDF780FA32
:103420006188E068884200DB21B981B26180E08870
:10343000FDF7D8FAA58070BD25700B48FEF71CFF7C
:10344000FCF754FF12A0FCF757FFF3E7257006487E
:10345000FEF712FFFCF74AFFBDE870400CA0FCF736
:103460004BBF00002C000020D00000205761697481
:1034700000000000202020202020594F55524520D8
:103480004120434845415445520000002575000045
:10349000537461727400000000FE1467001D14472D
:1034A000009D009C003F00FA140000534198001951
:1034B000485A095A005F00FC015F01FC00AF140488
:1034C000005BC018815AC9005800C005005F004267
:1034D00000F5006700EA00AF00BF004600FF00EF04
:1034E000040000010607081709000100020004009B
:1034F000200008000000000000000000010203049A
:1035000006070809A0860100400D0300801A060086
:1035100000350C0040420F0080841E0000093D0071
:1035200000127A000024F40000366E010048E80121
:10353000006CDC025435000800000020740000001C
:103540008C310008C835000874000020F404000025
:103550009C31000800040000B80B0000B80B00000C
:103560000004004800100048000000480000004827
:103570000000004800000048000000480000000073
:103580000000000000005555000000000000000091
:1035900030303030303000000100000010000000FA
:1035A000000000000000000000000000000000001B
:1035B000000000000100000000000000000000000A
:0835C0000000000000093D00BD
:040000050800018965
:00000001FF
